{
  "address": "0x0C8a04faB35dc3239AC4e88F26903CF46Bd0bA47",
  "abi": [
    {
      "inputs": [
        {
          "internalType": "address",
          "name": "nftFactoryAddress_",
          "type": "address"
        }
      ],
      "stateMutability": "nonpayable",
      "type": "constructor"
    },
    {
      "inputs": [
        {
          "components": [
            {
              "internalType": "string",
              "name": "identifier",
              "type": "string"
            },
            {
              "internalType": "string",
              "name": "cid",
              "type": "string"
            },
            {
              "internalType": "string",
              "name": "encryptedCid",
              "type": "string"
            },
            {
              "internalType": "string",
              "name": "descriptionCid",
              "type": "string"
            },
            {
              "internalType": "bool",
              "name": "withNFT",
              "type": "bool"
            },
            {
              "internalType": "string",
              "name": "nftImageCid",
              "type": "string"
            },
            {
              "components": [
                {
                  "internalType": "string",
                  "name": "identifier",
                  "type": "string"
                },
                {
                  "internalType": "address",
                  "name": "signer",
                  "type": "address"
                },
                {
                  "internalType": "uint256",
                  "name": "totalUsed",
                  "type": "uint256"
                },
                {
                  "internalType": "uint256",
                  "name": "allowedToUse",
                  "type": "uint256"
                }
              ],
              "internalType": "struct SignatureConstraint[]",
              "name": "constraints",
              "type": "tuple[]"
            }
          ],
          "internalType": "struct CreateAgreementParams",
          "name": "params",
          "type": "tuple"
        }
      ],
      "name": "createAgreement",
      "outputs": [
        {
          "internalType": "uint256",
          "name": "",
          "type": "uint256"
        }
      ],
      "stateMutability": "nonpayable",
      "type": "function"
    },
    {
      "inputs": [
        {
          "internalType": "address",
          "name": "owner",
          "type": "address"
        },
        {
          "internalType": "uint256",
          "name": "offset",
          "type": "uint256"
        },
        {
          "internalType": "uint8",
          "name": "limit",
          "type": "uint8"
        }
      ],
      "name": "getAgreements",
      "outputs": [
        {
          "components": [
            {
              "internalType": "address",
              "name": "owner",
              "type": "address"
            },
            {
              "internalType": "enum AgreementStatus",
              "name": "status",
              "type": "uint8"
            },
            {
              "internalType": "uint256",
              "name": "index",
              "type": "uint256"
            },
            {
              "internalType": "string",
              "name": "identifier",
              "type": "string"
            },
            {
              "internalType": "string",
              "name": "cid",
              "type": "string"
            },
            {
              "internalType": "string",
              "name": "encryptedCid",
              "type": "string"
            },
            {
              "internalType": "string",
              "name": "descriptionCid",
              "type": "string"
            },
            {
              "internalType": "uint8",
              "name": "signedPackets",
              "type": "uint8"
            },
            {
              "internalType": "uint8",
              "name": "totalPackets",
              "type": "uint8"
            },
            {
              "internalType": "address",
              "name": "nftContractAddress",
              "type": "address"
            },
            {
              "components": [
                {
                  "internalType": "string",
                  "name": "identifier",
                  "type": "string"
                },
                {
                  "internalType": "address",
                  "name": "signer",
                  "type": "address"
                },
                {
                  "internalType": "uint256",
                  "name": "totalUsed",
                  "type": "uint256"
                },
                {
                  "internalType": "uint256",
                  "name": "allowedToUse",
                  "type": "uint256"
                }
              ],
              "internalType": "struct SignatureConstraint[]",
              "name": "constraints",
              "type": "tuple[]"
            }
          ],
          "internalType": "struct Agreement[]",
          "name": "",
          "type": "tuple[]"
        }
      ],
      "stateMutability": "view",
      "type": "function"
    },
    {
      "inputs": [],
      "name": "getProfile",
      "outputs": [
        {
          "components": [
            {
              "internalType": "uint256",
              "name": "totalAgreements",
              "type": "uint256"
            },
            {
              "internalType": "uint256",
              "name": "totalSignatures",
              "type": "uint256"
            }
          ],
          "internalType": "struct Profile",
          "name": "",
          "type": "tuple"
        }
      ],
      "stateMutability": "view",
      "type": "function"
    },
    {
      "inputs": [
        {
          "internalType": "address",
          "name": "owner",
          "type": "address"
        },
        {
          "internalType": "uint256",
          "name": "offset",
          "type": "uint256"
        },
        {
          "internalType": "uint8",
          "name": "limit",
          "type": "uint8"
        }
      ],
      "name": "getSignatures",
      "outputs": [
        {
          "components": [
            {
              "internalType": "address",
              "name": "agreementOwner",
              "type": "address"
            },
            {
              "internalType": "uint256",
              "name": "agreementIndex",
              "type": "uint256"
            },
            {
              "internalType": "uint256",
              "name": "index",
              "type": "uint256"
            },
            {
              "internalType": "string",
              "name": "identifier",
              "type": "string"
            },
            {
              "internalType": "string",
              "name": "encryptedCid",
              "type": "string"
            },
            {
              "internalType": "address",
              "name": "signer",
              "type": "address"
            },
            {
              "internalType": "address",
              "name": "nftContractAddress",
              "type": "address"
            },
            {
              "internalType": "uint256",
              "name": "nftTokenId",
              "type": "uint256"
            },
            {
              "internalType": "uint256",
              "name": "timestamp",
              "type": "uint256"
            },
            {
              "internalType": "uint256",
              "name": "blockNumber",
              "type": "uint256"
            }
          ],
          "internalType": "struct SignaturePacket[]",
          "name": "",
          "type": "tuple[]"
        }
      ],
      "stateMutability": "view",
      "type": "function"
    },
    {
      "inputs": [
        {
          "components": [
            {
              "internalType": "address",
              "name": "agreementOwner",
              "type": "address"
            },
            {
              "internalType": "uint256",
              "name": "agreementIndex",
              "type": "uint256"
            },
            {
              "internalType": "string",
              "name": "identifier",
              "type": "string"
            },
            {
              "internalType": "string",
              "name": "encryptedCid",
              "type": "string"
            },
            {
              "internalType": "string",
              "name": "nftTokenURI",
              "type": "string"
            }
          ],
          "internalType": "struct SignParams",
          "name": "params",
          "type": "tuple"
        }
      ],
      "name": "sign",
      "outputs": [
        {
          "internalType": "uint256",
          "name": "",
          "type": "uint256"
        }
      ],
      "stateMutability": "nonpayable",
      "type": "function"
    }
  ],
  "transactionHash": "0x6d57ead7e49fadda501f162d3fcdee1366642dd2d97c35c4ae943c6715a68d0c",
  "args": [
    "0xE2a21D2766FA64525CF0f9faA6933fF6fC176550"
  ],
  "numDeployments": 2,
  "solcInputHash": "05fdba798fa7b2f22c49fab7518e8a7f",
  "bytecode": "0x60806040523480156200001157600080fd5b50604051620032bc380380620032bc8339818101604052810190620000379190620000e8565b806000806101000a81548173ffffffffffffffffffffffffffffffffffffffff021916908373ffffffffffffffffffffffffffffffffffffffff160217905550506200011a565b600080fd5b600073ffffffffffffffffffffffffffffffffffffffff82169050919050565b6000620000b08262000083565b9050919050565b620000c281620000a3565b8114620000ce57600080fd5b50565b600081519050620000e281620000b7565b92915050565b6000602082840312156200010157620001006200007e565b5b60006200011184828501620000d1565b91505092915050565b613192806200012a6000396000f3fe608060405234801561001057600080fd5b50600436106100575760003560e01c8063554230f91461005c578063bc9c90561461008c578063be08164e146100bc578063c0708855146100ec578063d6afc9b11461011c575b600080fd5b61007660048036038101906100719190611bc6565b61013a565b604051610083919061203f565b60405180910390f35b6100a660048036038101906100a19190611bc6565b6107b4565b6040516100b39190612204565b60405180910390f35b6100d660048036038101906100d1919061224a565b610bb8565b6040516100e391906122a2565b60405180910390f35b6101066004803603810190610101919061270a565b61153b565b60405161011391906122a2565b60405180910390f35b61012461180b565b6040516101319190612782565b60405180910390f35b60606000600160008673ffffffffffffffffffffffffffffffffffffffff1673ffffffffffffffffffffffffffffffffffffffff1681526020019081526020016000206040518060400160405290816000820154815260200160018201548152505090506000808583600001516101b191906127cc565b905060008560ff1682116101c557816101ca565b8560ff165b905060008167ffffffffffffffff8111156101e8576101e76122c2565b5b60405190808252806020026020018201604052801561022157816020015b61020e611998565b8152602001906001900390816102065790505b50905060008890505b82896102369190612800565b8110156107a457600260008b73ffffffffffffffffffffffffffffffffffffffff1673ffffffffffffffffffffffffffffffffffffffff1681526020019081526020016000206000828152602001908152602001600020604051806101600160405290816000820160009054906101000a900473ffffffffffffffffffffffffffffffffffffffff1673ffffffffffffffffffffffffffffffffffffffff1673ffffffffffffffffffffffffffffffffffffffff1681526020016000820160149054906101000a900460ff16600381111561031457610313611c54565b5b600381111561032657610325611c54565b5b81526020016001820154815260200160028201805461034490612863565b80601f016020809104026020016040519081016040528092919081815260200182805461037090612863565b80156103bd5780601f10610392576101008083540402835291602001916103bd565b820191906000526020600020905b8154815290600101906020018083116103a057829003601f168201915b505050505081526020016003820180546103d690612863565b80601f016020809104026020016040519081016040528092919081815260200182805461040290612863565b801561044f5780601f106104245761010080835404028352916020019161044f565b820191906000526020600020905b81548152906001019060200180831161043257829003601f168201915b5050505050815260200160048201805461046890612863565b80601f016020809104026020016040519081016040528092919081815260200182805461049490612863565b80156104e15780601f106104b6576101008083540402835291602001916104e1565b820191906000526020600020905b8154815290600101906020018083116104c457829003601f168201915b505050505081526020016005820180546104fa90612863565b80601f016020809104026020016040519081016040528092919081815260200182805461052690612863565b80156105735780601f1061054857610100808354040283529160200191610573565b820191906000526020600020905b81548152906001019060200180831161055657829003601f168201915b505050505081526020016006820160009054906101000a900460ff1660ff1660ff1681526020016006820160019054906101000a900460ff1660ff1660ff1681526020016006820160029054906101000a900473ffffffffffffffffffffffffffffffffffffffff1673ffffffffffffffffffffffffffffffffffffffff1673ffffffffffffffffffffffffffffffffffffffff16815260200160078201805480602002602001604051908101604052809291908181526020016000905b8282101561075f578382906000526020600020906004020160405180608001604052908160008201805461066490612863565b80601f016020809104026020016040519081016040528092919081815260200182805461069090612863565b80156106dd5780601f106106b2576101008083540402835291602001916106dd565b820191906000526020600020905b8154815290600101906020018083116106c057829003601f168201915b505050505081526020016001820160009054906101000a900473ffffffffffffffffffffffffffffffffffffffff1673ffffffffffffffffffffffffffffffffffffffff1673ffffffffffffffffffffffffffffffffffffffff1681526020016002820154815260200160038201548152505081526020019060010190610631565b505050508152505082868061077390612894565b975081518110610786576107856128dc565b5b6020026020010181905250808061079c90612894565b91505061022a565b5080955050505050509392505050565b60606000600160008673ffffffffffffffffffffffffffffffffffffffff1673ffffffffffffffffffffffffffffffffffffffff16815260200190815260200160002060405180604001604052908160008201548152602001600182015481525050905060008085836020015161082b91906127cc565b905060008560ff16821161083f5781610844565b8560ff165b905060008167ffffffffffffffff811115610862576108616122c2565b5b60405190808252806020026020018201604052801561089b57816020015b610888611a36565b8152602001906001900390816108805790505b50905060008890505b82896108b09190612800565b811015610ba857600360008b73ffffffffffffffffffffffffffffffffffffffff1673ffffffffffffffffffffffffffffffffffffffff1681526020019081526020016000206000828152602001908152602001600020604051806101400160405290816000820160009054906101000a900473ffffffffffffffffffffffffffffffffffffffff1673ffffffffffffffffffffffffffffffffffffffff1673ffffffffffffffffffffffffffffffffffffffff168152602001600182015481526020016002820154815260200160038201805461098d90612863565b80601f01602080910402602001604051908101604052809291908181526020018280546109b990612863565b8015610a065780601f106109db57610100808354040283529160200191610a06565b820191906000526020600020905b8154815290600101906020018083116109e957829003601f168201915b50505050508152602001600482018054610a1f90612863565b80601f0160208091040260200160405190810160405280929190818152602001828054610a4b90612863565b8015610a985780601f10610a6d57610100808354040283529160200191610a98565b820191906000526020600020905b815481529060010190602001808311610a7b57829003601f168201915b505050505081526020016005820160009054906101000a900473ffffffffffffffffffffffffffffffffffffffff1673ffffffffffffffffffffffffffffffffffffffff1673ffffffffffffffffffffffffffffffffffffffff1681526020016006820160009054906101000a900473ffffffffffffffffffffffffffffffffffffffff1673ffffffffffffffffffffffffffffffffffffffff1673ffffffffffffffffffffffffffffffffffffffff1681526020016007820154815260200160088201548152602001600982015481525050828680610b7790612894565b975081518110610b8a57610b896128dc565b5b60200260200101819052508080610ba090612894565b9150506108a4565b5080955050505050509392505050565b60008060026000846000016020810190610bd2919061290b565b73ffffffffffffffffffffffffffffffffffffffff1673ffffffffffffffffffffffffffffffffffffffff1681526020019081526020016000206000846020013581526020019081526020016000209050826000016020810190610c36919061290b565b73ffffffffffffffffffffffffffffffffffffffff168160000160009054906101000a900473ffffffffffffffffffffffffffffffffffffffff1673ffffffffffffffffffffffffffffffffffffffff1614610cc7576040517f08c379a0000000000000000000000000000000000000000000000000000000008152600401610cbe90612995565b60405180910390fd5b60006003811115610cdb57610cda611c54565b5b8160000160149054906101000a900460ff166003811115610cff57610cfe611c54565b5b14610d3f576040517f08c379a0000000000000000000000000000000000000000000000000000000008152600401610d3690612a01565b60405180910390fd5b6000806000905060005b8360070180549050811015610fd357858060400190610d689190612a30565b604051602001610d79929190612ac3565b60405160208183030381529060405280519060200120846007018281548110610da557610da46128dc565b5b9060005260206000209060040201600001604051602001610dc69190612b74565b6040516020818303038152906040528051906020012003610fc05760019150836007018181548110610dfb57610dfa6128dc565b5b90600052602060002090600402019250600083600301541480610e25575082600301548360020154105b610e64576040517f08c379a0000000000000000000000000000000000000000000000000000000008152600401610e5b90612bd7565b60405180910390fd5b3273ffffffffffffffffffffffffffffffffffffffff168360010160009054906101000a900473ffffffffffffffffffffffffffffffffffffffff1673ffffffffffffffffffffffffffffffffffffffff161480610f125750600073ffffffffffffffffffffffffffffffffffffffff168360010160009054906101000a900473ffffffffffffffffffffffffffffffffffffffff1673ffffffffffffffffffffffffffffffffffffffff16145b610f51576040517f08c379a0000000000000000000000000000000000000000000000000000000008152600401610f4890612c43565b60405180910390fd5b826002016000815480929190610f6690612894565b91905055506001836003015403610fbb57328360010160006101000a81548173ffffffffffffffffffffffffffffffffffffffff021916908373ffffffffffffffffffffffffffffffffffffffff1602179055505b610fd3565b8080610fcb90612894565b915050610d49565b5080611014576040517f08c379a000000000000000000000000000000000000000000000000000000000815260040161100b90612caf565b60405180910390fd5b6000600160003273ffffffffffffffffffffffffffffffffffffffff1673ffffffffffffffffffffffffffffffffffffffff168152602001908152602001600020905060006040518061014001604052808660000160009054906101000a900473ffffffffffffffffffffffffffffffffffffffff1673ffffffffffffffffffffffffffffffffffffffff16815260200186600101548152602001836001015481526020018880604001906110c99190612a30565b8080601f016020809104026020016040519081016040528093929190818152602001838380828437600081840152601f19601f8201169050808301925050505050505081526020018880606001906111219190612a30565b8080601f016020809104026020016040519081016040528093929190818152602001838380828437600081840152601f19601f8201169050808301925050505050505081526020013273ffffffffffffffffffffffffffffffffffffffff1681526020018660060160029054906101000a900473ffffffffffffffffffffffffffffffffffffffff1673ffffffffffffffffffffffffffffffffffffffff16815260200160008152602001428152602001438152509050600073ffffffffffffffffffffffffffffffffffffffff168560060160029054906101000a900473ffffffffffffffffffffffffffffffffffffffff1673ffffffffffffffffffffffffffffffffffffffff16146112f25760008560060160029054906101000a900473ffffffffffffffffffffffffffffffffffffffff1690508073ffffffffffffffffffffffffffffffffffffffff166301a95bb3328a80608001906112869190612a30565b6040518463ffffffff1660e01b81526004016112a493929190612d0b565b6020604051808303816000875af11580156112c3573d6000803e3d6000fd5b505050506040513d601f19601f820116820180604052508101906112e79190612d52565b8260e0018181525050505b80600360003273ffffffffffffffffffffffffffffffffffffffff1673ffffffffffffffffffffffffffffffffffffffff16815260200190815260200160002060008460010154815260200190815260200160002060008201518160000160006101000a81548173ffffffffffffffffffffffffffffffffffffffff021916908373ffffffffffffffffffffffffffffffffffffffff160217905550602082015181600101556040820151816002015560608201518160030190816113b79190612f16565b5060808201518160040190816113cd9190612f16565b5060a08201518160050160006101000a81548173ffffffffffffffffffffffffffffffffffffffff021916908373ffffffffffffffffffffffffffffffffffffffff16021790555060c08201518160060160006101000a81548173ffffffffffffffffffffffffffffffffffffffff021916908373ffffffffffffffffffffffffffffffffffffffff16021790555060e082015181600701556101008201518160080155610120820151816009015590505084600601600081819054906101000a900460ff16809291906114a090612fe8565b91906101000a81548160ff021916908360ff160217905550508460060160019054906101000a900460ff1660ff168560060160009054906101000a900460ff1660ff16036115165760018560000160146101000a81548160ff021916908360038111156115105761150f611c54565b5b02179055505b81600101600081548092919061152b90612894565b9190505595505050505050919050565b600080600160003273ffffffffffffffffffffffffffffffffffffffff1673ffffffffffffffffffffffffffffffffffffffff16815260200190815260200160002090506000600260003273ffffffffffffffffffffffffffffffffffffffff1673ffffffffffffffffffffffffffffffffffffffff1681526020019081526020016000206000836000015481526020019081526020016000209050328160000160006101000a81548173ffffffffffffffffffffffffffffffffffffffff021916908373ffffffffffffffffffffffffffffffffffffffff16021790555060008160000160146101000a81548160ff0219169083600381111561164257611641611c54565b5b02179055508160000154816001018190555083600001518160020190816116699190612f16565b50836020015181600301908161167f9190612f16565b5083604001518160040190816116959190612f16565b5083606001518160050190816116ab9190612f16565b5060008160060160006101000a81548160ff021916908360ff1602179055508360c00151518160060160016101000a81548160ff021916908360ff16021790555060005b8460c00151518110156117ce57816007018560c001518281518110611717576117166128dc565b5b60200260200101519080600181540180825580915050600190039060005260206000209060040201600090919091909150600082015181600001908161175d9190612f16565b5060208201518160010160006101000a81548173ffffffffffffffffffffffffffffffffffffffff021916908373ffffffffffffffffffffffffffffffffffffffff1602179055506040820151816002015560608201518160030155505080806117c690612894565b9150506116ef565b508360800151156117e9576117e7818560a00151611876565b505b8160000160008154809291906117fe90612894565b9190505592505050919050565b611813611acb565b600160003273ffffffffffffffffffffffffffffffffffffffff1673ffffffffffffffffffffffffffffffffffffffff16815260200190815260200160002060405180604001604052908160008201548152602001600182015481525050905090565b60008060008054906101000a900473ffffffffffffffffffffffffffffffffffffffff16905060008173ffffffffffffffffffffffffffffffffffffffff16631e67c24a8660020187600201876040518463ffffffff1660e01b81526004016118e1939291906130ce565b6020604051808303816000875af1158015611900573d6000803e3d6000fd5b505050506040513d601f19601f82011682018060405250810190611924919061312f565b9050808560060160026101000a81548173ffffffffffffffffffffffffffffffffffffffff021916908373ffffffffffffffffffffffffffffffffffffffff1602179055508460060160029054906101000a900473ffffffffffffffffffffffffffffffffffffffff169250505092915050565b604051806101600160405280600073ffffffffffffffffffffffffffffffffffffffff168152602001600060038111156119d5576119d4611c54565b5b81526020016000815260200160608152602001606081526020016060815260200160608152602001600060ff168152602001600060ff168152602001600073ffffffffffffffffffffffffffffffffffffffff168152602001606081525090565b604051806101400160405280600073ffffffffffffffffffffffffffffffffffffffff16815260200160008152602001600081526020016060815260200160608152602001600073ffffffffffffffffffffffffffffffffffffffff168152602001600073ffffffffffffffffffffffffffffffffffffffff1681526020016000815260200160008152602001600081525090565b604051806040016040528060008152602001600081525090565b6000604051905090565b600080fd5b600080fd5b600073ffffffffffffffffffffffffffffffffffffffff82169050919050565b6000611b2482611af9565b9050919050565b611b3481611b19565b8114611b3f57600080fd5b50565b600081359050611b5181611b2b565b92915050565b6000819050919050565b611b6a81611b57565b8114611b7557600080fd5b50565b600081359050611b8781611b61565b92915050565b600060ff82169050919050565b611ba381611b8d565b8114611bae57600080fd5b50565b600081359050611bc081611b9a565b92915050565b600080600060608486031215611bdf57611bde611aef565b5b6000611bed86828701611b42565b9350506020611bfe86828701611b78565b9250506040611c0f86828701611bb1565b9150509250925092565b600081519050919050565b600082825260208201905092915050565b6000819050602082019050919050565b611c4e81611b19565b82525050565b7f4e487b7100000000000000000000000000000000000000000000000000000000600052602160045260246000fd5b60048110611c9457611c93611c54565b5b50565b6000819050611ca582611c83565b919050565b6000611cb582611c97565b9050919050565b611cc581611caa565b82525050565b611cd481611b57565b82525050565b600081519050919050565b600082825260208201905092915050565b60005b83811015611d14578082015181840152602081019050611cf9565b60008484015250505050565b6000601f19601f8301169050919050565b6000611d3c82611cda565b611d468185611ce5565b9350611d56818560208601611cf6565b611d5f81611d20565b840191505092915050565b611d7381611b8d565b82525050565b600081519050919050565b600082825260208201905092915050565b6000819050602082019050919050565b60006080830160008301518482036000860152611dc28282611d31565b9150506020830151611dd76020860182611c45565b506040830151611dea6040860182611ccb565b506060830151611dfd6060860182611ccb565b508091505092915050565b6000611e148383611da5565b905092915050565b6000602082019050919050565b6000611e3482611d79565b611e3e8185611d84565b935083602082028501611e5085611d95565b8060005b85811015611e8c5784840389528151611e6d8582611e08565b9450611e7883611e1c565b925060208a01995050600181019050611e54565b50829750879550505050505092915050565b600061016083016000830151611eb76000860182611c45565b506020830151611eca6020860182611cbc565b506040830151611edd6040860182611ccb565b5060608301518482036060860152611ef58282611d31565b91505060808301518482036080860152611f0f8282611d31565b91505060a083015184820360a0860152611f298282611d31565b91505060c083015184820360c0860152611f438282611d31565b91505060e0830151611f5860e0860182611d6a565b50610100830151611f6d610100860182611d6a565b50610120830151611f82610120860182611c45565b50610140830151848203610140860152611f9c8282611e29565b9150508091505092915050565b6000611fb58383611e9e565b905092915050565b6000602082019050919050565b6000611fd582611c19565b611fdf8185611c24565b935083602082028501611ff185611c35565b8060005b8581101561202d578484038952815161200e8582611fa9565b945061201983611fbd565b925060208a01995050600181019050611ff5565b50829750879550505050505092915050565b600060208201905081810360008301526120598184611fca565b905092915050565b600081519050919050565b600082825260208201905092915050565b6000819050602082019050919050565b6000610140830160008301516120a66000860182611c45565b5060208301516120b96020860182611ccb565b5060408301516120cc6040860182611ccb565b50606083015184820360608601526120e48282611d31565b915050608083015184820360808601526120fe8282611d31565b91505060a083015161211360a0860182611c45565b5060c083015161212660c0860182611c45565b5060e083015161213960e0860182611ccb565b5061010083015161214e610100860182611ccb565b50610120830151612163610120860182611ccb565b508091505092915050565b600061217a838361208d565b905092915050565b6000602082019050919050565b600061219a82612061565b6121a4818561206c565b9350836020820285016121b68561207d565b8060005b858110156121f257848403895281516121d3858261216e565b94506121de83612182565b925060208a019950506001810190506121ba565b50829750879550505050505092915050565b6000602082019050818103600083015261221e818461218f565b905092915050565b600080fd5b600060a0828403121561224157612240612226565b5b81905092915050565b6000602082840312156122605761225f611aef565b5b600082013567ffffffffffffffff81111561227e5761227d611af4565b5b61228a8482850161222b565b91505092915050565b61229c81611b57565b82525050565b60006020820190506122b76000830184612293565b92915050565b600080fd5b7f4e487b7100000000000000000000000000000000000000000000000000000000600052604160045260246000fd5b6122fa82611d20565b810181811067ffffffffffffffff82111715612319576123186122c2565b5b80604052505050565b600061232c611ae5565b905061233882826122f1565b919050565b600080fd5b600080fd5b600080fd5b600067ffffffffffffffff821115612367576123666122c2565b5b61237082611d20565b9050602081019050919050565b82818337600083830152505050565b600061239f61239a8461234c565b612322565b9050828152602081018484840111156123bb576123ba612347565b5b6123c684828561237d565b509392505050565b600082601f8301126123e3576123e2612342565b5b81356123f384826020860161238c565b91505092915050565b60008115159050919050565b612411816123fc565b811461241c57600080fd5b50565b60008135905061242e81612408565b92915050565b600067ffffffffffffffff82111561244f5761244e6122c2565b5b602082029050602081019050919050565b600080fd5b60006080828403121561247b5761247a6122bd565b5b6124856080612322565b9050600082013567ffffffffffffffff8111156124a5576124a461233d565b5b6124b1848285016123ce565b60008301525060206124c584828501611b42565b60208301525060406124d984828501611b78565b60408301525060606124ed84828501611b78565b60608301525092915050565b600061250c61250784612434565b612322565b9050808382526020820190506020840283018581111561252f5761252e612460565b5b835b8181101561257657803567ffffffffffffffff81111561255457612553612342565b5b8086016125618982612465565b85526020850194505050602081019050612531565b5050509392505050565b600082601f83011261259557612594612342565b5b81356125a58482602086016124f9565b91505092915050565b600060e082840312156125c4576125c36122bd565b5b6125ce60e0612322565b9050600082013567ffffffffffffffff8111156125ee576125ed61233d565b5b6125fa848285016123ce565b600083015250602082013567ffffffffffffffff81111561261e5761261d61233d565b5b61262a848285016123ce565b602083015250604082013567ffffffffffffffff81111561264e5761264d61233d565b5b61265a848285016123ce565b604083015250606082013567ffffffffffffffff81111561267e5761267d61233d565b5b61268a848285016123ce565b606083015250608061269e8482850161241f565b60808301525060a082013567ffffffffffffffff8111156126c2576126c161233d565b5b6126ce848285016123ce565b60a08301525060c082013567ffffffffffffffff8111156126f2576126f161233d565b5b6126fe84828501612580565b60c08301525092915050565b6000602082840312156127205761271f611aef565b5b600082013567ffffffffffffffff81111561273e5761273d611af4565b5b61274a848285016125ae565b91505092915050565b6040820160008201516127696000850182611ccb565b50602082015161277c6020850182611ccb565b50505050565b60006040820190506127976000830184612753565b92915050565b7f4e487b7100000000000000000000000000000000000000000000000000000000600052601160045260246000fd5b60006127d782611b57565b91506127e283611b57565b92508282039050818111156127fa576127f961279d565b5b92915050565b600061280b82611b57565b915061281683611b57565b925082820190508082111561282e5761282d61279d565b5b92915050565b7f4e487b7100000000000000000000000000000000000000000000000000000000600052602260045260246000fd5b6000600282049050600182168061287b57607f821691505b60208210810361288e5761288d612834565b5b50919050565b600061289f82611b57565b91507fffffffffffffffffffffffffffffffffffffffffffffffffffffffffffffffff82036128d1576128d061279d565b5b600182019050919050565b7f4e487b7100000000000000000000000000000000000000000000000000000000600052603260045260246000fd5b60006020828403121561292157612920611aef565b5b600061292f84828501611b42565b91505092915050565b600082825260208201905092915050565b7f496e76616c69642061677265656d656e74000000000000000000000000000000600082015250565b600061297f601183612938565b915061298a82612949565b602082019050919050565b600060208201905081810360008301526129ae81612972565b9050919050565b7f41677265656d656e74206973206e6f742050454e44494e470000000000000000600082015250565b60006129eb601883612938565b91506129f6826129b5565b602082019050919050565b60006020820190508181036000830152612a1a816129de565b9050919050565b600080fd5b600080fd5b600080fd5b60008083356001602003843603038112612a4d57612a4c612a21565b5b80840192508235915067ffffffffffffffff821115612a6f57612a6e612a26565b5b602083019250600182023603831315612a8b57612a8a612a2b565b5b509250929050565b600081905092915050565b6000612aaa8385612a93565b9350612ab783858461237d565b82840190509392505050565b6000612ad0828486612a9e565b91508190509392505050565b60008190508160005260206000209050919050565b60008154612afe81612863565b612b088186612a93565b94506001821660008114612b235760018114612b3857612b6b565b60ff1983168652811515820286019350612b6b565b612b4185612adc565b60005b83811015612b6357815481890152600182019150602081019050612b44565b838801955050505b50505092915050565b6000612b808284612af1565b915081905092915050565b7f5369676e617475726520616c7265616479206761746865726564000000000000600082015250565b6000612bc1601a83612938565b9150612bcc82612b8b565b602082019050919050565b60006020820190508181036000830152612bf081612bb4565b9050919050565b7f4d69736d617463686564207369676e6572000000000000000000000000000000600082015250565b6000612c2d601183612938565b9150612c3882612bf7565b602082019050919050565b60006020820190508181036000830152612c5c81612c20565b9050919050565b7f4d697373696e67207369676e617475726520636f6e73747261696e7400000000600082015250565b6000612c99601c83612938565b9150612ca482612c63565b602082019050919050565b60006020820190508181036000830152612cc881612c8c565b9050919050565b612cd881611b19565b82525050565b6000612cea8385612938565b9350612cf783858461237d565b612d0083611d20565b840190509392505050565b6000604082019050612d206000830186612ccf565b8181036020830152612d33818486612cde565b9050949350505050565b600081519050612d4c81611b61565b92915050565b600060208284031215612d6857612d67611aef565b5b6000612d7684828501612d3d565b91505092915050565b60006020601f8301049050919050565b600082821b905092915050565b600060088302612dcc7fffffffffffffffffffffffffffffffffffffffffffffffffffffffffffffffff82612d8f565b612dd68683612d8f565b95508019841693508086168417925050509392505050565b6000819050919050565b6000612e13612e0e612e0984611b57565b612dee565b611b57565b9050919050565b6000819050919050565b612e2d83612df8565b612e41612e3982612e1a565b848454612d9c565b825550505050565b600090565b612e56612e49565b612e61818484612e24565b505050565b5b81811015612e8557612e7a600082612e4e565b600181019050612e67565b5050565b601f821115612eca57612e9b81612adc565b612ea484612d7f565b81016020851015612eb3578190505b612ec7612ebf85612d7f565b830182612e66565b50505b505050565b600082821c905092915050565b6000612eed60001984600802612ecf565b1980831691505092915050565b6000612f068383612edc565b9150826002028217905092915050565b612f1f82611cda565b67ffffffffffffffff811115612f3857612f376122c2565b5b612f428254612863565b612f4d828285612e89565b600060209050601f831160018114612f805760008415612f6e578287015190505b612f788582612efa565b865550612fe0565b601f198416612f8e86612adc565b60005b82811015612fb657848901518255600182019150602085019450602081019050612f91565b86831015612fd35784890151612fcf601f891682612edc565b8355505b6001600288020188555050505b505050505050565b6000612ff382611b8d565b915060ff82036130065761300561279d565b5b600182019050919050565b6000815461301e81612863565b6130288186612938565b9450600182166000811461304357600181146130595761308c565b60ff19831686528115156020028601935061308c565b61306285612adc565b60005b8381101561308457815481890152600182019150602081019050613065565b808801955050505b50505092915050565b60006130a082611cda565b6130aa8185612938565b93506130ba818560208601611cf6565b6130c381611d20565b840191505092915050565b600060608201905081810360008301526130e88186613011565b905081810360208301526130fc8185613011565b905081810360408301526131108184613095565b9050949350505050565b60008151905061312981611b2b565b92915050565b60006020828403121561314557613144611aef565b5b60006131538482850161311a565b9150509291505056fea26469706673582212205fb7d531bd3a021dc292425d800b307b756bc81a5715a716065f8d16a8cbb94464736f6c63430008110033",
  "devdoc": {
    "kind": "dev",
    "methods": {},
    "version": 1
  },
  "userdoc": {
    "kind": "user",
    "methods": {},
    "version": 1
  },
  "storageLayout": {
    "storage": [
      {
        "astId": 2758,
        "contract": "contracts/DigitalSignature.sol:DigitalSignature",
        "label": "_nftFactoryAddress",
        "offset": 0,
        "slot": "0",
        "type": "t_address"
      },
      {
        "astId": 2763,
        "contract": "contracts/DigitalSignature.sol:DigitalSignature",
        "label": "profiles",
        "offset": 0,
        "slot": "1",
        "type": "t_mapping(t_address,t_struct(Profile)2700_storage)"
      },
      {
        "astId": 2770,
        "contract": "contracts/DigitalSignature.sol:DigitalSignature",
        "label": "agreements",
        "offset": 0,
        "slot": "2",
        "type": "t_mapping(t_address,t_mapping(t_uint256,t_struct(Agreement)2735_storage))"
      },
      {
        "astId": 2777,
        "contract": "contracts/DigitalSignature.sol:DigitalSignature",
        "label": "packets",
        "offset": 0,
        "slot": "3",
        "type": "t_mapping(t_address,t_mapping(t_uint256,t_struct(SignaturePacket)2756_storage))"
      }
    ],
    "types": {
      "t_address": {
        "encoding": "inplace",
        "label": "address",
        "numberOfBytes": "20"
      },
      "t_array(t_struct(SignatureConstraint)2709_storage)dyn_storage": {
        "base": "t_struct(SignatureConstraint)2709_storage",
        "encoding": "dynamic_array",
        "label": "struct SignatureConstraint[]",
        "numberOfBytes": "32"
      },
      "t_enum(AgreementStatus)2695": {
        "encoding": "inplace",
        "label": "enum AgreementStatus",
        "numberOfBytes": "1"
      },
      "t_mapping(t_address,t_mapping(t_uint256,t_struct(Agreement)2735_storage))": {
        "encoding": "mapping",
        "key": "t_address",
        "label": "mapping(address => mapping(uint256 => struct Agreement))",
        "numberOfBytes": "32",
        "value": "t_mapping(t_uint256,t_struct(Agreement)2735_storage)"
      },
      "t_mapping(t_address,t_mapping(t_uint256,t_struct(SignaturePacket)2756_storage))": {
        "encoding": "mapping",
        "key": "t_address",
        "label": "mapping(address => mapping(uint256 => struct SignaturePacket))",
        "numberOfBytes": "32",
        "value": "t_mapping(t_uint256,t_struct(SignaturePacket)2756_storage)"
      },
      "t_mapping(t_address,t_struct(Profile)2700_storage)": {
        "encoding": "mapping",
        "key": "t_address",
        "label": "mapping(address => struct Profile)",
        "numberOfBytes": "32",
        "value": "t_struct(Profile)2700_storage"
      },
      "t_mapping(t_uint256,t_struct(Agreement)2735_storage)": {
        "encoding": "mapping",
        "key": "t_uint256",
        "label": "mapping(uint256 => struct Agreement)",
        "numberOfBytes": "32",
        "value": "t_struct(Agreement)2735_storage"
      },
      "t_mapping(t_uint256,t_struct(SignaturePacket)2756_storage)": {
        "encoding": "mapping",
        "key": "t_uint256",
        "label": "mapping(uint256 => struct SignaturePacket)",
        "numberOfBytes": "32",
        "value": "t_struct(SignaturePacket)2756_storage"
      },
      "t_string_storage": {
        "encoding": "bytes",
        "label": "string",
        "numberOfBytes": "32"
      },
      "t_struct(Agreement)2735_storage": {
        "encoding": "inplace",
        "label": "struct Agreement",
        "members": [
          {
            "astId": 2711,
            "contract": "contracts/DigitalSignature.sol:DigitalSignature",
            "label": "owner",
            "offset": 0,
            "slot": "0",
            "type": "t_address"
          },
          {
            "astId": 2714,
            "contract": "contracts/DigitalSignature.sol:DigitalSignature",
            "label": "status",
            "offset": 20,
            "slot": "0",
            "type": "t_enum(AgreementStatus)2695"
          },
          {
            "astId": 2716,
            "contract": "contracts/DigitalSignature.sol:DigitalSignature",
            "label": "index",
            "offset": 0,
            "slot": "1",
            "type": "t_uint256"
          },
          {
            "astId": 2718,
            "contract": "contracts/DigitalSignature.sol:DigitalSignature",
            "label": "identifier",
            "offset": 0,
            "slot": "2",
            "type": "t_string_storage"
          },
          {
            "astId": 2720,
            "contract": "contracts/DigitalSignature.sol:DigitalSignature",
            "label": "cid",
            "offset": 0,
            "slot": "3",
            "type": "t_string_storage"
          },
          {
            "astId": 2722,
            "contract": "contracts/DigitalSignature.sol:DigitalSignature",
            "label": "encryptedCid",
            "offset": 0,
            "slot": "4",
            "type": "t_string_storage"
          },
          {
            "astId": 2724,
            "contract": "contracts/DigitalSignature.sol:DigitalSignature",
            "label": "descriptionCid",
            "offset": 0,
            "slot": "5",
            "type": "t_string_storage"
          },
          {
            "astId": 2726,
            "contract": "contracts/DigitalSignature.sol:DigitalSignature",
            "label": "signedPackets",
            "offset": 0,
            "slot": "6",
            "type": "t_uint8"
          },
          {
            "astId": 2728,
            "contract": "contracts/DigitalSignature.sol:DigitalSignature",
            "label": "totalPackets",
            "offset": 1,
            "slot": "6",
            "type": "t_uint8"
          },
          {
            "astId": 2730,
            "contract": "contracts/DigitalSignature.sol:DigitalSignature",
            "label": "nftContractAddress",
            "offset": 2,
            "slot": "6",
            "type": "t_address"
          },
          {
            "astId": 2734,
            "contract": "contracts/DigitalSignature.sol:DigitalSignature",
            "label": "constraints",
            "offset": 0,
            "slot": "7",
            "type": "t_array(t_struct(SignatureConstraint)2709_storage)dyn_storage"
          }
        ],
        "numberOfBytes": "256"
      },
      "t_struct(Profile)2700_storage": {
        "encoding": "inplace",
        "label": "struct Profile",
        "members": [
          {
            "astId": 2697,
            "contract": "contracts/DigitalSignature.sol:DigitalSignature",
            "label": "totalAgreements",
            "offset": 0,
            "slot": "0",
            "type": "t_uint256"
          },
          {
            "astId": 2699,
            "contract": "contracts/DigitalSignature.sol:DigitalSignature",
            "label": "totalSignatures",
            "offset": 0,
            "slot": "1",
            "type": "t_uint256"
          }
        ],
        "numberOfBytes": "64"
      },
      "t_struct(SignatureConstraint)2709_storage": {
        "encoding": "inplace",
        "label": "struct SignatureConstraint",
        "members": [
          {
            "astId": 2702,
            "contract": "contracts/DigitalSignature.sol:DigitalSignature",
            "label": "identifier",
            "offset": 0,
            "slot": "0",
            "type": "t_string_storage"
          },
          {
            "astId": 2704,
            "contract": "contracts/DigitalSignature.sol:DigitalSignature",
            "label": "signer",
            "offset": 0,
            "slot": "1",
            "type": "t_address"
          },
          {
            "astId": 2706,
            "contract": "contracts/DigitalSignature.sol:DigitalSignature",
            "label": "totalUsed",
            "offset": 0,
            "slot": "2",
            "type": "t_uint256"
          },
          {
            "astId": 2708,
            "contract": "contracts/DigitalSignature.sol:DigitalSignature",
            "label": "allowedToUse",
            "offset": 0,
            "slot": "3",
            "type": "t_uint256"
          }
        ],
        "numberOfBytes": "128"
      },
      "t_struct(SignaturePacket)2756_storage": {
        "encoding": "inplace",
        "label": "struct SignaturePacket",
        "members": [
          {
            "astId": 2737,
            "contract": "contracts/DigitalSignature.sol:DigitalSignature",
            "label": "agreementOwner",
            "offset": 0,
            "slot": "0",
            "type": "t_address"
          },
          {
            "astId": 2739,
            "contract": "contracts/DigitalSignature.sol:DigitalSignature",
            "label": "agreementIndex",
            "offset": 0,
            "slot": "1",
            "type": "t_uint256"
          },
          {
            "astId": 2741,
            "contract": "contracts/DigitalSignature.sol:DigitalSignature",
            "label": "index",
            "offset": 0,
            "slot": "2",
            "type": "t_uint256"
          },
          {
            "astId": 2743,
            "contract": "contracts/DigitalSignature.sol:DigitalSignature",
            "label": "identifier",
            "offset": 0,
            "slot": "3",
            "type": "t_string_storage"
          },
          {
            "astId": 2745,
            "contract": "contracts/DigitalSignature.sol:DigitalSignature",
            "label": "encryptedCid",
            "offset": 0,
            "slot": "4",
            "type": "t_string_storage"
          },
          {
            "astId": 2747,
            "contract": "contracts/DigitalSignature.sol:DigitalSignature",
            "label": "signer",
            "offset": 0,
            "slot": "5",
            "type": "t_address"
          },
          {
            "astId": 2749,
            "contract": "contracts/DigitalSignature.sol:DigitalSignature",
            "label": "nftContractAddress",
            "offset": 0,
            "slot": "6",
            "type": "t_address"
          },
          {
            "astId": 2751,
            "contract": "contracts/DigitalSignature.sol:DigitalSignature",
            "label": "nftTokenId",
            "offset": 0,
            "slot": "7",
            "type": "t_uint256"
          },
          {
            "astId": 2753,
            "contract": "contracts/DigitalSignature.sol:DigitalSignature",
            "label": "timestamp",
            "offset": 0,
            "slot": "8",
            "type": "t_uint256"
          },
          {
            "astId": 2755,
            "contract": "contracts/DigitalSignature.sol:DigitalSignature",
            "label": "blockNumber",
            "offset": 0,
            "slot": "9",
            "type": "t_uint256"
          }
        ],
        "numberOfBytes": "320"
      },
      "t_uint256": {
        "encoding": "inplace",
        "label": "uint256",
        "numberOfBytes": "32"
      },
      "t_uint8": {
        "encoding": "inplace",
        "label": "uint8",
        "numberOfBytes": "1"
      }
    }
  }
}