{
  "address": "0xfa85093B31bDAA47487C26Fb59d25Ef803261730",
  "abi": [
    {
      "inputs": [
        {
          "internalType": "string",
          "name": "identifier",
          "type": "string"
        },
        {
          "internalType": "string",
          "name": "cid",
          "type": "string"
        },
        {
          "internalType": "string",
          "name": "encryptedCid",
          "type": "string"
        },
        {
          "internalType": "string",
          "name": "descriptionCid",
          "type": "string"
        },
        {
          "components": [
            {
              "internalType": "string",
              "name": "identifier",
              "type": "string"
            },
            {
              "internalType": "address",
              "name": "signer",
              "type": "address"
            },
            {
              "internalType": "bool",
              "name": "used",
              "type": "bool"
            }
          ],
          "internalType": "struct SignatureConstraint[]",
          "name": "constraints",
          "type": "tuple[]"
        }
      ],
      "name": "createAgreement",
      "outputs": [
        {
          "internalType": "uint32",
          "name": "",
          "type": "uint32"
        }
      ],
      "stateMutability": "nonpayable",
      "type": "function"
    },
    {
      "inputs": [
        {
          "internalType": "address",
          "name": "owner",
          "type": "address"
        },
        {
          "internalType": "uint32",
          "name": "index",
          "type": "uint32"
        }
      ],
      "name": "getAgreement",
      "outputs": [
        {
          "components": [
            {
              "internalType": "address",
              "name": "owner",
              "type": "address"
            },
            {
              "internalType": "enum AgreementStatus",
              "name": "status",
              "type": "uint8"
            },
            {
              "internalType": "uint32",
              "name": "index",
              "type": "uint32"
            },
            {
              "internalType": "string",
              "name": "identifier",
              "type": "string"
            },
            {
              "internalType": "string",
              "name": "cid",
              "type": "string"
            },
            {
              "internalType": "string",
              "name": "encryptedCid",
              "type": "string"
            },
            {
              "internalType": "string",
              "name": "descriptionCid",
              "type": "string"
            },
            {
              "internalType": "uint8",
              "name": "signedPackets",
              "type": "uint8"
            },
            {
              "internalType": "uint8",
              "name": "totalPackets",
              "type": "uint8"
            },
            {
              "components": [
                {
                  "internalType": "string",
                  "name": "identifier",
                  "type": "string"
                },
                {
                  "internalType": "address",
                  "name": "signer",
                  "type": "address"
                },
                {
                  "internalType": "bool",
                  "name": "used",
                  "type": "bool"
                }
              ],
              "internalType": "struct SignatureConstraint[]",
              "name": "constraints",
              "type": "tuple[]"
            }
          ],
          "internalType": "struct Agreement",
          "name": "",
          "type": "tuple"
        }
      ],
      "stateMutability": "view",
      "type": "function"
    },
    {
      "inputs": [
        {
          "internalType": "address",
          "name": "owner",
          "type": "address"
        },
        {
          "internalType": "uint32",
          "name": "offset",
          "type": "uint32"
        }
      ],
      "name": "getAgreements",
      "outputs": [
        {
          "components": [
            {
              "internalType": "address",
              "name": "owner",
              "type": "address"
            },
            {
              "internalType": "enum AgreementStatus",
              "name": "status",
              "type": "uint8"
            },
            {
              "internalType": "uint32",
              "name": "index",
              "type": "uint32"
            },
            {
              "internalType": "string",
              "name": "identifier",
              "type": "string"
            },
            {
              "internalType": "string",
              "name": "cid",
              "type": "string"
            },
            {
              "internalType": "string",
              "name": "encryptedCid",
              "type": "string"
            },
            {
              "internalType": "string",
              "name": "descriptionCid",
              "type": "string"
            },
            {
              "internalType": "uint8",
              "name": "signedPackets",
              "type": "uint8"
            },
            {
              "internalType": "uint8",
              "name": "totalPackets",
              "type": "uint8"
            },
            {
              "components": [
                {
                  "internalType": "string",
                  "name": "identifier",
                  "type": "string"
                },
                {
                  "internalType": "address",
                  "name": "signer",
                  "type": "address"
                },
                {
                  "internalType": "bool",
                  "name": "used",
                  "type": "bool"
                }
              ],
              "internalType": "struct SignatureConstraint[]",
              "name": "constraints",
              "type": "tuple[]"
            }
          ],
          "internalType": "struct Agreement[]",
          "name": "",
          "type": "tuple[]"
        }
      ],
      "stateMutability": "view",
      "type": "function"
    },
    {
      "inputs": [],
      "name": "getProfile",
      "outputs": [
        {
          "components": [
            {
              "internalType": "uint32",
              "name": "totalAgreements",
              "type": "uint32"
            },
            {
              "internalType": "uint32",
              "name": "totalSignatures",
              "type": "uint32"
            }
          ],
          "internalType": "struct Profile",
          "name": "",
          "type": "tuple"
        }
      ],
      "stateMutability": "view",
      "type": "function"
    },
    {
      "inputs": [
        {
          "internalType": "address",
          "name": "owner",
          "type": "address"
        },
        {
          "internalType": "uint32",
          "name": "index",
          "type": "uint32"
        }
      ],
      "name": "getSignature",
      "outputs": [
        {
          "components": [
            {
              "internalType": "address",
              "name": "agreementOwner",
              "type": "address"
            },
            {
              "internalType": "uint32",
              "name": "agreementIndex",
              "type": "uint32"
            },
            {
              "internalType": "uint32",
              "name": "index",
              "type": "uint32"
            },
            {
              "internalType": "string",
              "name": "identifier",
              "type": "string"
            },
            {
              "internalType": "string",
              "name": "encryptedCid",
              "type": "string"
            },
            {
              "internalType": "address",
              "name": "signer",
              "type": "address"
            },
            {
              "internalType": "uint256",
              "name": "timestamp",
              "type": "uint256"
            },
            {
              "internalType": "uint256",
              "name": "blockNumber",
              "type": "uint256"
            }
          ],
          "internalType": "struct ESignaturePacket",
          "name": "",
          "type": "tuple"
        }
      ],
      "stateMutability": "view",
      "type": "function"
    },
    {
      "inputs": [
        {
          "internalType": "address",
          "name": "owner",
          "type": "address"
        },
        {
          "internalType": "uint32",
          "name": "offset",
          "type": "uint32"
        }
      ],
      "name": "getSignatures",
      "outputs": [
        {
          "components": [
            {
              "internalType": "address",
              "name": "agreementOwner",
              "type": "address"
            },
            {
              "internalType": "uint32",
              "name": "agreementIndex",
              "type": "uint32"
            },
            {
              "internalType": "uint32",
              "name": "index",
              "type": "uint32"
            },
            {
              "internalType": "string",
              "name": "identifier",
              "type": "string"
            },
            {
              "internalType": "string",
              "name": "encryptedCid",
              "type": "string"
            },
            {
              "internalType": "address",
              "name": "signer",
              "type": "address"
            },
            {
              "internalType": "uint256",
              "name": "timestamp",
              "type": "uint256"
            },
            {
              "internalType": "uint256",
              "name": "blockNumber",
              "type": "uint256"
            }
          ],
          "internalType": "struct ESignaturePacket[]",
          "name": "",
          "type": "tuple[]"
        }
      ],
      "stateMutability": "view",
      "type": "function"
    },
    {
      "inputs": [
        {
          "internalType": "address",
          "name": "agreementOwner",
          "type": "address"
        },
        {
          "internalType": "uint32",
          "name": "agreementIndex",
          "type": "uint32"
        },
        {
          "internalType": "string",
          "name": "identifier",
          "type": "string"
        },
        {
          "internalType": "string",
          "name": "encryptedCid",
          "type": "string"
        }
      ],
      "name": "sign",
      "outputs": [
        {
          "internalType": "uint32",
          "name": "",
          "type": "uint32"
        }
      ],
      "stateMutability": "nonpayable",
      "type": "function"
    }
  ],
  "transactionHash": "0xe66d37ced8123273d3e35080de898bd329e9beb1ae5db0bfb1f2021f8f16b53d",
  "args": [],
  "numDeployments": 6,
  "solcInputHash": "d2830c17d799ea1189373272d95ada4e",
  "bytecode": "0x608060405234801561001057600080fd5b50613929806100206000396000f3fe608060405234801561001057600080fd5b506004361061007d5760003560e01c80639b470a031161005b5780639b470a0314610112578063cf174cd914610142578063d6afc9b114610172578063fad58b9a146101905761007d565b806302e9babf146100825780634f07beca146100b25780638f3c5f4d146100e2575b600080fd5b61009c6004803603810190610097919061236b565b6101c0565b6040516100a991906127d1565b60405180910390f35b6100cc60048036038101906100c79190612858565b61084a565b6040516100d9919061290e565b60405180910390f35b6100fc60048036038101906100f7919061236b565b611019565b60405161010991906129f9565b60405180910390f35b61012c6004803603810190610127919061236b565b6113ae565b6040516101399190612b11565b60405180910390f35b61015c6004803603810190610157919061236b565b6119ae565b6040516101699190612cac565b60405180910390f35b61017a611dcd565b6040516101879190612cfd565b60405180910390f35b6101aa60048036038101906101a59190612fdf565b611e6f565b6040516101b7919061290e565b60405180910390f35b606060008060008573ffffffffffffffffffffffffffffffffffffffff1673ffffffffffffffffffffffffffffffffffffffff1681526020019081526020016000206040518060400160405290816000820160009054906101000a900463ffffffff1663ffffffff1663ffffffff1681526020016000820160049054906101000a900463ffffffff1663ffffffff1663ffffffff1681525050905060008084836000015161026e9190613126565b63ffffffff1690506000600a82116102865781610289565b600a5b67ffffffffffffffff8111156102a2576102a1612d18565b5b6040519080825280602002602001820160405280156102db57816020015b6102c8612193565b8152602001906001900390816102c05790505b50905060008690505b846000015163ffffffff168163ffffffff16101561083c57600160008973ffffffffffffffffffffffffffffffffffffffff1673ffffffffffffffffffffffffffffffffffffffff16815260200190815260200160002060008263ffffffff1663ffffffff168152602001908152602001600020604051806101400160405290816000820160009054906101000a900473ffffffffffffffffffffffffffffffffffffffff1673ffffffffffffffffffffffffffffffffffffffff1673ffffffffffffffffffffffffffffffffffffffff1681526020016000820160149054906101000a900460ff1660038111156103df576103de6123e6565b5b60038111156103f1576103f06123e6565b5b81526020016000820160159054906101000a900463ffffffff1663ffffffff1663ffffffff16815260200160018201805461042b9061318d565b80601f01602080910402602001604051908101604052809291908181526020018280546104579061318d565b80156104a45780601f10610479576101008083540402835291602001916104a4565b820191906000526020600020905b81548152906001019060200180831161048757829003601f168201915b505050505081526020016002820180546104bd9061318d565b80601f01602080910402602001604051908101604052809291908181526020018280546104e99061318d565b80156105365780601f1061050b57610100808354040283529160200191610536565b820191906000526020600020905b81548152906001019060200180831161051957829003601f168201915b5050505050815260200160038201805461054f9061318d565b80601f016020809104026020016040519081016040528092919081815260200182805461057b9061318d565b80156105c85780601f1061059d576101008083540402835291602001916105c8565b820191906000526020600020905b8154815290600101906020018083116105ab57829003601f168201915b505050505081526020016004820180546105e19061318d565b80601f016020809104026020016040519081016040528092919081815260200182805461060d9061318d565b801561065a5780601f1061062f5761010080835404028352916020019161065a565b820191906000526020600020905b81548152906001019060200180831161063d57829003601f168201915b505050505081526020016005820160009054906101000a900460ff1660ff1660ff1681526020016005820160019054906101000a900460ff1660ff1660ff16815260200160068201805480602002602001604051908101604052809291908181526020016000905b828210156107f757838290600052602060002090600202016040518060600160405290816000820180546106f59061318d565b80601f01602080910402602001604051908101604052809291908181526020018280546107219061318d565b801561076e5780601f106107435761010080835404028352916020019161076e565b820191906000526020600020905b81548152906001019060200180831161075157829003601f168201915b505050505081526020016001820160009054906101000a900473ffffffffffffffffffffffffffffffffffffffff1673ffffffffffffffffffffffffffffffffffffffff1673ffffffffffffffffffffffffffffffffffffffff1681526020016001820160149054906101000a900460ff161515151581525050815260200190600101906106c2565b505050508152505082858061080b906131be565b96508151811061081e5761081d613206565b5b6020026020010181905250808061083490613235565b9150506102e4565b508094505050505092915050565b600080600160008973ffffffffffffffffffffffffffffffffffffffff1673ffffffffffffffffffffffffffffffffffffffff16815260200190815260200160002060008863ffffffff1663ffffffff16815260200190815260200160002090508773ffffffffffffffffffffffffffffffffffffffff168160000160009054906101000a900473ffffffffffffffffffffffffffffffffffffffff1673ffffffffffffffffffffffffffffffffffffffff161461093d576040517f08c379a0000000000000000000000000000000000000000000000000000000008152600401610934906132be565b60405180910390fd5b60006003811115610951576109506123e6565b5b8160000160149054906101000a900460ff166003811115610975576109746123e6565b5b146109b5576040517f08c379a00000000000000000000000000000000000000000000000000000000081526004016109ac9061332a565b60405180910390fd5b6000806000905060005b8360060180549050811015610bd85788886040516020016109e192919061337a565b60405160208183030381529060405280519060200120846006018281548110610a0d57610a0c613206565b5b9060005260206000209060020201600001604051602001610a2e919061342b565b6040516020818303038152906040528051906020012003610bc55760019150836006018181548110610a6357610a62613206565b5b906000526020600020906002020192503273ffffffffffffffffffffffffffffffffffffffff168360010160009054906101000a900473ffffffffffffffffffffffffffffffffffffffff1673ffffffffffffffffffffffffffffffffffffffff161480610b215750600073ffffffffffffffffffffffffffffffffffffffff168360010160009054906101000a900473ffffffffffffffffffffffffffffffffffffffff1673ffffffffffffffffffffffffffffffffffffffff16145b610b60576040517f08c379a0000000000000000000000000000000000000000000000000000000008152600401610b579061348e565b60405180910390fd5b328360010160006101000a81548173ffffffffffffffffffffffffffffffffffffffff021916908373ffffffffffffffffffffffffffffffffffffffff16021790555060018360010160146101000a81548160ff021916908315150217905550610bd8565b8080610bd0906131be565b9150506109bf565b5080610c19576040517f08c379a0000000000000000000000000000000000000000000000000000000008152600401610c10906134fa565b60405180910390fd5b60008060003273ffffffffffffffffffffffffffffffffffffffff1673ffffffffffffffffffffffffffffffffffffffff16815260200190815260200160002090506040518061010001604052808560000160009054906101000a900473ffffffffffffffffffffffffffffffffffffffff1673ffffffffffffffffffffffffffffffffffffffff1681526020018560000160159054906101000a900463ffffffff1663ffffffff1681526020018260000160049054906101000a900463ffffffff1663ffffffff1681526020018a8a8080601f016020809104026020016040519081016040528093929190818152602001838380828437600081840152601f19601f82011690508083019250505050505050815260200188888080601f016020809104026020016040519081016040528093929190818152602001838380828437600081840152601f19601f8201169050808301925050505050505081526020013273ffffffffffffffffffffffffffffffffffffffff16815260200142815260200143815250600260003273ffffffffffffffffffffffffffffffffffffffff1673ffffffffffffffffffffffffffffffffffffffff16815260200190815260200160002060008360000160049054906101000a900463ffffffff1663ffffffff1663ffffffff16815260200190815260200160002060008201518160000160006101000a81548173ffffffffffffffffffffffffffffffffffffffff021916908373ffffffffffffffffffffffffffffffffffffffff16021790555060208201518160000160146101000a81548163ffffffff021916908363ffffffff16021790555060408201518160000160186101000a81548163ffffffff021916908363ffffffff1602179055506060820151816001019081610ebb91906136b1565b506080820151816002019081610ed191906136b1565b5060a08201518160030160006101000a81548173ffffffffffffffffffffffffffffffffffffffff021916908373ffffffffffffffffffffffffffffffffffffffff16021790555060c0820151816004015560e0820151816005015590505083600501600081819054906101000a900460ff1680929190610f5190613783565b91906101000a81548160ff021916908360ff160217905550508360050160019054906101000a900460ff1660ff168460050160009054906101000a900460ff1660ff1603610fc75760018460000160146101000a81548160ff02191690836003811115610fc157610fc06123e6565b5b02179055505b80600001600481819054906101000a900463ffffffff1680929190610feb90613235565b91906101000a81548163ffffffff021916908363ffffffff1602179055509450505050509695505050505050565b61102161221a565b60008060008573ffffffffffffffffffffffffffffffffffffffff1673ffffffffffffffffffffffffffffffffffffffff1681526020019081526020016000206040518060400160405290816000820160009054906101000a900463ffffffff1663ffffffff1663ffffffff1681526020016000820160049054906101000a900463ffffffff1663ffffffff1663ffffffff16815250509050806020015163ffffffff168363ffffffff16111561110d576040517f08c379a0000000000000000000000000000000000000000000000000000000008152600401611104906137f8565b60405180910390fd5b600260008573ffffffffffffffffffffffffffffffffffffffff1673ffffffffffffffffffffffffffffffffffffffff16815260200190815260200160002060008463ffffffff1663ffffffff168152602001908152602001600020604051806101000160405290816000820160009054906101000a900473ffffffffffffffffffffffffffffffffffffffff1673ffffffffffffffffffffffffffffffffffffffff1673ffffffffffffffffffffffffffffffffffffffff1681526020016000820160149054906101000a900463ffffffff1663ffffffff1663ffffffff1681526020016000820160189054906101000a900463ffffffff1663ffffffff1663ffffffff1681526020016001820180546112279061318d565b80601f01602080910402602001604051908101604052809291908181526020018280546112539061318d565b80156112a05780601f10611275576101008083540402835291602001916112a0565b820191906000526020600020905b81548152906001019060200180831161128357829003601f168201915b505050505081526020016002820180546112b99061318d565b80601f01602080910402602001604051908101604052809291908181526020018280546112e59061318d565b80156113325780601f1061130757610100808354040283529160200191611332565b820191906000526020600020905b81548152906001019060200180831161131557829003601f168201915b505050505081526020016003820160009054906101000a900473ffffffffffffffffffffffffffffffffffffffff1673ffffffffffffffffffffffffffffffffffffffff1673ffffffffffffffffffffffffffffffffffffffff1681526020016004820154815260200160058201548152505091505092915050565b6113b6612193565b60008060008573ffffffffffffffffffffffffffffffffffffffff1673ffffffffffffffffffffffffffffffffffffffff1681526020019081526020016000206040518060400160405290816000820160009054906101000a900463ffffffff1663ffffffff1663ffffffff1681526020016000820160049054906101000a900463ffffffff1663ffffffff1663ffffffff16815250509050806000015163ffffffff168363ffffffff1611156114a2576040517f08c379a0000000000000000000000000000000000000000000000000000000008152600401611499906137f8565b60405180910390fd5b600160008573ffffffffffffffffffffffffffffffffffffffff1673ffffffffffffffffffffffffffffffffffffffff16815260200190815260200160002060008463ffffffff1663ffffffff168152602001908152602001600020604051806101400160405290816000820160009054906101000a900473ffffffffffffffffffffffffffffffffffffffff1673ffffffffffffffffffffffffffffffffffffffff1673ffffffffffffffffffffffffffffffffffffffff1681526020016000820160149054906101000a900460ff166003811115611585576115846123e6565b5b6003811115611597576115966123e6565b5b81526020016000820160159054906101000a900463ffffffff1663ffffffff1663ffffffff1681526020016001820180546115d19061318d565b80601f01602080910402602001604051908101604052809291908181526020018280546115fd9061318d565b801561164a5780601f1061161f5761010080835404028352916020019161164a565b820191906000526020600020905b81548152906001019060200180831161162d57829003601f168201915b505050505081526020016002820180546116639061318d565b80601f016020809104026020016040519081016040528092919081815260200182805461168f9061318d565b80156116dc5780601f106116b1576101008083540402835291602001916116dc565b820191906000526020600020905b8154815290600101906020018083116116bf57829003601f168201915b505050505081526020016003820180546116f59061318d565b80601f01602080910402602001604051908101604052809291908181526020018280546117219061318d565b801561176e5780601f106117435761010080835404028352916020019161176e565b820191906000526020600020905b81548152906001019060200180831161175157829003601f168201915b505050505081526020016004820180546117879061318d565b80601f01602080910402602001604051908101604052809291908181526020018280546117b39061318d565b80156118005780601f106117d557610100808354040283529160200191611800565b820191906000526020600020905b8154815290600101906020018083116117e357829003601f168201915b505050505081526020016005820160009054906101000a900460ff1660ff1660ff1681526020016005820160019054906101000a900460ff1660ff1660ff16815260200160068201805480602002602001604051908101604052809291908181526020016000905b8282101561199d578382906000526020600020906002020160405180606001604052908160008201805461189b9061318d565b80601f01602080910402602001604051908101604052809291908181526020018280546118c79061318d565b80156119145780601f106118e957610100808354040283529160200191611914565b820191906000526020600020905b8154815290600101906020018083116118f757829003601f168201915b505050505081526020016001820160009054906101000a900473ffffffffffffffffffffffffffffffffffffffff1673ffffffffffffffffffffffffffffffffffffffff1673ffffffffffffffffffffffffffffffffffffffff1681526020016001820160149054906101000a900460ff16151515158152505081526020019060010190611868565b505050508152505091505092915050565b606060008060008573ffffffffffffffffffffffffffffffffffffffff1673ffffffffffffffffffffffffffffffffffffffff1681526020019081526020016000206040518060400160405290816000820160009054906101000a900463ffffffff1663ffffffff1663ffffffff1681526020016000820160049054906101000a900463ffffffff1663ffffffff1663ffffffff16815250509050600080848360200151611a5c9190613126565b63ffffffff1690506000600a8211611a745781611a77565b600a5b67ffffffffffffffff811115611a9057611a8f612d18565b5b604051908082528060200260200182016040528015611ac957816020015b611ab661221a565b815260200190600190039081611aae5790505b50905060008690505b846020015163ffffffff168163ffffffff161015611dbf57600260008973ffffffffffffffffffffffffffffffffffffffff1673ffffffffffffffffffffffffffffffffffffffff16815260200190815260200160002060008263ffffffff1663ffffffff168152602001908152602001600020604051806101000160405290816000820160009054906101000a900473ffffffffffffffffffffffffffffffffffffffff1673ffffffffffffffffffffffffffffffffffffffff1673ffffffffffffffffffffffffffffffffffffffff1681526020016000820160149054906101000a900463ffffffff1663ffffffff1663ffffffff1681526020016000820160189054906101000a900463ffffffff1663ffffffff1663ffffffff168152602001600182018054611c049061318d565b80601f0160208091040260200160405190810160405280929190818152602001828054611c309061318d565b8015611c7d5780601f10611c5257610100808354040283529160200191611c7d565b820191906000526020600020905b815481529060010190602001808311611c6057829003601f168201915b50505050508152602001600282018054611c969061318d565b80601f0160208091040260200160405190810160405280929190818152602001828054611cc29061318d565b8015611d0f5780601f10611ce457610100808354040283529160200191611d0f565b820191906000526020600020905b815481529060010190602001808311611cf257829003601f168201915b505050505081526020016003820160009054906101000a900473ffffffffffffffffffffffffffffffffffffffff1673ffffffffffffffffffffffffffffffffffffffff1673ffffffffffffffffffffffffffffffffffffffff16815260200160048201548152602001600582015481525050828580611d8e906131be565b965081518110611da157611da0613206565b5b60200260200101819052508080611db790613235565b915050611ad2565b508094505050505092915050565b611dd5612297565b6000803273ffffffffffffffffffffffffffffffffffffffff1673ffffffffffffffffffffffffffffffffffffffff1681526020019081526020016000206040518060400160405290816000820160009054906101000a900463ffffffff1663ffffffff1663ffffffff1681526020016000820160049054906101000a900463ffffffff1663ffffffff1663ffffffff1681525050905090565b6000806000803273ffffffffffffffffffffffffffffffffffffffff1673ffffffffffffffffffffffffffffffffffffffff16815260200190815260200160002090506000600160003273ffffffffffffffffffffffffffffffffffffffff1673ffffffffffffffffffffffffffffffffffffffff16815260200190815260200160002060008360000160009054906101000a900463ffffffff1663ffffffff1663ffffffff1681526020019081526020016000209050328160000160006101000a81548173ffffffffffffffffffffffffffffffffffffffff021916908373ffffffffffffffffffffffffffffffffffffffff16021790555060008160000160146101000a81548160ff02191690836003811115611f9157611f906123e6565b5b02179055508160000160009054906101000a900463ffffffff168160000160156101000a81548163ffffffff021916908363ffffffff1602179055508b8b826001019182611fe0929190613823565b508989826002019182611ff4929190613823565b508787826003019182612008929190613823565b50858582600401918261201c929190613823565b5060008160050160006101000a81548160ff021916908360ff16021790555083518160050160016101000a81548160ff021916908360ff16021790555060005b845181101561213f578160060185828151811061207c5761207b613206565b5b6020026020010151908060018154018082558091505060019003906000526020600020906002020160009091909190915060008201518160000190816120c291906136b1565b5060208201518160010160006101000a81548173ffffffffffffffffffffffffffffffffffffffff021916908373ffffffffffffffffffffffffffffffffffffffff16021790555060408201518160010160146101000a81548160ff02191690831515021790555050508080612137906131be565b91505061205c565b5081600001600081819054906101000a900463ffffffff168092919061216490613235565b91906101000a81548163ffffffff021916908363ffffffff160217905550925050509998505050505050505050565b604051806101400160405280600073ffffffffffffffffffffffffffffffffffffffff168152602001600060038111156121d0576121cf6123e6565b5b8152602001600063ffffffff16815260200160608152602001606081526020016060815260200160608152602001600060ff168152602001600060ff168152602001606081525090565b604051806101000160405280600073ffffffffffffffffffffffffffffffffffffffff168152602001600063ffffffff168152602001600063ffffffff1681526020016060815260200160608152602001600073ffffffffffffffffffffffffffffffffffffffff16815260200160008152602001600081525090565b6040518060400160405280600063ffffffff168152602001600063ffffffff1681525090565b6000604051905090565b600080fd5b600080fd5b600073ffffffffffffffffffffffffffffffffffffffff82169050919050565b60006122fc826122d1565b9050919050565b61230c816122f1565b811461231757600080fd5b50565b60008135905061232981612303565b92915050565b600063ffffffff82169050919050565b6123488161232f565b811461235357600080fd5b50565b6000813590506123658161233f565b92915050565b60008060408385031215612382576123816122c7565b5b60006123908582860161231a565b92505060206123a185828601612356565b9150509250929050565b600081519050919050565b600082825260208201905092915050565b6000819050602082019050919050565b6123e0816122f1565b82525050565b7f4e487b7100000000000000000000000000000000000000000000000000000000600052602160045260246000fd5b60048110612426576124256123e6565b5b50565b600081905061243782612415565b919050565b600061244782612429565b9050919050565b6124578161243c565b82525050565b6124668161232f565b82525050565b600081519050919050565b600082825260208201905092915050565b60005b838110156124a657808201518184015260208101905061248b565b60008484015250505050565b6000601f19601f8301169050919050565b60006124ce8261246c565b6124d88185612477565b93506124e8818560208601612488565b6124f1816124b2565b840191505092915050565b600060ff82169050919050565b612512816124fc565b82525050565b600081519050919050565b600082825260208201905092915050565b6000819050602082019050919050565b60008115159050919050565b61255981612544565b82525050565b6000606083016000830151848203600086015261257c82826124c3565b915050602083015161259160208601826123d7565b5060408301516125a46040860182612550565b508091505092915050565b60006125bb838361255f565b905092915050565b6000602082019050919050565b60006125db82612518565b6125e58185612523565b9350836020820285016125f785612534565b8060005b85811015612633578484038952815161261485826125af565b945061261f836125c3565b925060208a019950506001810190506125fb565b50829750879550505050505092915050565b60006101408301600083015161265e60008601826123d7565b506020830151612671602086018261244e565b506040830151612684604086018261245d565b506060830151848203606086015261269c82826124c3565b915050608083015184820360808601526126b682826124c3565b91505060a083015184820360a08601526126d082826124c3565b91505060c083015184820360c08601526126ea82826124c3565b91505060e08301516126ff60e0860182612509565b50610100830151612714610100860182612509565b5061012083015184820361012086015261272e82826125d0565b9150508091505092915050565b60006127478383612645565b905092915050565b6000602082019050919050565b6000612767826123ab565b61277181856123b6565b935083602082028501612783856123c7565b8060005b858110156127bf57848403895281516127a0858261273b565b94506127ab8361274f565b925060208a01995050600181019050612787565b50829750879550505050505092915050565b600060208201905081810360008301526127eb818461275c565b905092915050565b600080fd5b600080fd5b600080fd5b60008083601f840112612818576128176127f3565b5b8235905067ffffffffffffffff811115612835576128346127f8565b5b602083019150836001820283011115612851576128506127fd565b5b9250929050565b60008060008060008060808789031215612875576128746122c7565b5b600061288389828a0161231a565b965050602061289489828a01612356565b955050604087013567ffffffffffffffff8111156128b5576128b46122cc565b5b6128c189828a01612802565b9450945050606087013567ffffffffffffffff8111156128e4576128e36122cc565b5b6128f089828a01612802565b92509250509295509295509295565b6129088161232f565b82525050565b600060208201905061292360008301846128ff565b92915050565b6000819050919050565b61293c81612929565b82525050565b60006101008301600083015161295b60008601826123d7565b50602083015161296e602086018261245d565b506040830151612981604086018261245d565b506060830151848203606086015261299982826124c3565b915050608083015184820360808601526129b382826124c3565b91505060a08301516129c860a08601826123d7565b5060c08301516129db60c0860182612933565b5060e08301516129ee60e0860182612933565b508091505092915050565b60006020820190508181036000830152612a138184612942565b905092915050565b600061014083016000830151612a3460008601826123d7565b506020830151612a47602086018261244e565b506040830151612a5a604086018261245d565b5060608301518482036060860152612a7282826124c3565b91505060808301518482036080860152612a8c82826124c3565b91505060a083015184820360a0860152612aa682826124c3565b91505060c083015184820360c0860152612ac082826124c3565b91505060e0830151612ad560e0860182612509565b50610100830151612aea610100860182612509565b50610120830151848203610120860152612b0482826125d0565b9150508091505092915050565b60006020820190508181036000830152612b2b8184612a1b565b905092915050565b600081519050919050565b600082825260208201905092915050565b6000819050602082019050919050565b600061010083016000830151612b7860008601826123d7565b506020830151612b8b602086018261245d565b506040830151612b9e604086018261245d565b5060608301518482036060860152612bb682826124c3565b91505060808301518482036080860152612bd082826124c3565b91505060a0830151612be560a08601826123d7565b5060c0830151612bf860c0860182612933565b5060e0830151612c0b60e0860182612933565b508091505092915050565b6000612c228383612b5f565b905092915050565b6000602082019050919050565b6000612c4282612b33565b612c4c8185612b3e565b935083602082028501612c5e85612b4f565b8060005b85811015612c9a5784840389528151612c7b8582612c16565b9450612c8683612c2a565b925060208a01995050600181019050612c62565b50829750879550505050505092915050565b60006020820190508181036000830152612cc68184612c37565b905092915050565b604082016000820151612ce4600085018261245d565b506020820151612cf7602085018261245d565b50505050565b6000604082019050612d126000830184612cce565b92915050565b7f4e487b7100000000000000000000000000000000000000000000000000000000600052604160045260246000fd5b612d50826124b2565b810181811067ffffffffffffffff82111715612d6f57612d6e612d18565b5b80604052505050565b6000612d826122bd565b9050612d8e8282612d47565b919050565b600067ffffffffffffffff821115612dae57612dad612d18565b5b602082029050602081019050919050565b600080fd5b600080fd5b600080fd5b600067ffffffffffffffff821115612de957612de8612d18565b5b612df2826124b2565b9050602081019050919050565b82818337600083830152505050565b6000612e21612e1c84612dce565b612d78565b905082815260208101848484011115612e3d57612e3c612dc9565b5b612e48848285612dff565b509392505050565b600082601f830112612e6557612e646127f3565b5b8135612e75848260208601612e0e565b91505092915050565b612e8781612544565b8114612e9257600080fd5b50565b600081359050612ea481612e7e565b92915050565b600060608284031215612ec057612ebf612dbf565b5b612eca6060612d78565b9050600082013567ffffffffffffffff811115612eea57612ee9612dc4565b5b612ef684828501612e50565b6000830152506020612f0a8482850161231a565b6020830152506040612f1e84828501612e95565b60408301525092915050565b6000612f3d612f3884612d93565b612d78565b90508083825260208201905060208402830185811115612f6057612f5f6127fd565b5b835b81811015612fa757803567ffffffffffffffff811115612f8557612f846127f3565b5b808601612f928982612eaa565b85526020850194505050602081019050612f62565b5050509392505050565b600082601f830112612fc657612fc56127f3565b5b8135612fd6848260208601612f2a565b91505092915050565b600080600080600080600080600060a08a8c031215613001576130006122c7565b5b60008a013567ffffffffffffffff81111561301f5761301e6122cc565b5b61302b8c828d01612802565b995099505060208a013567ffffffffffffffff81111561304e5761304d6122cc565b5b61305a8c828d01612802565b975097505060408a013567ffffffffffffffff81111561307d5761307c6122cc565b5b6130898c828d01612802565b955095505060608a013567ffffffffffffffff8111156130ac576130ab6122cc565b5b6130b88c828d01612802565b935093505060808a013567ffffffffffffffff8111156130db576130da6122cc565b5b6130e78c828d01612fb1565b9150509295985092959850929598565b7f4e487b7100000000000000000000000000000000000000000000000000000000600052601160045260246000fd5b60006131318261232f565b915061313c8361232f565b9250828203905063ffffffff811115613158576131576130f7565b5b92915050565b7f4e487b7100000000000000000000000000000000000000000000000000000000600052602260045260246000fd5b600060028204905060018216806131a557607f821691505b6020821081036131b8576131b761315e565b5b50919050565b60006131c982612929565b91507fffffffffffffffffffffffffffffffffffffffffffffffffffffffffffffffff82036131fb576131fa6130f7565b5b600182019050919050565b7f4e487b7100000000000000000000000000000000000000000000000000000000600052603260045260246000fd5b60006132408261232f565b915063ffffffff8203613256576132556130f7565b5b600182019050919050565b600082825260208201905092915050565b7f496e76616c69642061677265656d656e74000000000000000000000000000000600082015250565b60006132a8601183613261565b91506132b382613272565b602082019050919050565b600060208201905081810360008301526132d78161329b565b9050919050565b7f41677265656d656e74206973206e6f742050454e44494e472000000000000000600082015250565b6000613314601983613261565b915061331f826132de565b602082019050919050565b6000602082019050818103600083015261334381613307565b9050919050565b600081905092915050565b6000613361838561334a565b935061336e838584612dff565b82840190509392505050565b6000613387828486613355565b91508190509392505050565b60008190508160005260206000209050919050565b600081546133b58161318d565b6133bf818661334a565b945060018216600081146133da57600181146133ef57613422565b60ff1983168652811515820286019350613422565b6133f885613393565b60005b8381101561341a578154818901526001820191506020810190506133fb565b838801955050505b50505092915050565b600061343782846133a8565b915081905092915050565b7f4d69736d617463686564207369676e6572000000000000000000000000000000600082015250565b6000613478601183613261565b915061348382613442565b602082019050919050565b600060208201905081810360008301526134a78161346b565b9050919050565b7f4d697373696e67207369676e617475726520636f6e73747261696e7400000000600082015250565b60006134e4601c83613261565b91506134ef826134ae565b602082019050919050565b60006020820190508181036000830152613513816134d7565b9050919050565b60006020601f8301049050919050565b600082821b905092915050565b6000600883026135677fffffffffffffffffffffffffffffffffffffffffffffffffffffffffffffffff8261352a565b613571868361352a565b95508019841693508086168417925050509392505050565b6000819050919050565b60006135ae6135a96135a484612929565b613589565b612929565b9050919050565b6000819050919050565b6135c883613593565b6135dc6135d4826135b5565b848454613537565b825550505050565b600090565b6135f16135e4565b6135fc8184846135bf565b505050565b5b81811015613620576136156000826135e9565b600181019050613602565b5050565b601f8211156136655761363681613393565b61363f8461351a565b8101602085101561364e578190505b61366261365a8561351a565b830182613601565b50505b505050565b600082821c905092915050565b60006136886000198460080261366a565b1980831691505092915050565b60006136a18383613677565b9150826002028217905092915050565b6136ba8261246c565b67ffffffffffffffff8111156136d3576136d2612d18565b5b6136dd825461318d565b6136e8828285613624565b600060209050601f83116001811461371b5760008415613709578287015190505b6137138582613695565b86555061377b565b601f19841661372986613393565b60005b828110156137515784890151825560018201915060208501945060208101905061372c565b8683101561376e578489015161376a601f891682613677565b8355505b6001600288020188555050505b505050505050565b600061378e826124fc565b915060ff82036137a1576137a06130f7565b5b600182019050919050565b7f696e646578206f7574206f662072616e67650000000000000000000000000000600082015250565b60006137e2601283613261565b91506137ed826137ac565b602082019050919050565b60006020820190508181036000830152613811816137d5565b9050919050565b600082905092915050565b61382d8383613818565b67ffffffffffffffff81111561384657613845612d18565b5b613850825461318d565b61385b828285613624565b6000601f83116001811461388a5760008415613878578287013590505b6138828582613695565b8655506138ea565b601f19841661389886613393565b60005b828110156138c05784890135825560018201915060208501945060208101905061389b565b868310156138dd57848901356138d9601f891682613677565b8355505b6001600288020188555050505b5050505050505056fea2646970667358221220467352cf5a3bbcb82197d715527a8d43ca79d5be7fa63eb350cef07e6258a52964736f6c63430008110033",
  "devdoc": {
    "kind": "dev",
    "methods": {},
    "version": 1
  },
  "userdoc": {
    "kind": "user",
    "methods": {},
    "version": 1
  },
  "storageLayout": {
    "storage": [
      {
        "astId": 64,
        "contract": "contracts/ESignature.sol:ESignature",
        "label": "profiles",
        "offset": 0,
        "slot": "0",
        "type": "t_mapping(t_address,t_struct(Profile)11_storage)"
      },
      {
        "astId": 71,
        "contract": "contracts/ESignature.sol:ESignature",
        "label": "agreements",
        "offset": 0,
        "slot": "1",
        "type": "t_mapping(t_address,t_mapping(t_uint32,t_struct(Agreement)42_storage))"
      },
      {
        "astId": 78,
        "contract": "contracts/ESignature.sol:ESignature",
        "label": "packets",
        "offset": 0,
        "slot": "2",
        "type": "t_mapping(t_address,t_mapping(t_uint32,t_struct(ESignaturePacket)59_storage))"
      }
    ],
    "types": {
      "t_address": {
        "encoding": "inplace",
        "label": "address",
        "numberOfBytes": "20"
      },
      "t_array(t_struct(SignatureConstraint)18_storage)dyn_storage": {
        "base": "t_struct(SignatureConstraint)18_storage",
        "encoding": "dynamic_array",
        "label": "struct SignatureConstraint[]",
        "numberOfBytes": "32"
      },
      "t_bool": {
        "encoding": "inplace",
        "label": "bool",
        "numberOfBytes": "1"
      },
      "t_enum(AgreementStatus)6": {
        "encoding": "inplace",
        "label": "enum AgreementStatus",
        "numberOfBytes": "1"
      },
      "t_mapping(t_address,t_mapping(t_uint32,t_struct(Agreement)42_storage))": {
        "encoding": "mapping",
        "key": "t_address",
        "label": "mapping(address => mapping(uint32 => struct Agreement))",
        "numberOfBytes": "32",
        "value": "t_mapping(t_uint32,t_struct(Agreement)42_storage)"
      },
      "t_mapping(t_address,t_mapping(t_uint32,t_struct(ESignaturePacket)59_storage))": {
        "encoding": "mapping",
        "key": "t_address",
        "label": "mapping(address => mapping(uint32 => struct ESignaturePacket))",
        "numberOfBytes": "32",
        "value": "t_mapping(t_uint32,t_struct(ESignaturePacket)59_storage)"
      },
      "t_mapping(t_address,t_struct(Profile)11_storage)": {
        "encoding": "mapping",
        "key": "t_address",
        "label": "mapping(address => struct Profile)",
        "numberOfBytes": "32",
        "value": "t_struct(Profile)11_storage"
      },
      "t_mapping(t_uint32,t_struct(Agreement)42_storage)": {
        "encoding": "mapping",
        "key": "t_uint32",
        "label": "mapping(uint32 => struct Agreement)",
        "numberOfBytes": "32",
        "value": "t_struct(Agreement)42_storage"
      },
      "t_mapping(t_uint32,t_struct(ESignaturePacket)59_storage)": {
        "encoding": "mapping",
        "key": "t_uint32",
        "label": "mapping(uint32 => struct ESignaturePacket)",
        "numberOfBytes": "32",
        "value": "t_struct(ESignaturePacket)59_storage"
      },
      "t_string_storage": {
        "encoding": "bytes",
        "label": "string",
        "numberOfBytes": "32"
      },
      "t_struct(Agreement)42_storage": {
        "encoding": "inplace",
        "label": "struct Agreement",
        "members": [
          {
            "astId": 20,
            "contract": "contracts/ESignature.sol:ESignature",
            "label": "owner",
            "offset": 0,
            "slot": "0",
            "type": "t_address"
          },
          {
            "astId": 23,
            "contract": "contracts/ESignature.sol:ESignature",
            "label": "status",
            "offset": 20,
            "slot": "0",
            "type": "t_enum(AgreementStatus)6"
          },
          {
            "astId": 25,
            "contract": "contracts/ESignature.sol:ESignature",
            "label": "index",
            "offset": 21,
            "slot": "0",
            "type": "t_uint32"
          },
          {
            "astId": 27,
            "contract": "contracts/ESignature.sol:ESignature",
            "label": "identifier",
            "offset": 0,
            "slot": "1",
            "type": "t_string_storage"
          },
          {
            "astId": 29,
            "contract": "contracts/ESignature.sol:ESignature",
            "label": "cid",
            "offset": 0,
            "slot": "2",
            "type": "t_string_storage"
          },
          {
            "astId": 31,
            "contract": "contracts/ESignature.sol:ESignature",
            "label": "encryptedCid",
            "offset": 0,
            "slot": "3",
            "type": "t_string_storage"
          },
          {
            "astId": 33,
            "contract": "contracts/ESignature.sol:ESignature",
            "label": "descriptionCid",
            "offset": 0,
            "slot": "4",
            "type": "t_string_storage"
          },
          {
            "astId": 35,
            "contract": "contracts/ESignature.sol:ESignature",
            "label": "signedPackets",
            "offset": 0,
            "slot": "5",
            "type": "t_uint8"
          },
          {
            "astId": 37,
            "contract": "contracts/ESignature.sol:ESignature",
            "label": "totalPackets",
            "offset": 1,
            "slot": "5",
            "type": "t_uint8"
          },
          {
            "astId": 41,
            "contract": "contracts/ESignature.sol:ESignature",
            "label": "constraints",
            "offset": 0,
            "slot": "6",
            "type": "t_array(t_struct(SignatureConstraint)18_storage)dyn_storage"
          }
        ],
        "numberOfBytes": "224"
      },
      "t_struct(ESignaturePacket)59_storage": {
        "encoding": "inplace",
        "label": "struct ESignaturePacket",
        "members": [
          {
            "astId": 44,
            "contract": "contracts/ESignature.sol:ESignature",
            "label": "agreementOwner",
            "offset": 0,
            "slot": "0",
            "type": "t_address"
          },
          {
            "astId": 46,
            "contract": "contracts/ESignature.sol:ESignature",
            "label": "agreementIndex",
            "offset": 20,
            "slot": "0",
            "type": "t_uint32"
          },
          {
            "astId": 48,
            "contract": "contracts/ESignature.sol:ESignature",
            "label": "index",
            "offset": 24,
            "slot": "0",
            "type": "t_uint32"
          },
          {
            "astId": 50,
            "contract": "contracts/ESignature.sol:ESignature",
            "label": "identifier",
            "offset": 0,
            "slot": "1",
            "type": "t_string_storage"
          },
          {
            "astId": 52,
            "contract": "contracts/ESignature.sol:ESignature",
            "label": "encryptedCid",
            "offset": 0,
            "slot": "2",
            "type": "t_string_storage"
          },
          {
            "astId": 54,
            "contract": "contracts/ESignature.sol:ESignature",
            "label": "signer",
            "offset": 0,
            "slot": "3",
            "type": "t_address"
          },
          {
            "astId": 56,
            "contract": "contracts/ESignature.sol:ESignature",
            "label": "timestamp",
            "offset": 0,
            "slot": "4",
            "type": "t_uint256"
          },
          {
            "astId": 58,
            "contract": "contracts/ESignature.sol:ESignature",
            "label": "blockNumber",
            "offset": 0,
            "slot": "5",
            "type": "t_uint256"
          }
        ],
        "numberOfBytes": "192"
      },
      "t_struct(Profile)11_storage": {
        "encoding": "inplace",
        "label": "struct Profile",
        "members": [
          {
            "astId": 8,
            "contract": "contracts/ESignature.sol:ESignature",
            "label": "totalAgreements",
            "offset": 0,
            "slot": "0",
            "type": "t_uint32"
          },
          {
            "astId": 10,
            "contract": "contracts/ESignature.sol:ESignature",
            "label": "totalSignatures",
            "offset": 4,
            "slot": "0",
            "type": "t_uint32"
          }
        ],
        "numberOfBytes": "32"
      },
      "t_struct(SignatureConstraint)18_storage": {
        "encoding": "inplace",
        "label": "struct SignatureConstraint",
        "members": [
          {
            "astId": 13,
            "contract": "contracts/ESignature.sol:ESignature",
            "label": "identifier",
            "offset": 0,
            "slot": "0",
            "type": "t_string_storage"
          },
          {
            "astId": 15,
            "contract": "contracts/ESignature.sol:ESignature",
            "label": "signer",
            "offset": 0,
            "slot": "1",
            "type": "t_address"
          },
          {
            "astId": 17,
            "contract": "contracts/ESignature.sol:ESignature",
            "label": "used",
            "offset": 20,
            "slot": "1",
            "type": "t_bool"
          }
        ],
        "numberOfBytes": "64"
      },
      "t_uint256": {
        "encoding": "inplace",
        "label": "uint256",
        "numberOfBytes": "32"
      },
      "t_uint32": {
        "encoding": "inplace",
        "label": "uint32",
        "numberOfBytes": "4"
      },
      "t_uint8": {
        "encoding": "inplace",
        "label": "uint8",
        "numberOfBytes": "1"
      }
    }
  }
}