{
  "address": "0x1E7EF1A8F6b6710c6541dBACf36C4b9173712B6A",
  "abi": [
    {
      "inputs": [
        {
          "internalType": "string",
          "name": "name",
          "type": "string"
        },
        {
          "internalType": "string",
          "name": "symbol",
          "type": "string"
        },
        {
          "internalType": "string",
          "name": "imageCID",
          "type": "string"
        }
      ],
      "name": "deploy",
      "outputs": [
        {
          "internalType": "address",
          "name": "",
          "type": "address"
        }
      ],
      "stateMutability": "nonpayable",
      "type": "function"
    }
  ],
  "transactionHash": "0x47e9ef9e20faf246a391ce14cf018745a23e200119403f7a2a0cd2f2b137f212",
  "args": [],
  "numDeployments": 1,
  "solcInputHash": "8e0703c0f616a32ec78ed0de00084bbf",
  "bytecode": "0x608060405234801561001057600080fd5b506139fc806100206000396000f3fe60806040523480156200001157600080fd5b50600436106200002e5760003560e01c80631e67c24a1462000033575b600080fd5b6200005160048036038101906200004b91906200023c565b62000069565b6040516200006091906200033a565b60405180910390f35b600080338585856040516200007e90620000b8565b6200008d9493929190620003e0565b604051809103906000f080158015620000aa573d6000803e3d6000fd5b509050809150509392505050565b613584806200044383390190565b6000604051905090565b600080fd5b600080fd5b600080fd5b600080fd5b6000601f19601f8301169050919050565b7f4e487b7100000000000000000000000000000000000000000000000000000000600052604160045260246000fd5b6200012f82620000e4565b810181811067ffffffffffffffff82111715620001515762000150620000f5565b5b80604052505050565b600062000166620000c6565b905062000174828262000124565b919050565b600067ffffffffffffffff821115620001975762000196620000f5565b5b620001a282620000e4565b9050602081019050919050565b82818337600083830152505050565b6000620001d5620001cf8462000179565b6200015a565b905082815260208101848484011115620001f457620001f3620000df565b5b62000201848285620001af565b509392505050565b600082601f830112620002215762000220620000da565b5b813562000233848260208601620001be565b91505092915050565b600080600060608486031215620002585762000257620000d0565b5b600084013567ffffffffffffffff811115620002795762000278620000d5565b5b620002878682870162000209565b935050602084013567ffffffffffffffff811115620002ab57620002aa620000d5565b5b620002b98682870162000209565b925050604084013567ffffffffffffffff811115620002dd57620002dc620000d5565b5b620002eb8682870162000209565b9150509250925092565b600073ffffffffffffffffffffffffffffffffffffffff82169050919050565b60006200032282620002f5565b9050919050565b620003348162000315565b82525050565b600060208201905062000351600083018462000329565b92915050565b600081519050919050565b600082825260208201905092915050565b60005b838110156200039357808201518184015260208101905062000376565b60008484015250505050565b6000620003ac8262000357565b620003b8818562000362565b9350620003ca81856020860162000373565b620003d581620000e4565b840191505092915050565b6000608082019050620003f7600083018762000329565b81810360208301526200040b81866200039f565b905081810360408301526200042181856200039f565b905081810360608301526200043781846200039f565b90509594505050505056fe60806040523480156200001157600080fd5b5060405162003584380380620035848339818101604052810190620000379190620002bc565b828281600090816200004a9190620005d6565b5080600190816200005c9190620005d6565b505050600160088190555083600760006101000a81548173ffffffffffffffffffffffffffffffffffffffff021916908373ffffffffffffffffffffffffffffffffffffffff1602179055508060099081620000b99190620005d6565b5050505050620006bd565b6000604051905090565b600080fd5b600080fd5b600073ffffffffffffffffffffffffffffffffffffffff82169050919050565b60006200010582620000d8565b9050919050565b6200011781620000f8565b81146200012357600080fd5b50565b60008151905062000137816200010c565b92915050565b600080fd5b600080fd5b6000601f19601f8301169050919050565b7f4e487b7100000000000000000000000000000000000000000000000000000000600052604160045260246000fd5b620001928262000147565b810181811067ffffffffffffffff82111715620001b457620001b362000158565b5b80604052505050565b6000620001c9620000c4565b9050620001d7828262000187565b919050565b600067ffffffffffffffff821115620001fa57620001f962000158565b5b620002058262000147565b9050602081019050919050565b60005b838110156200023257808201518184015260208101905062000215565b60008484015250505050565b6000620002556200024f84620001dc565b620001bd565b90508281526020810184848401111562000274576200027362000142565b5b6200028184828562000212565b509392505050565b600082601f830112620002a157620002a06200013d565b5b8151620002b38482602086016200023e565b91505092915050565b60008060008060808587031215620002d957620002d8620000ce565b5b6000620002e98782880162000126565b945050602085015167ffffffffffffffff8111156200030d576200030c620000d3565b5b6200031b8782880162000289565b935050604085015167ffffffffffffffff8111156200033f576200033e620000d3565b5b6200034d8782880162000289565b925050606085015167ffffffffffffffff811115620003715762000370620000d3565b5b6200037f8782880162000289565b91505092959194509250565b600081519050919050565b7f4e487b7100000000000000000000000000000000000000000000000000000000600052602260045260246000fd5b60006002820490506001821680620003de57607f821691505b602082108103620003f457620003f362000396565b5b50919050565b60008190508160005260206000209050919050565b60006020601f8301049050919050565b600082821b905092915050565b6000600883026200045e7fffffffffffffffffffffffffffffffffffffffffffffffffffffffffffffffff826200041f565b6200046a86836200041f565b95508019841693508086168417925050509392505050565b6000819050919050565b6000819050919050565b6000620004b7620004b1620004ab8462000482565b6200048c565b62000482565b9050919050565b6000819050919050565b620004d38362000496565b620004eb620004e282620004be565b8484546200042c565b825550505050565b600090565b62000502620004f3565b6200050f818484620004c8565b505050565b5b8181101562000537576200052b600082620004f8565b60018101905062000515565b5050565b601f82111562000586576200055081620003fa565b6200055b846200040f565b810160208510156200056b578190505b620005836200057a856200040f565b83018262000514565b50505b505050565b600082821c905092915050565b6000620005ab600019846008026200058b565b1980831691505092915050565b6000620005c6838362000598565b9150826002028217905092915050565b620005e1826200038b565b67ffffffffffffffff811115620005fd57620005fc62000158565b5b620006098254620003c5565b620006168282856200053b565b600060209050601f8311600181146200064e576000841562000639578287015190505b620006458582620005b8565b865550620006b5565b601f1984166200065e86620003fa565b60005b82811015620006885784890151825560018201915060208501945060208101905062000661565b86831015620006a85784890151620006a4601f89168262000598565b8355505b6001600288020188555050505b505050505050565b612eb780620006cd6000396000f3fe608060405234801561001057600080fd5b50600436106101005760003560e01c806342842e0e11610097578063a22cb46511610066578063a22cb465146102d3578063b88d4fde146102ef578063c87b56dd1461030b578063e985e9c51461033b57610100565b806342842e0e146102395780636352211e1461025557806370a082311461028557806395d89b41146102b557610100565b80630883a42e116100d35780630883a42e146101b3578063095ea7b3146101e357806323b872dd146101ff5780632ada0d541461021b57610100565b806301a95bb31461010557806301ffc9a71461013557806306fdde0314610165578063081812fc14610183575b600080fd5b61011f600480360381019061011a9190611cc1565b61036b565b60405161012c9190611d3a565b60405180910390f35b61014f600480360381019061014a9190611dad565b6104dd565b60405161015c9190611df5565b60405180910390f35b61016d6105bf565b60405161017a9190611ea0565b60405180910390f35b61019d60048036038101906101989190611eee565b610651565b6040516101aa9190611f2a565b60405180910390f35b6101cd60048036038101906101c89190611cc1565b610697565b6040516101da9190611df5565b60405180910390f35b6101fd60048036038101906101f89190611f45565b61073b565b005b61021960048036038101906102149190611f85565b610852565b005b6102236108b2565b6040516102309190611ea0565b60405180910390f35b610253600480360381019061024e9190611f85565b610944565b005b61026f600480360381019061026a9190611eee565b610964565b60405161027c9190611f2a565b60405180910390f35b61029f600480360381019061029a9190611fd8565b6109ea565b6040516102ac9190611d3a565b60405180910390f35b6102bd610aa1565b6040516102ca9190611ea0565b60405180910390f35b6102ed60048036038101906102e89190612031565b610b33565b005b610309600480360381019061030491906121a1565b610b49565b005b61032560048036038101906103209190611eee565b610bab565b6040516103329190611ea0565b60405180910390f35b61035560048036038101906103509190612224565b610cbd565b6040516103629190611df5565b60405180910390f35b60003373ffffffffffffffffffffffffffffffffffffffff16600760009054906101000a900473ffffffffffffffffffffffffffffffffffffffff1673ffffffffffffffffffffffffffffffffffffffff16146103fd576040517f08c379a00000000000000000000000000000000000000000000000000000000081526004016103f4906122b0565b60405180910390fd5b61040984600854610d51565b61045960085484848080601f016020809104026020016040519081016040528093929190818152602001838380828437600081840152601f19601f82011690508083019250505050505050610f6e565b600854600a60008673ffffffffffffffffffffffffffffffffffffffff1673ffffffffffffffffffffffffffffffffffffffff16815260200190815260200160002084846040516104ab929190612300565b908152602001604051809103902081905550600860008154809291906104d090612348565b9190505590509392505050565b60007f80ac58cd000000000000000000000000000000000000000000000000000000007bffffffffffffffffffffffffffffffffffffffffffffffffffffffff1916827bffffffffffffffffffffffffffffffffffffffffffffffffffffffff191614806105a857507f5b5e139f000000000000000000000000000000000000000000000000000000007bffffffffffffffffffffffffffffffffffffffffffffffffffffffff1916827bffffffffffffffffffffffffffffffffffffffffffffffffffffffff1916145b806105b857506105b782610fdb565b5b9050919050565b6060600080546105ce906123bf565b80601f01602080910402602001604051908101604052809291908181526020018280546105fa906123bf565b80156106475780601f1061061c57610100808354040283529160200191610647565b820191906000526020600020905b81548152906001019060200180831161062a57829003601f168201915b5050505050905090565b600061065c82611045565b6004600083815260200190815260200160002060009054906101000a900473ffffffffffffffffffffffffffffffffffffffff169050919050565b600080600a60008673ffffffffffffffffffffffffffffffffffffffff1673ffffffffffffffffffffffffffffffffffffffff16815260200190815260200160002084846040516106e9929190612300565b90815260200160405180910390205490508473ffffffffffffffffffffffffffffffffffffffff1661071a82611090565b73ffffffffffffffffffffffffffffffffffffffff16149150509392505050565b600061074682610964565b90508073ffffffffffffffffffffffffffffffffffffffff168373ffffffffffffffffffffffffffffffffffffffff16036107b6576040517f08c379a00000000000000000000000000000000000000000000000000000000081526004016107ad90612462565b60405180910390fd5b8073ffffffffffffffffffffffffffffffffffffffff166107d56110cd565b73ffffffffffffffffffffffffffffffffffffffff1614806108045750610803816107fe6110cd565b610cbd565b5b610843576040517f08c379a000000000000000000000000000000000000000000000000000000000815260040161083a906124f4565b60405180910390fd5b61084d83836110d5565b505050565b61086361085d6110cd565b8261118e565b6108a2576040517f08c379a000000000000000000000000000000000000000000000000000000000815260040161089990612586565b60405180910390fd5b6108ad838383611223565b505050565b6060600980546108c1906123bf565b80601f01602080910402602001604051908101604052809291908181526020018280546108ed906123bf565b801561093a5780601f1061090f5761010080835404028352916020019161093a565b820191906000526020600020905b81548152906001019060200180831161091d57829003601f168201915b5050505050905090565b61095f83838360405180602001604052806000815250610b49565b505050565b60008061097083611090565b9050600073ffffffffffffffffffffffffffffffffffffffff168173ffffffffffffffffffffffffffffffffffffffff16036109e1576040517f08c379a00000000000000000000000000000000000000000000000000000000081526004016109d8906125f2565b60405180910390fd5b80915050919050565b60008073ffffffffffffffffffffffffffffffffffffffff168273ffffffffffffffffffffffffffffffffffffffff1603610a5a576040517f08c379a0000000000000000000000000000000000000000000000000000000008152600401610a5190612684565b60405180910390fd5b600360008373ffffffffffffffffffffffffffffffffffffffff1673ffffffffffffffffffffffffffffffffffffffff168152602001908152602001600020549050919050565b606060018054610ab0906123bf565b80601f0160208091040260200160405190810160405280929190818152602001828054610adc906123bf565b8015610b295780601f10610afe57610100808354040283529160200191610b29565b820191906000526020600020905b815481529060010190602001808311610b0c57829003601f168201915b5050505050905090565b610b45610b3e6110cd565b838361151c565b5050565b610b5a610b546110cd565b8361118e565b610b99576040517f08c379a0000000000000000000000000000000000000000000000000000000008152600401610b9090612586565b60405180910390fd5b610ba584848484611688565b50505050565b6060610bb682611045565b6000600660008481526020019081526020016000208054610bd6906123bf565b80601f0160208091040260200160405190810160405280929190818152602001828054610c02906123bf565b8015610c4f5780601f10610c2457610100808354040283529160200191610c4f565b820191906000526020600020905b815481529060010190602001808311610c3257829003601f168201915b505050505090506000610c606116e4565b90506000815103610c75578192505050610cb8565b600082511115610caa578082604051602001610c929291906126d5565b60405160208183030381529060405292505050610cb8565b610cb3846116fb565b925050505b919050565b6000600560008473ffffffffffffffffffffffffffffffffffffffff1673ffffffffffffffffffffffffffffffffffffffff16815260200190815260200160002060008373ffffffffffffffffffffffffffffffffffffffff1673ffffffffffffffffffffffffffffffffffffffff16815260200190815260200160002060009054906101000a900460ff16905092915050565b600073ffffffffffffffffffffffffffffffffffffffff168273ffffffffffffffffffffffffffffffffffffffff1603610dc0576040517f08c379a0000000000000000000000000000000000000000000000000000000008152600401610db790612745565b60405180910390fd5b610dc981611763565b15610e09576040517f08c379a0000000000000000000000000000000000000000000000000000000008152600401610e00906127b1565b60405180910390fd5b610e176000838360016117a4565b610e2081611763565b15610e60576040517f08c379a0000000000000000000000000000000000000000000000000000000008152600401610e57906127b1565b60405180910390fd5b6001600360008473ffffffffffffffffffffffffffffffffffffffff1673ffffffffffffffffffffffffffffffffffffffff16815260200190815260200160002060008282540192505081905550816002600083815260200190815260200160002060006101000a81548173ffffffffffffffffffffffffffffffffffffffff021916908373ffffffffffffffffffffffffffffffffffffffff160217905550808273ffffffffffffffffffffffffffffffffffffffff16600073ffffffffffffffffffffffffffffffffffffffff167fddf252ad1be2c89b69c2b068fc378daa952ba7f163c4a11628f55a4df523b3ef60405160405180910390a4610f6a600083836001611819565b5050565b610f7782611763565b610fb6576040517f08c379a0000000000000000000000000000000000000000000000000000000008152600401610fad90612843565b60405180910390fd5b80600660008481526020019081526020016000209081610fd69190612a0f565b505050565b60007f01ffc9a7000000000000000000000000000000000000000000000000000000007bffffffffffffffffffffffffffffffffffffffffffffffffffffffff1916827bffffffffffffffffffffffffffffffffffffffffffffffffffffffff1916149050919050565b61104e81611763565b61108d576040517f08c379a0000000000000000000000000000000000000000000000000000000008152600401611084906125f2565b60405180910390fd5b50565b60006002600083815260200190815260200160002060009054906101000a900473ffffffffffffffffffffffffffffffffffffffff169050919050565b600033905090565b816004600083815260200190815260200160002060006101000a81548173ffffffffffffffffffffffffffffffffffffffff021916908373ffffffffffffffffffffffffffffffffffffffff160217905550808273ffffffffffffffffffffffffffffffffffffffff1661114883610964565b73ffffffffffffffffffffffffffffffffffffffff167f8c5be1e5ebec7d5bd14f71427d1e84f3dd0314c0f7b2291e5b200ac8c7c3b92560405160405180910390a45050565b60008061119a83610964565b90508073ffffffffffffffffffffffffffffffffffffffff168473ffffffffffffffffffffffffffffffffffffffff1614806111dc57506111db8185610cbd565b5b8061121a57508373ffffffffffffffffffffffffffffffffffffffff1661120284610651565b73ffffffffffffffffffffffffffffffffffffffff16145b91505092915050565b8273ffffffffffffffffffffffffffffffffffffffff1661124382610964565b73ffffffffffffffffffffffffffffffffffffffff1614611299576040517f08c379a000000000000000000000000000000000000000000000000000000000815260040161129090612b53565b60405180910390fd5b600073ffffffffffffffffffffffffffffffffffffffff168273ffffffffffffffffffffffffffffffffffffffff1603611308576040517f08c379a00000000000000000000000000000000000000000000000000000000081526004016112ff90612be5565b60405180910390fd5b61131583838360016117a4565b8273ffffffffffffffffffffffffffffffffffffffff1661133582610964565b73ffffffffffffffffffffffffffffffffffffffff161461138b576040517f08c379a000000000000000000000000000000000000000000000000000000000815260040161138290612b53565b60405180910390fd5b6004600082815260200190815260200160002060006101000a81549073ffffffffffffffffffffffffffffffffffffffff02191690556001600360008573ffffffffffffffffffffffffffffffffffffffff1673ffffffffffffffffffffffffffffffffffffffff168152602001908152602001600020600082825403925050819055506001600360008473ffffffffffffffffffffffffffffffffffffffff1673ffffffffffffffffffffffffffffffffffffffff16815260200190815260200160002060008282540192505081905550816002600083815260200190815260200160002060006101000a81548173ffffffffffffffffffffffffffffffffffffffff021916908373ffffffffffffffffffffffffffffffffffffffff160217905550808273ffffffffffffffffffffffffffffffffffffffff168473ffffffffffffffffffffffffffffffffffffffff167fddf252ad1be2c89b69c2b068fc378daa952ba7f163c4a11628f55a4df523b3ef60405160405180910390a46115178383836001611819565b505050565b8173ffffffffffffffffffffffffffffffffffffffff168373ffffffffffffffffffffffffffffffffffffffff160361158a576040517f08c379a000000000000000000000000000000000000000000000000000000000815260040161158190612c51565b60405180910390fd5b80600560008573ffffffffffffffffffffffffffffffffffffffff1673ffffffffffffffffffffffffffffffffffffffff16815260200190815260200160002060008473ffffffffffffffffffffffffffffffffffffffff1673ffffffffffffffffffffffffffffffffffffffff16815260200190815260200160002060006101000a81548160ff0219169083151502179055508173ffffffffffffffffffffffffffffffffffffffff168373ffffffffffffffffffffffffffffffffffffffff167f17307eab39ab6107e8899845ad3d59bd9653f200f220920489ca2b5937696c318360405161167b9190611df5565b60405180910390a3505050565b611693848484611223565b61169f8484848461181f565b6116de576040517f08c379a00000000000000000000000000000000000000000000000000000000081526004016116d590612ce3565b60405180910390fd5b50505050565b606060405180602001604052806000815250905090565b606061170682611045565b60006117106116e4565b90506000815111611730576040518060200160405280600081525061175b565b8061173a846119a6565b60405160200161174b9291906126d5565b6040516020818303038152906040525b915050919050565b60008073ffffffffffffffffffffffffffffffffffffffff1661178583611090565b73ffffffffffffffffffffffffffffffffffffffff1614159050919050565b600073ffffffffffffffffffffffffffffffffffffffff168473ffffffffffffffffffffffffffffffffffffffff1614611813576040517f08c379a000000000000000000000000000000000000000000000000000000000815260040161180a90612d4f565b60405180910390fd5b50505050565b50505050565b60006118408473ffffffffffffffffffffffffffffffffffffffff16611a74565b15611999578373ffffffffffffffffffffffffffffffffffffffff1663150b7a026118696110cd565b8786866040518563ffffffff1660e01b815260040161188b9493929190612dc4565b6020604051808303816000875af19250505080156118c757506040513d601f19601f820116820180604052508101906118c49190612e25565b60015b611949573d80600081146118f7576040519150601f19603f3d011682016040523d82523d6000602084013e6118fc565b606091505b506000815103611941576040517f08c379a000000000000000000000000000000000000000000000000000000000815260040161193890612ce3565b60405180910390fd5b805181602001fd5b63150b7a0260e01b7bffffffffffffffffffffffffffffffffffffffffffffffffffffffff1916817bffffffffffffffffffffffffffffffffffffffffffffffffffffffff19161491505061199e565b600190505b949350505050565b6060600060016119b584611a97565b01905060008167ffffffffffffffff8111156119d4576119d3612076565b5b6040519080825280601f01601f191660200182016040528015611a065781602001600182028036833780820191505090505b509050600082602001820190505b600115611a69578080600190039150507f3031323334353637383961626364656600000000000000000000000000000000600a86061a8153600a8581611a5d57611a5c612e52565b5b04945060008503611a14575b819350505050919050565b6000808273ffffffffffffffffffffffffffffffffffffffff163b119050919050565b600080600090507a184f03e93ff9f4daa797ed6e38ed64bf6a1f0100000000000000008310611af5577a184f03e93ff9f4daa797ed6e38ed64bf6a1f0100000000000000008381611aeb57611aea612e52565b5b0492506040810190505b6d04ee2d6d415b85acef81000000008310611b32576d04ee2d6d415b85acef81000000008381611b2857611b27612e52565b5b0492506020810190505b662386f26fc100008310611b6157662386f26fc100008381611b5757611b56612e52565b5b0492506010810190505b6305f5e1008310611b8a576305f5e1008381611b8057611b7f612e52565b5b0492506008810190505b6127108310611baf576127108381611ba557611ba4612e52565b5b0492506004810190505b60648310611bd25760648381611bc857611bc7612e52565b5b0492506002810190505b600a8310611be1576001810190505b80915050919050565b6000604051905090565b600080fd5b600080fd5b600073ffffffffffffffffffffffffffffffffffffffff82169050919050565b6000611c2982611bfe565b9050919050565b611c3981611c1e565b8114611c4457600080fd5b50565b600081359050611c5681611c30565b92915050565b600080fd5b600080fd5b600080fd5b60008083601f840112611c8157611c80611c5c565b5b8235905067ffffffffffffffff811115611c9e57611c9d611c61565b5b602083019150836001820283011115611cba57611cb9611c66565b5b9250929050565b600080600060408486031215611cda57611cd9611bf4565b5b6000611ce886828701611c47565b935050602084013567ffffffffffffffff811115611d0957611d08611bf9565b5b611d1586828701611c6b565b92509250509250925092565b6000819050919050565b611d3481611d21565b82525050565b6000602082019050611d4f6000830184611d2b565b92915050565b60007fffffffff0000000000000000000000000000000000000000000000000000000082169050919050565b611d8a81611d55565b8114611d9557600080fd5b50565b600081359050611da781611d81565b92915050565b600060208284031215611dc357611dc2611bf4565b5b6000611dd184828501611d98565b91505092915050565b60008115159050919050565b611def81611dda565b82525050565b6000602082019050611e0a6000830184611de6565b92915050565b600081519050919050565b600082825260208201905092915050565b60005b83811015611e4a578082015181840152602081019050611e2f565b60008484015250505050565b6000601f19601f8301169050919050565b6000611e7282611e10565b611e7c8185611e1b565b9350611e8c818560208601611e2c565b611e9581611e56565b840191505092915050565b60006020820190508181036000830152611eba8184611e67565b905092915050565b611ecb81611d21565b8114611ed657600080fd5b50565b600081359050611ee881611ec2565b92915050565b600060208284031215611f0457611f03611bf4565b5b6000611f1284828501611ed9565b91505092915050565b611f2481611c1e565b82525050565b6000602082019050611f3f6000830184611f1b565b92915050565b60008060408385031215611f5c57611f5b611bf4565b5b6000611f6a85828601611c47565b9250506020611f7b85828601611ed9565b9150509250929050565b600080600060608486031215611f9e57611f9d611bf4565b5b6000611fac86828701611c47565b9350506020611fbd86828701611c47565b9250506040611fce86828701611ed9565b9150509250925092565b600060208284031215611fee57611fed611bf4565b5b6000611ffc84828501611c47565b91505092915050565b61200e81611dda565b811461201957600080fd5b50565b60008135905061202b81612005565b92915050565b6000806040838503121561204857612047611bf4565b5b600061205685828601611c47565b92505060206120678582860161201c565b9150509250929050565b600080fd5b7f4e487b7100000000000000000000000000000000000000000000000000000000600052604160045260246000fd5b6120ae82611e56565b810181811067ffffffffffffffff821117156120cd576120cc612076565b5b80604052505050565b60006120e0611bea565b90506120ec82826120a5565b919050565b600067ffffffffffffffff82111561210c5761210b612076565b5b61211582611e56565b9050602081019050919050565b82818337600083830152505050565b600061214461213f846120f1565b6120d6565b9050828152602081018484840111156121605761215f612071565b5b61216b848285612122565b509392505050565b600082601f83011261218857612187611c5c565b5b8135612198848260208601612131565b91505092915050565b600080600080608085870312156121bb576121ba611bf4565b5b60006121c987828801611c47565b94505060206121da87828801611c47565b93505060406121eb87828801611ed9565b925050606085013567ffffffffffffffff81111561220c5761220b611bf9565b5b61221887828801612173565b91505092959194509250565b6000806040838503121561223b5761223a611bf4565b5b600061224985828601611c47565b925050602061225a85828601611c47565b9150509250929050565b7f4f6e6c79206f776e65722063616e206d696e74204e4654730000000000000000600082015250565b600061229a601883611e1b565b91506122a582612264565b602082019050919050565b600060208201905081810360008301526122c98161228d565b9050919050565b600081905092915050565b60006122e783856122d0565b93506122f4838584612122565b82840190509392505050565b600061230d8284866122db565b91508190509392505050565b7f4e487b7100000000000000000000000000000000000000000000000000000000600052601160045260246000fd5b600061235382611d21565b91507fffffffffffffffffffffffffffffffffffffffffffffffffffffffffffffffff820361238557612384612319565b5b600182019050919050565b7f4e487b7100000000000000000000000000000000000000000000000000000000600052602260045260246000fd5b600060028204905060018216806123d757607f821691505b6020821081036123ea576123e9612390565b5b50919050565b7f4552433732313a20617070726f76616c20746f2063757272656e74206f776e6560008201527f7200000000000000000000000000000000000000000000000000000000000000602082015250565b600061244c602183611e1b565b9150612457826123f0565b604082019050919050565b6000602082019050818103600083015261247b8161243f565b9050919050565b7f4552433732313a20617070726f76652063616c6c6572206973206e6f7420746f60008201527f6b656e206f776e6572206f7220617070726f76656420666f7220616c6c000000602082015250565b60006124de603d83611e1b565b91506124e982612482565b604082019050919050565b6000602082019050818103600083015261250d816124d1565b9050919050565b7f4552433732313a2063616c6c6572206973206e6f7420746f6b656e206f776e6560008201527f72206f7220617070726f76656400000000000000000000000000000000000000602082015250565b6000612570602d83611e1b565b915061257b82612514565b604082019050919050565b6000602082019050818103600083015261259f81612563565b9050919050565b7f4552433732313a20696e76616c696420746f6b656e2049440000000000000000600082015250565b60006125dc601883611e1b565b91506125e7826125a6565b602082019050919050565b6000602082019050818103600083015261260b816125cf565b9050919050565b7f4552433732313a2061646472657373207a65726f206973206e6f74206120766160008201527f6c6964206f776e65720000000000000000000000000000000000000000000000602082015250565b600061266e602983611e1b565b915061267982612612565b604082019050919050565b6000602082019050818103600083015261269d81612661565b9050919050565b60006126af82611e10565b6126b981856122d0565b93506126c9818560208601611e2c565b80840191505092915050565b60006126e182856126a4565b91506126ed82846126a4565b91508190509392505050565b7f4552433732313a206d696e7420746f20746865207a65726f2061646472657373600082015250565b600061272f602083611e1b565b915061273a826126f9565b602082019050919050565b6000602082019050818103600083015261275e81612722565b9050919050565b7f4552433732313a20746f6b656e20616c7265616479206d696e74656400000000600082015250565b600061279b601c83611e1b565b91506127a682612765565b602082019050919050565b600060208201905081810360008301526127ca8161278e565b9050919050565b7f45524337323155524953746f726167653a2055524920736574206f66206e6f6e60008201527f6578697374656e7420746f6b656e000000000000000000000000000000000000602082015250565b600061282d602e83611e1b565b9150612838826127d1565b604082019050919050565b6000602082019050818103600083015261285c81612820565b9050919050565b60008190508160005260206000209050919050565b60006020601f8301049050919050565b600082821b905092915050565b6000600883026128c57fffffffffffffffffffffffffffffffffffffffffffffffffffffffffffffffff82612888565b6128cf8683612888565b95508019841693508086168417925050509392505050565b6000819050919050565b600061290c61290761290284611d21565b6128e7565b611d21565b9050919050565b6000819050919050565b612926836128f1565b61293a61293282612913565b848454612895565b825550505050565b600090565b61294f612942565b61295a81848461291d565b505050565b5b8181101561297e57612973600082612947565b600181019050612960565b5050565b601f8211156129c35761299481612863565b61299d84612878565b810160208510156129ac578190505b6129c06129b885612878565b83018261295f565b50505b505050565b600082821c905092915050565b60006129e6600019846008026129c8565b1980831691505092915050565b60006129ff83836129d5565b9150826002028217905092915050565b612a1882611e10565b67ffffffffffffffff811115612a3157612a30612076565b5b612a3b82546123bf565b612a46828285612982565b600060209050601f831160018114612a795760008415612a67578287015190505b612a7185826129f3565b865550612ad9565b601f198416612a8786612863565b60005b82811015612aaf57848901518255600182019150602085019450602081019050612a8a565b86831015612acc5784890151612ac8601f8916826129d5565b8355505b6001600288020188555050505b505050505050565b7f4552433732313a207472616e736665722066726f6d20696e636f72726563742060008201527f6f776e6572000000000000000000000000000000000000000000000000000000602082015250565b6000612b3d602583611e1b565b9150612b4882612ae1565b604082019050919050565b60006020820190508181036000830152612b6c81612b30565b9050919050565b7f4552433732313a207472616e7366657220746f20746865207a65726f2061646460008201527f7265737300000000000000000000000000000000000000000000000000000000602082015250565b6000612bcf602483611e1b565b9150612bda82612b73565b604082019050919050565b60006020820190508181036000830152612bfe81612bc2565b9050919050565b7f4552433732313a20617070726f766520746f2063616c6c657200000000000000600082015250565b6000612c3b601983611e1b565b9150612c4682612c05565b602082019050919050565b60006020820190508181036000830152612c6a81612c2e565b9050919050565b7f4552433732313a207472616e7366657220746f206e6f6e20455243373231526560008201527f63656976657220696d706c656d656e7465720000000000000000000000000000602082015250565b6000612ccd603283611e1b565b9150612cd882612c71565b604082019050919050565b60006020820190508181036000830152612cfc81612cc0565b9050919050565b7f746f6b656e207472616e73666572206e6f7420616c6c6f776564000000000000600082015250565b6000612d39601a83611e1b565b9150612d4482612d03565b602082019050919050565b60006020820190508181036000830152612d6881612d2c565b9050919050565b600081519050919050565b600082825260208201905092915050565b6000612d9682612d6f565b612da08185612d7a565b9350612db0818560208601611e2c565b612db981611e56565b840191505092915050565b6000608082019050612dd96000830187611f1b565b612de66020830186611f1b565b612df36040830185611d2b565b8181036060830152612e058184612d8b565b905095945050505050565b600081519050612e1f81611d81565b92915050565b600060208284031215612e3b57612e3a611bf4565b5b6000612e4984828501612e10565b91505092915050565b7f4e487b7100000000000000000000000000000000000000000000000000000000600052601260045260246000fdfea2646970667358221220d192eb24e9e232de7e0af45d6419e9e2be0d65d45adaaffbf7bb2d476539464d64736f6c63430008110033a26469706673582212209174275c8a1ac46f9583110bf1d884571a11572307fbf99370ff94a382d8ad2f64736f6c63430008110033",
  "devdoc": {
    "kind": "dev",
    "methods": {},
    "version": 1
  },
  "userdoc": {
    "kind": "user",
    "methods": {},
    "version": 1
  },
  "storageLayout": {
    "storage": [],
    "types": null
  }
}