{
  "address": "0x7966833305d155B6411a0E0bAAD1ec8894F9319F",
  "abi": [
    {
      "inputs": [
        {
          "components": [
            {
              "internalType": "address",
              "name": "owner",
              "type": "address"
            },
            {
              "internalType": "enum DigitalSignatureTypes.AgreementStatus",
              "name": "status",
              "type": "uint8"
            },
            {
              "internalType": "uint256",
              "name": "index",
              "type": "uint256"
            },
            {
              "internalType": "string",
              "name": "identifier",
              "type": "string"
            },
            {
              "internalType": "string",
              "name": "cid",
              "type": "string"
            },
            {
              "internalType": "string",
              "name": "encryptedCid",
              "type": "string"
            },
            {
              "internalType": "string",
              "name": "descriptionCid",
              "type": "string"
            },
            {
              "internalType": "uint8",
              "name": "signedPackets",
              "type": "uint8"
            },
            {
              "internalType": "uint8",
              "name": "totalPackets",
              "type": "uint8"
            },
            {
              "components": [
                {
                  "internalType": "string",
                  "name": "identifier",
                  "type": "string"
                },
                {
                  "internalType": "address",
                  "name": "signer",
                  "type": "address"
                },
                {
                  "internalType": "uint256",
                  "name": "totalUsed",
                  "type": "uint256"
                },
                {
                  "internalType": "uint256",
                  "name": "allowedToUse",
                  "type": "uint256"
                }
              ],
              "internalType": "struct DigitalSignatureTypes.SignatureConstraint[]",
              "name": "constraints",
              "type": "tuple[]"
            },
            {
              "internalType": "address",
              "name": "agreementCallback",
              "type": "address"
            },
            {
              "internalType": "address",
              "name": "signatureCallback",
              "type": "address"
            }
          ],
          "internalType": "struct DigitalSignatureTypes.Agreement",
          "name": "agreement",
          "type": "tuple"
        },
        {
          "internalType": "bytes",
          "name": "extraInfo",
          "type": "bytes"
        }
      ],
      "name": "agreementCallback",
      "outputs": [
        {
          "components": [
            {
              "internalType": "enum DigitalSignatureTypes.AgreementStatus",
              "name": "status",
              "type": "uint8"
            },
            {
              "internalType": "address",
              "name": "signatureCallback",
              "type": "address"
            }
          ],
          "internalType": "struct AgreementCallbackResponse",
          "name": "resp",
          "type": "tuple"
        }
      ],
      "stateMutability": "nonpayable",
      "type": "function"
    }
  ],
  "transactionHash": "0x9e7050f1b81df7e00fcb8f97f4cf5420f4a3e860f45ce4e9fa3a52585e2e57ff",
  "args": [],
  "numDeployments": 1,
  "solcInputHash": "2423ecd37cb32a56ee0ebb00c30ea9a0",
  "bytecode": "0x608060405234801561001057600080fd5b506142a1806100206000396000f3fe60806040523480156200001157600080fd5b50600436106200002e5760003560e01c806365c4938d1462000033575b600080fd5b6200005160048036038101906200004b91906200089b565b62000069565b604051620000609190620009e4565b60405180910390f35b6200007362000194565b600060048111156200008a576200008962000920565b5b83602001516004811115620000a457620000a362000920565b5b0362000142576000338460600151856060015185604051620000c690620001d9565b620000d5949392919062000a9b565b604051809103906000f080158015620000f2573d6000803e3d6000fd5b5090506040518060400160405280856020015160048111156200011a576200011962000920565b5b81526020018273ffffffffffffffffffffffffffffffffffffffff168152509150506200018e565b60405180604001604052808460200151600481111562000167576200016662000920565b5b815260200184610160015173ffffffffffffffffffffffffffffffffffffffff1681525090505b92915050565b604051806040016040528060006004811115620001b657620001b562000920565b5b8152602001600073ffffffffffffffffffffffffffffffffffffffff1681525090565b61376e8062000afe83390190565b6000604051905090565b600080fd5b600080fd5b600080fd5b6000601f19601f8301169050919050565b7f4e487b7100000000000000000000000000000000000000000000000000000000600052604160045260246000fd5b6200024b8262000200565b810181811067ffffffffffffffff821117156200026d576200026c62000211565b5b80604052505050565b600062000282620001e7565b905062000290828262000240565b919050565b600080fd5b600073ffffffffffffffffffffffffffffffffffffffff82169050919050565b6000620002c7826200029a565b9050919050565b620002d981620002ba565b8114620002e557600080fd5b50565b600081359050620002f981620002ce565b92915050565b600581106200030d57600080fd5b50565b6000813590506200032181620002ff565b92915050565b6000819050919050565b6200033c8162000327565b81146200034857600080fd5b50565b6000813590506200035c8162000331565b92915050565b600080fd5b600080fd5b600067ffffffffffffffff8211156200038a576200038962000211565b5b620003958262000200565b9050602081019050919050565b82818337600083830152505050565b6000620003c8620003c2846200036c565b62000276565b905082815260208101848484011115620003e757620003e662000367565b5b620003f4848285620003a2565b509392505050565b600082601f83011262000414576200041362000362565b5b813562000426848260208601620003b1565b91505092915050565b600060ff82169050919050565b62000447816200042f565b81146200045357600080fd5b50565b60008135905062000467816200043c565b92915050565b600067ffffffffffffffff8211156200048b576200048a62000211565b5b602082029050602081019050919050565b600080fd5b600060808284031215620004ba57620004b9620001fb565b5b620004c6608062000276565b9050600082013567ffffffffffffffff811115620004e957620004e862000295565b5b620004f784828501620003fc565b60008301525060206200050d84828501620002e8565b602083015250604062000523848285016200034b565b604083015250606062000539848285016200034b565b60608301525092915050565b60006200055c62000556846200046d565b62000276565b905080838252602082019050602084028301858111156200058257620005816200049c565b5b835b81811015620005d057803567ffffffffffffffff811115620005ab57620005aa62000362565b5b808601620005ba8982620004a1565b8552602085019450505060208101905062000584565b5050509392505050565b600082601f830112620005f257620005f162000362565b5b81356200060484826020860162000545565b91505092915050565b60006101808284031215620006275762000626620001fb565b5b6200063461018062000276565b905060006200064684828501620002e8565b60008301525060206200065c8482850162000310565b602083015250604062000672848285016200034b565b604083015250606082013567ffffffffffffffff81111562000699576200069862000295565b5b620006a784828501620003fc565b606083015250608082013567ffffffffffffffff811115620006ce57620006cd62000295565b5b620006dc84828501620003fc565b60808301525060a082013567ffffffffffffffff81111562000703576200070262000295565b5b6200071184828501620003fc565b60a08301525060c082013567ffffffffffffffff81111562000738576200073762000295565b5b6200074684828501620003fc565b60c08301525060e06200075c8482850162000456565b60e083015250610100620007738482850162000456565b6101008301525061012082013567ffffffffffffffff8111156200079c576200079b62000295565b5b620007aa84828501620005da565b61012083015250610140620007c284828501620002e8565b61014083015250610160620007da84828501620002e8565b6101608301525092915050565b600067ffffffffffffffff82111562000805576200080462000211565b5b620008108262000200565b9050602081019050919050565b6000620008346200082e84620007e7565b62000276565b90508281526020810184848401111562000853576200085262000367565b5b62000860848285620003a2565b509392505050565b600082601f83011262000880576200087f62000362565b5b8135620008928482602086016200081d565b91505092915050565b60008060408385031215620008b557620008b4620001f1565b5b600083013567ffffffffffffffff811115620008d657620008d5620001f6565b5b620008e4858286016200060d565b925050602083013567ffffffffffffffff811115620009085762000907620001f6565b5b620009168582860162000868565b9150509250929050565b7f4e487b7100000000000000000000000000000000000000000000000000000000600052602160045260246000fd5b6005811062000963576200096262000920565b5b50565b600081905062000976826200094f565b919050565b6000620009888262000966565b9050919050565b6200099a816200097b565b82525050565b620009ab81620002ba565b82525050565b604082016000820151620009c960008501826200098f565b506020820151620009de6020850182620009a0565b50505050565b6000604082019050620009fb6000830184620009b1565b92915050565b62000a0c81620002ba565b82525050565b600081519050919050565b600082825260208201905092915050565b60005b8381101562000a4e57808201518184015260208101905062000a31565b60008484015250505050565b600062000a678262000a12565b62000a73818562000a1d565b935062000a8581856020860162000a2e565b62000a908162000200565b840191505092915050565b600060808201905062000ab2600083018762000a01565b818103602083015262000ac6818662000a5a565b9050818103604083015262000adc818562000a5a565b9050818103606083015262000af2818462000a5a565b90509594505050505056fe60806040523480156200001157600080fd5b506040516200376e3803806200376e8339818101604052810190620000379190620002bc565b828281600090816200004a9190620005d6565b5080600190816200005c9190620005d6565b505050600160088190555083600760006101000a81548173ffffffffffffffffffffffffffffffffffffffff021916908373ffffffffffffffffffffffffffffffffffffffff1602179055508060099081620000b99190620005d6565b5050505050620006bd565b6000604051905090565b600080fd5b600080fd5b600073ffffffffffffffffffffffffffffffffffffffff82169050919050565b60006200010582620000d8565b9050919050565b6200011781620000f8565b81146200012357600080fd5b50565b60008151905062000137816200010c565b92915050565b600080fd5b600080fd5b6000601f19601f8301169050919050565b7f4e487b7100000000000000000000000000000000000000000000000000000000600052604160045260246000fd5b620001928262000147565b810181811067ffffffffffffffff82111715620001b457620001b362000158565b5b80604052505050565b6000620001c9620000c4565b9050620001d7828262000187565b919050565b600067ffffffffffffffff821115620001fa57620001f962000158565b5b620002058262000147565b9050602081019050919050565b60005b838110156200023257808201518184015260208101905062000215565b60008484015250505050565b6000620002556200024f84620001dc565b620001bd565b90508281526020810184848401111562000274576200027362000142565b5b6200028184828562000212565b509392505050565b600082601f830112620002a157620002a06200013d565b5b8151620002b38482602086016200023e565b91505092915050565b60008060008060808587031215620002d957620002d8620000ce565b5b6000620002e98782880162000126565b945050602085015167ffffffffffffffff8111156200030d576200030c620000d3565b5b6200031b8782880162000289565b935050604085015167ffffffffffffffff8111156200033f576200033e620000d3565b5b6200034d8782880162000289565b925050606085015167ffffffffffffffff811115620003715762000370620000d3565b5b6200037f8782880162000289565b91505092959194509250565b600081519050919050565b7f4e487b7100000000000000000000000000000000000000000000000000000000600052602260045260246000fd5b60006002820490506001821680620003de57607f821691505b602082108103620003f457620003f362000396565b5b50919050565b60008190508160005260206000209050919050565b60006020601f8301049050919050565b600082821b905092915050565b6000600883026200045e7fffffffffffffffffffffffffffffffffffffffffffffffffffffffffffffffff826200041f565b6200046a86836200041f565b95508019841693508086168417925050509392505050565b6000819050919050565b6000819050919050565b6000620004b7620004b1620004ab8462000482565b6200048c565b62000482565b9050919050565b6000819050919050565b620004d38362000496565b620004eb620004e282620004be565b8484546200042c565b825550505050565b600090565b62000502620004f3565b6200050f818484620004c8565b505050565b5b8181101562000537576200052b600082620004f8565b60018101905062000515565b5050565b601f82111562000586576200055081620003fa565b6200055b846200040f565b810160208510156200056b578190505b620005836200057a856200040f565b83018262000514565b50505b505050565b600082821c905092915050565b6000620005ab600019846008026200058b565b1980831691505092915050565b6000620005c6838362000598565b9150826002028217905092915050565b620005e1826200038b565b67ffffffffffffffff811115620005fd57620005fc62000158565b5b620006098254620003c5565b620006168282856200053b565b600060209050601f8311600181146200064e576000841562000639578287015190505b620006458582620005b8565b865550620006b5565b601f1984166200065e86620003fa565b60005b82811015620006885784890151825560018201915060208501945060208101905062000661565b86831015620006a85784890151620006a4601f89168262000598565b8355505b6001600288020188555050505b505050505050565b6130a180620006cd6000396000f3fe608060405234801561001057600080fd5b50600436106101005760003560e01c8063564066f611610097578063a22cb46511610066578063a22cb465146102bf578063b88d4fde146102db578063c87b56dd146102f7578063e985e9c51461032757610100565b8063564066f6146102255780636352211e1461024157806370a082311461027157806395d89b41146102a157610100565b8063095ea7b3116100d3578063095ea7b3146101b357806323b872dd146101cf5780632ada0d54146101eb57806342842e0e1461020957610100565b806301ffc9a71461010557806306fdde0314610135578063081812fc146101535780630883a42e14610183575b600080fd5b61011f600480360381019061011a9190611c04565b610357565b60405161012c9190611c4c565b60405180910390f35b61013d610439565b60405161014a9190611cf7565b60405180910390f35b61016d60048036038101906101689190611d4f565b6104cb565b60405161017a9190611dbd565b60405180910390f35b61019d60048036038101906101989190611e69565b610511565b6040516101aa9190611c4c565b60405180910390f35b6101cd60048036038101906101c89190611ec9565b6105b5565b005b6101e960048036038101906101e49190611f09565b6106cc565b005b6101f361072c565b6040516102009190611cf7565b60405180910390f35b610223600480360381019061021e9190611f09565b6107be565b005b61023f600480360381019061023a9190612239565b6107de565b005b61025b60048036038101906102569190611d4f565b610912565b6040516102689190611dbd565b60405180910390f35b61028b600480360381019061028691906122b1565b610998565b60405161029891906122ed565b60405180910390f35b6102a9610a4f565b6040516102b69190611cf7565b60405180910390f35b6102d960048036038101906102d49190612334565b610ae1565b005b6102f560048036038101906102f09190612374565b610af7565b005b610311600480360381019061030c9190611d4f565b610b59565b60405161031e9190611cf7565b60405180910390f35b610341600480360381019061033c91906123f7565b610c6b565b60405161034e9190611c4c565b60405180910390f35b60007f80ac58cd000000000000000000000000000000000000000000000000000000007bffffffffffffffffffffffffffffffffffffffffffffffffffffffff1916827bffffffffffffffffffffffffffffffffffffffffffffffffffffffff1916148061042257507f5b5e139f000000000000000000000000000000000000000000000000000000007bffffffffffffffffffffffffffffffffffffffffffffffffffffffff1916827bffffffffffffffffffffffffffffffffffffffffffffffffffffffff1916145b80610432575061043182610cff565b5b9050919050565b60606000805461044890612466565b80601f016020809104026020016040519081016040528092919081815260200182805461047490612466565b80156104c15780601f10610496576101008083540402835291602001916104c1565b820191906000526020600020905b8154815290600101906020018083116104a457829003601f168201915b5050505050905090565b60006104d682610d69565b6004600083815260200190815260200160002060009054906101000a900473ffffffffffffffffffffffffffffffffffffffff169050919050565b600080600a60008673ffffffffffffffffffffffffffffffffffffffff1673ffffffffffffffffffffffffffffffffffffffff16815260200190815260200160002084846040516105639291906124c7565b90815260200160405180910390205490508473ffffffffffffffffffffffffffffffffffffffff1661059482610db4565b73ffffffffffffffffffffffffffffffffffffffff16149150509392505050565b60006105c082610912565b90508073ffffffffffffffffffffffffffffffffffffffff168373ffffffffffffffffffffffffffffffffffffffff1603610630576040517f08c379a000000000000000000000000000000000000000000000000000000000815260040161062790612552565b60405180910390fd5b8073ffffffffffffffffffffffffffffffffffffffff1661064f610df1565b73ffffffffffffffffffffffffffffffffffffffff16148061067e575061067d81610678610df1565b610c6b565b5b6106bd576040517f08c379a00000000000000000000000000000000000000000000000000000000081526004016106b4906125e4565b60405180910390fd5b6106c78383610df9565b505050565b6106dd6106d7610df1565b82610eb2565b61071c576040517f08c379a000000000000000000000000000000000000000000000000000000000815260040161071390612676565b60405180910390fd5b610727838383610f47565b505050565b60606009805461073b90612466565b80601f016020809104026020016040519081016040528092919081815260200182805461076790612466565b80156107b45780601f10610789576101008083540402835291602001916107b4565b820191906000526020600020905b81548152906001019060200180831161079757829003601f168201915b5050505050905090565b6107d983838360405180602001604052806000815250610af7565b505050565b3373ffffffffffffffffffffffffffffffffffffffff16600760009054906101000a900473ffffffffffffffffffffffffffffffffffffffff1673ffffffffffffffffffffffffffffffffffffffff161461086e576040517f08c379a0000000000000000000000000000000000000000000000000000000008152600401610865906126e2565b60405180910390fd5b60008190506108838360a00151600854611240565b61088f6008548261145d565b600854600a60008560a0015173ffffffffffffffffffffffffffffffffffffffff1673ffffffffffffffffffffffffffffffffffffffff168152602001908152602001600020826040516108e39190612733565b9081526020016040518091039020819055506008600081548092919061090890612779565b9190505550505050565b60008061091e83610db4565b9050600073ffffffffffffffffffffffffffffffffffffffff168173ffffffffffffffffffffffffffffffffffffffff160361098f576040517f08c379a00000000000000000000000000000000000000000000000000000000081526004016109869061280d565b60405180910390fd5b80915050919050565b60008073ffffffffffffffffffffffffffffffffffffffff168273ffffffffffffffffffffffffffffffffffffffff1603610a08576040517f08c379a00000000000000000000000000000000000000000000000000000000081526004016109ff9061289f565b60405180910390fd5b600360008373ffffffffffffffffffffffffffffffffffffffff1673ffffffffffffffffffffffffffffffffffffffff168152602001908152602001600020549050919050565b606060018054610a5e90612466565b80601f0160208091040260200160405190810160405280929190818152602001828054610a8a90612466565b8015610ad75780601f10610aac57610100808354040283529160200191610ad7565b820191906000526020600020905b815481529060010190602001808311610aba57829003601f168201915b5050505050905090565b610af3610aec610df1565b83836114ca565b5050565b610b08610b02610df1565b83610eb2565b610b47576040517f08c379a0000000000000000000000000000000000000000000000000000000008152600401610b3e90612676565b60405180910390fd5b610b5384848484611636565b50505050565b6060610b6482610d69565b6000600660008481526020019081526020016000208054610b8490612466565b80601f0160208091040260200160405190810160405280929190818152602001828054610bb090612466565b8015610bfd5780601f10610bd257610100808354040283529160200191610bfd565b820191906000526020600020905b815481529060010190602001808311610be057829003601f168201915b505050505090506000610c0e611692565b90506000815103610c23578192505050610c66565b600082511115610c58578082604051602001610c409291906128bf565b60405160208183030381529060405292505050610c66565b610c61846116a9565b925050505b919050565b6000600560008473ffffffffffffffffffffffffffffffffffffffff1673ffffffffffffffffffffffffffffffffffffffff16815260200190815260200160002060008373ffffffffffffffffffffffffffffffffffffffff1673ffffffffffffffffffffffffffffffffffffffff16815260200190815260200160002060009054906101000a900460ff16905092915050565b60007f01ffc9a7000000000000000000000000000000000000000000000000000000007bffffffffffffffffffffffffffffffffffffffffffffffffffffffff1916827bffffffffffffffffffffffffffffffffffffffffffffffffffffffff1916149050919050565b610d7281611711565b610db1576040517f08c379a0000000000000000000000000000000000000000000000000000000008152600401610da89061280d565b60405180910390fd5b50565b60006002600083815260200190815260200160002060009054906101000a900473ffffffffffffffffffffffffffffffffffffffff169050919050565b600033905090565b816004600083815260200190815260200160002060006101000a81548173ffffffffffffffffffffffffffffffffffffffff021916908373ffffffffffffffffffffffffffffffffffffffff160217905550808273ffffffffffffffffffffffffffffffffffffffff16610e6c83610912565b73ffffffffffffffffffffffffffffffffffffffff167f8c5be1e5ebec7d5bd14f71427d1e84f3dd0314c0f7b2291e5b200ac8c7c3b92560405160405180910390a45050565b600080610ebe83610912565b90508073ffffffffffffffffffffffffffffffffffffffff168473ffffffffffffffffffffffffffffffffffffffff161480610f005750610eff8185610c6b565b5b80610f3e57508373ffffffffffffffffffffffffffffffffffffffff16610f26846104cb565b73ffffffffffffffffffffffffffffffffffffffff16145b91505092915050565b8273ffffffffffffffffffffffffffffffffffffffff16610f6782610912565b73ffffffffffffffffffffffffffffffffffffffff1614610fbd576040517f08c379a0000000000000000000000000000000000000000000000000000000008152600401610fb490612955565b60405180910390fd5b600073ffffffffffffffffffffffffffffffffffffffff168273ffffffffffffffffffffffffffffffffffffffff160361102c576040517f08c379a0000000000000000000000000000000000000000000000000000000008152600401611023906129e7565b60405180910390fd5b6110398383836001611752565b8273ffffffffffffffffffffffffffffffffffffffff1661105982610912565b73ffffffffffffffffffffffffffffffffffffffff16146110af576040517f08c379a00000000000000000000000000000000000000000000000000000000081526004016110a690612955565b60405180910390fd5b6004600082815260200190815260200160002060006101000a81549073ffffffffffffffffffffffffffffffffffffffff02191690556001600360008573ffffffffffffffffffffffffffffffffffffffff1673ffffffffffffffffffffffffffffffffffffffff168152602001908152602001600020600082825403925050819055506001600360008473ffffffffffffffffffffffffffffffffffffffff1673ffffffffffffffffffffffffffffffffffffffff16815260200190815260200160002060008282540192505081905550816002600083815260200190815260200160002060006101000a81548173ffffffffffffffffffffffffffffffffffffffff021916908373ffffffffffffffffffffffffffffffffffffffff160217905550808273ffffffffffffffffffffffffffffffffffffffff168473ffffffffffffffffffffffffffffffffffffffff167fddf252ad1be2c89b69c2b068fc378daa952ba7f163c4a11628f55a4df523b3ef60405160405180910390a461123b83838360016117c7565b505050565b600073ffffffffffffffffffffffffffffffffffffffff168273ffffffffffffffffffffffffffffffffffffffff16036112af576040517f08c379a00000000000000000000000000000000000000000000000000000000081526004016112a690612a53565b60405180910390fd5b6112b881611711565b156112f8576040517f08c379a00000000000000000000000000000000000000000000000000000000081526004016112ef90612abf565b60405180910390fd5b611306600083836001611752565b61130f81611711565b1561134f576040517f08c379a000000000000000000000000000000000000000000000000000000000815260040161134690612abf565b60405180910390fd5b6001600360008473ffffffffffffffffffffffffffffffffffffffff1673ffffffffffffffffffffffffffffffffffffffff16815260200190815260200160002060008282540192505081905550816002600083815260200190815260200160002060006101000a81548173ffffffffffffffffffffffffffffffffffffffff021916908373ffffffffffffffffffffffffffffffffffffffff160217905550808273ffffffffffffffffffffffffffffffffffffffff16600073ffffffffffffffffffffffffffffffffffffffff167fddf252ad1be2c89b69c2b068fc378daa952ba7f163c4a11628f55a4df523b3ef60405160405180910390a46114596000838360016117c7565b5050565b61146682611711565b6114a5576040517f08c379a000000000000000000000000000000000000000000000000000000000815260040161149c90612b51565b60405180910390fd5b806006600084815260200190815260200160002090816114c59190612d1d565b505050565b8173ffffffffffffffffffffffffffffffffffffffff168373ffffffffffffffffffffffffffffffffffffffff1603611538576040517f08c379a000000000000000000000000000000000000000000000000000000000815260040161152f90612e3b565b60405180910390fd5b80600560008573ffffffffffffffffffffffffffffffffffffffff1673ffffffffffffffffffffffffffffffffffffffff16815260200190815260200160002060008473ffffffffffffffffffffffffffffffffffffffff1673ffffffffffffffffffffffffffffffffffffffff16815260200190815260200160002060006101000a81548160ff0219169083151502179055508173ffffffffffffffffffffffffffffffffffffffff168373ffffffffffffffffffffffffffffffffffffffff167f17307eab39ab6107e8899845ad3d59bd9653f200f220920489ca2b5937696c31836040516116299190611c4c565b60405180910390a3505050565b611641848484610f47565b61164d848484846117cd565b61168c576040517f08c379a000000000000000000000000000000000000000000000000000000000815260040161168390612ecd565b60405180910390fd5b50505050565b606060405180602001604052806000815250905090565b60606116b482610d69565b60006116be611692565b905060008151116116de5760405180602001604052806000815250611709565b806116e884611954565b6040516020016116f99291906128bf565b6040516020818303038152906040525b915050919050565b60008073ffffffffffffffffffffffffffffffffffffffff1661173383610db4565b73ffffffffffffffffffffffffffffffffffffffff1614159050919050565b600073ffffffffffffffffffffffffffffffffffffffff168473ffffffffffffffffffffffffffffffffffffffff16146117c1576040517f08c379a00000000000000000000000000000000000000000000000000000000081526004016117b890612f39565b60405180910390fd5b50505050565b50505050565b60006117ee8473ffffffffffffffffffffffffffffffffffffffff16611a22565b15611947578373ffffffffffffffffffffffffffffffffffffffff1663150b7a02611817610df1565b8786866040518563ffffffff1660e01b81526004016118399493929190612fae565b6020604051808303816000875af192505050801561187557506040513d601f19601f82011682018060405250810190611872919061300f565b60015b6118f7573d80600081146118a5576040519150601f19603f3d011682016040523d82523d6000602084013e6118aa565b606091505b5060008151036118ef576040517f08c379a00000000000000000000000000000000000000000000000000000000081526004016118e690612ecd565b60405180910390fd5b805181602001fd5b63150b7a0260e01b7bffffffffffffffffffffffffffffffffffffffffffffffffffffffff1916817bffffffffffffffffffffffffffffffffffffffffffffffffffffffff19161491505061194c565b600190505b949350505050565b60606000600161196384611a45565b01905060008167ffffffffffffffff81111561198257611981611f61565b5b6040519080825280601f01601f1916602001820160405280156119b45781602001600182028036833780820191505090505b509050600082602001820190505b600115611a17578080600190039150507f3031323334353637383961626364656600000000000000000000000000000000600a86061a8153600a8581611a0b57611a0a61303c565b5b049450600085036119c2575b819350505050919050565b6000808273ffffffffffffffffffffffffffffffffffffffff163b119050919050565b600080600090507a184f03e93ff9f4daa797ed6e38ed64bf6a1f0100000000000000008310611aa3577a184f03e93ff9f4daa797ed6e38ed64bf6a1f0100000000000000008381611a9957611a9861303c565b5b0492506040810190505b6d04ee2d6d415b85acef81000000008310611ae0576d04ee2d6d415b85acef81000000008381611ad657611ad561303c565b5b0492506020810190505b662386f26fc100008310611b0f57662386f26fc100008381611b0557611b0461303c565b5b0492506010810190505b6305f5e1008310611b38576305f5e1008381611b2e57611b2d61303c565b5b0492506008810190505b6127108310611b5d576127108381611b5357611b5261303c565b5b0492506004810190505b60648310611b805760648381611b7657611b7561303c565b5b0492506002810190505b600a8310611b8f576001810190505b80915050919050565b6000604051905090565b600080fd5b600080fd5b60007fffffffff0000000000000000000000000000000000000000000000000000000082169050919050565b611be181611bac565b8114611bec57600080fd5b50565b600081359050611bfe81611bd8565b92915050565b600060208284031215611c1a57611c19611ba2565b5b6000611c2884828501611bef565b91505092915050565b60008115159050919050565b611c4681611c31565b82525050565b6000602082019050611c616000830184611c3d565b92915050565b600081519050919050565b600082825260208201905092915050565b60005b83811015611ca1578082015181840152602081019050611c86565b60008484015250505050565b6000601f19601f8301169050919050565b6000611cc982611c67565b611cd38185611c72565b9350611ce3818560208601611c83565b611cec81611cad565b840191505092915050565b60006020820190508181036000830152611d118184611cbe565b905092915050565b6000819050919050565b611d2c81611d19565b8114611d3757600080fd5b50565b600081359050611d4981611d23565b92915050565b600060208284031215611d6557611d64611ba2565b5b6000611d7384828501611d3a565b91505092915050565b600073ffffffffffffffffffffffffffffffffffffffff82169050919050565b6000611da782611d7c565b9050919050565b611db781611d9c565b82525050565b6000602082019050611dd26000830184611dae565b92915050565b611de181611d9c565b8114611dec57600080fd5b50565b600081359050611dfe81611dd8565b92915050565b600080fd5b600080fd5b600080fd5b60008083601f840112611e2957611e28611e04565b5b8235905067ffffffffffffffff811115611e4657611e45611e09565b5b602083019150836001820283011115611e6257611e61611e0e565b5b9250929050565b600080600060408486031215611e8257611e81611ba2565b5b6000611e9086828701611def565b935050602084013567ffffffffffffffff811115611eb157611eb0611ba7565b5b611ebd86828701611e13565b92509250509250925092565b60008060408385031215611ee057611edf611ba2565b5b6000611eee85828601611def565b9250506020611eff85828601611d3a565b9150509250929050565b600080600060608486031215611f2257611f21611ba2565b5b6000611f3086828701611def565b9350506020611f4186828701611def565b9250506040611f5286828701611d3a565b9150509250925092565b600080fd5b7f4e487b7100000000000000000000000000000000000000000000000000000000600052604160045260246000fd5b611f9982611cad565b810181811067ffffffffffffffff82111715611fb857611fb7611f61565b5b80604052505050565b6000611fcb611b98565b9050611fd78282611f90565b919050565b600080fd5b600080fd5b600067ffffffffffffffff82111561200157612000611f61565b5b61200a82611cad565b9050602081019050919050565b82818337600083830152505050565b600061203961203484611fe6565b611fc1565b90508281526020810184848401111561205557612054611fe1565b5b612060848285612017565b509392505050565b600082601f83011261207d5761207c611e04565b5b813561208d848260208601612026565b91505092915050565b600061010082840312156120ad576120ac611f5c565b5b6120b8610100611fc1565b905060006120c884828501611def565b60008301525060206120dc84828501611d3a565b60208301525060406120f084828501611d3a565b604083015250606082013567ffffffffffffffff81111561211457612113611fdc565b5b61212084828501612068565b606083015250608082013567ffffffffffffffff81111561214457612143611fdc565b5b61215084828501612068565b60808301525060a061216484828501611def565b60a08301525060c061217884828501611d3a565b60c08301525060e061218c84828501611d3a565b60e08301525092915050565b600067ffffffffffffffff8211156121b3576121b2611f61565b5b6121bc82611cad565b9050602081019050919050565b60006121dc6121d784612198565b611fc1565b9050828152602081018484840111156121f8576121f7611fe1565b5b612203848285612017565b509392505050565b600082601f8301126122205761221f611e04565b5b81356122308482602086016121c9565b91505092915050565b600080604083850312156122505761224f611ba2565b5b600083013567ffffffffffffffff81111561226e5761226d611ba7565b5b61227a85828601612096565b925050602083013567ffffffffffffffff81111561229b5761229a611ba7565b5b6122a78582860161220b565b9150509250929050565b6000602082840312156122c7576122c6611ba2565b5b60006122d584828501611def565b91505092915050565b6122e781611d19565b82525050565b600060208201905061230260008301846122de565b92915050565b61231181611c31565b811461231c57600080fd5b50565b60008135905061232e81612308565b92915050565b6000806040838503121561234b5761234a611ba2565b5b600061235985828601611def565b925050602061236a8582860161231f565b9150509250929050565b6000806000806080858703121561238e5761238d611ba2565b5b600061239c87828801611def565b94505060206123ad87828801611def565b93505060406123be87828801611d3a565b925050606085013567ffffffffffffffff8111156123df576123de611ba7565b5b6123eb8782880161220b565b91505092959194509250565b6000806040838503121561240e5761240d611ba2565b5b600061241c85828601611def565b925050602061242d85828601611def565b9150509250929050565b7f4e487b7100000000000000000000000000000000000000000000000000000000600052602260045260246000fd5b6000600282049050600182168061247e57607f821691505b60208210810361249157612490612437565b5b50919050565b600081905092915050565b60006124ae8385612497565b93506124bb838584612017565b82840190509392505050565b60006124d48284866124a2565b91508190509392505050565b7f4552433732313a20617070726f76616c20746f2063757272656e74206f776e6560008201527f7200000000000000000000000000000000000000000000000000000000000000602082015250565b600061253c602183611c72565b9150612547826124e0565b604082019050919050565b6000602082019050818103600083015261256b8161252f565b9050919050565b7f4552433732313a20617070726f76652063616c6c6572206973206e6f7420746f60008201527f6b656e206f776e6572206f7220617070726f76656420666f7220616c6c000000602082015250565b60006125ce603d83611c72565b91506125d982612572565b604082019050919050565b600060208201905081810360008301526125fd816125c1565b9050919050565b7f4552433732313a2063616c6c6572206973206e6f7420746f6b656e206f776e6560008201527f72206f7220617070726f76656400000000000000000000000000000000000000602082015250565b6000612660602d83611c72565b915061266b82612604565b604082019050919050565b6000602082019050818103600083015261268f81612653565b9050919050565b7f4f6e6c79206f776e65722063616e206d696e74204e4654730000000000000000600082015250565b60006126cc601883611c72565b91506126d782612696565b602082019050919050565b600060208201905081810360008301526126fb816126bf565b9050919050565b600061270d82611c67565b6127178185612497565b9350612727818560208601611c83565b80840191505092915050565b600061273f8284612702565b915081905092915050565b7f4e487b7100000000000000000000000000000000000000000000000000000000600052601160045260246000fd5b600061278482611d19565b91507fffffffffffffffffffffffffffffffffffffffffffffffffffffffffffffffff82036127b6576127b561274a565b5b600182019050919050565b7f4552433732313a20696e76616c696420746f6b656e2049440000000000000000600082015250565b60006127f7601883611c72565b9150612802826127c1565b602082019050919050565b60006020820190508181036000830152612826816127ea565b9050919050565b7f4552433732313a2061646472657373207a65726f206973206e6f74206120766160008201527f6c6964206f776e65720000000000000000000000000000000000000000000000602082015250565b6000612889602983611c72565b91506128948261282d565b604082019050919050565b600060208201905081810360008301526128b88161287c565b9050919050565b60006128cb8285612702565b91506128d78284612702565b91508190509392505050565b7f4552433732313a207472616e736665722066726f6d20696e636f72726563742060008201527f6f776e6572000000000000000000000000000000000000000000000000000000602082015250565b600061293f602583611c72565b915061294a826128e3565b604082019050919050565b6000602082019050818103600083015261296e81612932565b9050919050565b7f4552433732313a207472616e7366657220746f20746865207a65726f2061646460008201527f7265737300000000000000000000000000000000000000000000000000000000602082015250565b60006129d1602483611c72565b91506129dc82612975565b604082019050919050565b60006020820190508181036000830152612a00816129c4565b9050919050565b7f4552433732313a206d696e7420746f20746865207a65726f2061646472657373600082015250565b6000612a3d602083611c72565b9150612a4882612a07565b602082019050919050565b60006020820190508181036000830152612a6c81612a30565b9050919050565b7f4552433732313a20746f6b656e20616c7265616479206d696e74656400000000600082015250565b6000612aa9601c83611c72565b9150612ab482612a73565b602082019050919050565b60006020820190508181036000830152612ad881612a9c565b9050919050565b7f45524337323155524953746f726167653a2055524920736574206f66206e6f6e60008201527f6578697374656e7420746f6b656e000000000000000000000000000000000000602082015250565b6000612b3b602e83611c72565b9150612b4682612adf565b604082019050919050565b60006020820190508181036000830152612b6a81612b2e565b9050919050565b60008190508160005260206000209050919050565b60006020601f8301049050919050565b600082821b905092915050565b600060088302612bd37fffffffffffffffffffffffffffffffffffffffffffffffffffffffffffffffff82612b96565b612bdd8683612b96565b95508019841693508086168417925050509392505050565b6000819050919050565b6000612c1a612c15612c1084611d19565b612bf5565b611d19565b9050919050565b6000819050919050565b612c3483612bff565b612c48612c4082612c21565b848454612ba3565b825550505050565b600090565b612c5d612c50565b612c68818484612c2b565b505050565b5b81811015612c8c57612c81600082612c55565b600181019050612c6e565b5050565b601f821115612cd157612ca281612b71565b612cab84612b86565b81016020851015612cba578190505b612cce612cc685612b86565b830182612c6d565b50505b505050565b600082821c905092915050565b6000612cf460001984600802612cd6565b1980831691505092915050565b6000612d0d8383612ce3565b9150826002028217905092915050565b612d2682611c67565b67ffffffffffffffff811115612d3f57612d3e611f61565b5b612d498254612466565b612d54828285612c90565b600060209050601f831160018114612d875760008415612d75578287015190505b612d7f8582612d01565b865550612de7565b601f198416612d9586612b71565b60005b82811015612dbd57848901518255600182019150602085019450602081019050612d98565b86831015612dda5784890151612dd6601f891682612ce3565b8355505b6001600288020188555050505b505050505050565b7f4552433732313a20617070726f766520746f2063616c6c657200000000000000600082015250565b6000612e25601983611c72565b9150612e3082612def565b602082019050919050565b60006020820190508181036000830152612e5481612e18565b9050919050565b7f4552433732313a207472616e7366657220746f206e6f6e20455243373231526560008201527f63656976657220696d706c656d656e7465720000000000000000000000000000602082015250565b6000612eb7603283611c72565b9150612ec282612e5b565b604082019050919050565b60006020820190508181036000830152612ee681612eaa565b9050919050565b7f746f6b656e207472616e73666572206e6f7420616c6c6f776564000000000000600082015250565b6000612f23601a83611c72565b9150612f2e82612eed565b602082019050919050565b60006020820190508181036000830152612f5281612f16565b9050919050565b600081519050919050565b600082825260208201905092915050565b6000612f8082612f59565b612f8a8185612f64565b9350612f9a818560208601611c83565b612fa381611cad565b840191505092915050565b6000608082019050612fc36000830187611dae565b612fd06020830186611dae565b612fdd60408301856122de565b8181036060830152612fef8184612f75565b905095945050505050565b60008151905061300981611bd8565b92915050565b60006020828403121561302557613024611ba2565b5b600061303384828501612ffa565b91505092915050565b7f4e487b7100000000000000000000000000000000000000000000000000000000600052601260045260246000fdfea2646970667358221220a764be28e77eb864ec8f2e45292ed3b381693a2e2414e30b944f66880a100e5764736f6c63430008110033a2646970667358221220162796088c2552908a4df59bfa24f588857354add79369312a0dd13c435cf2e164736f6c63430008110033",
  "devdoc": {
    "kind": "dev",
    "methods": {},
    "version": 1
  },
  "userdoc": {
    "kind": "user",
    "methods": {},
    "version": 1
  },
  "storageLayout": {
    "storage": [],
    "types": null
  }
}