{
  "address": "0xe98a7d8Dafc6b6f9c55E1382eF1EB1996edcA4d4",
  "abi": [
    {
      "inputs": [
        {
          "components": [
            {
              "internalType": "string",
              "name": "identifier",
              "type": "string"
            },
            {
              "internalType": "string",
              "name": "cid",
              "type": "string"
            },
            {
              "internalType": "string",
              "name": "encryptedCid",
              "type": "string"
            },
            {
              "internalType": "string",
              "name": "descriptionCid",
              "type": "string"
            },
            {
              "components": [
                {
                  "internalType": "string",
                  "name": "identifier",
                  "type": "string"
                },
                {
                  "internalType": "address",
                  "name": "signer",
                  "type": "address"
                },
                {
                  "internalType": "uint256",
                  "name": "totalUsed",
                  "type": "uint256"
                },
                {
                  "internalType": "uint256",
                  "name": "allowedToUse",
                  "type": "uint256"
                }
              ],
              "internalType": "struct DigitalSignatureTypes.SignatureConstraint[]",
              "name": "constraints",
              "type": "tuple[]"
            },
            {
              "internalType": "address",
              "name": "agreementCallback",
              "type": "address"
            },
            {
              "internalType": "address",
              "name": "signatureCallback",
              "type": "address"
            },
            {
              "internalType": "bytes",
              "name": "extraInfo",
              "type": "bytes"
            }
          ],
          "internalType": "struct CreateAgreementParams",
          "name": "params",
          "type": "tuple"
        }
      ],
      "name": "createAgreement",
      "outputs": [
        {
          "internalType": "uint256",
          "name": "",
          "type": "uint256"
        }
      ],
      "stateMutability": "nonpayable",
      "type": "function"
    },
    {
      "inputs": [
        {
          "internalType": "address",
          "name": "owner",
          "type": "address"
        },
        {
          "internalType": "uint256",
          "name": "offset",
          "type": "uint256"
        },
        {
          "internalType": "uint8",
          "name": "limit",
          "type": "uint8"
        }
      ],
      "name": "getAgreements",
      "outputs": [
        {
          "components": [
            {
              "internalType": "address",
              "name": "owner",
              "type": "address"
            },
            {
              "internalType": "enum DigitalSignatureTypes.AgreementStatus",
              "name": "status",
              "type": "uint8"
            },
            {
              "internalType": "uint256",
              "name": "index",
              "type": "uint256"
            },
            {
              "internalType": "string",
              "name": "identifier",
              "type": "string"
            },
            {
              "internalType": "string",
              "name": "cid",
              "type": "string"
            },
            {
              "internalType": "string",
              "name": "encryptedCid",
              "type": "string"
            },
            {
              "internalType": "string",
              "name": "descriptionCid",
              "type": "string"
            },
            {
              "internalType": "uint8",
              "name": "signedPackets",
              "type": "uint8"
            },
            {
              "internalType": "uint8",
              "name": "totalPackets",
              "type": "uint8"
            },
            {
              "components": [
                {
                  "internalType": "string",
                  "name": "identifier",
                  "type": "string"
                },
                {
                  "internalType": "address",
                  "name": "signer",
                  "type": "address"
                },
                {
                  "internalType": "uint256",
                  "name": "totalUsed",
                  "type": "uint256"
                },
                {
                  "internalType": "uint256",
                  "name": "allowedToUse",
                  "type": "uint256"
                }
              ],
              "internalType": "struct DigitalSignatureTypes.SignatureConstraint[]",
              "name": "constraints",
              "type": "tuple[]"
            },
            {
              "internalType": "address",
              "name": "agreementCallback",
              "type": "address"
            },
            {
              "internalType": "address",
              "name": "signatureCallback",
              "type": "address"
            }
          ],
          "internalType": "struct DigitalSignatureTypes.Agreement[]",
          "name": "",
          "type": "tuple[]"
        }
      ],
      "stateMutability": "view",
      "type": "function"
    },
    {
      "inputs": [],
      "name": "getProfile",
      "outputs": [
        {
          "components": [
            {
              "internalType": "uint256",
              "name": "totalAgreements",
              "type": "uint256"
            },
            {
              "internalType": "uint256",
              "name": "totalSignatures",
              "type": "uint256"
            },
            {
              "internalType": "address",
              "name": "agreementCallback",
              "type": "address"
            },
            {
              "internalType": "address",
              "name": "signatureCallback",
              "type": "address"
            }
          ],
          "internalType": "struct DigitalSignatureTypes.Profile",
          "name": "",
          "type": "tuple"
        }
      ],
      "stateMutability": "view",
      "type": "function"
    },
    {
      "inputs": [
        {
          "internalType": "address",
          "name": "owner",
          "type": "address"
        },
        {
          "internalType": "uint256",
          "name": "offset",
          "type": "uint256"
        },
        {
          "internalType": "uint8",
          "name": "limit",
          "type": "uint8"
        }
      ],
      "name": "getSignatures",
      "outputs": [
        {
          "components": [
            {
              "internalType": "address",
              "name": "agreementOwner",
              "type": "address"
            },
            {
              "internalType": "uint256",
              "name": "agreementIndex",
              "type": "uint256"
            },
            {
              "internalType": "uint256",
              "name": "index",
              "type": "uint256"
            },
            {
              "internalType": "string",
              "name": "identifier",
              "type": "string"
            },
            {
              "internalType": "string",
              "name": "encryptedCid",
              "type": "string"
            },
            {
              "internalType": "address",
              "name": "signer",
              "type": "address"
            },
            {
              "internalType": "uint256",
              "name": "timestamp",
              "type": "uint256"
            },
            {
              "internalType": "uint256",
              "name": "blockNumber",
              "type": "uint256"
            }
          ],
          "internalType": "struct DigitalSignatureTypes.SignaturePacket[]",
          "name": "",
          "type": "tuple[]"
        }
      ],
      "stateMutability": "view",
      "type": "function"
    },
    {
      "inputs": [
        {
          "internalType": "address",
          "name": "agreementCallback",
          "type": "address"
        }
      ],
      "name": "setProfileAgreementCallback",
      "outputs": [],
      "stateMutability": "nonpayable",
      "type": "function"
    },
    {
      "inputs": [
        {
          "internalType": "address",
          "name": "signatureCallback",
          "type": "address"
        }
      ],
      "name": "setProfileSignatureCallback",
      "outputs": [],
      "stateMutability": "nonpayable",
      "type": "function"
    },
    {
      "inputs": [
        {
          "components": [
            {
              "internalType": "address",
              "name": "agreementOwner",
              "type": "address"
            },
            {
              "internalType": "uint256",
              "name": "agreementIndex",
              "type": "uint256"
            },
            {
              "internalType": "string",
              "name": "identifier",
              "type": "string"
            },
            {
              "internalType": "string",
              "name": "encryptedCid",
              "type": "string"
            },
            {
              "internalType": "bytes",
              "name": "extraInfo",
              "type": "bytes"
            }
          ],
          "internalType": "struct SignParams",
          "name": "params",
          "type": "tuple"
        }
      ],
      "name": "sign",
      "outputs": [
        {
          "internalType": "uint256",
          "name": "",
          "type": "uint256"
        }
      ],
      "stateMutability": "nonpayable",
      "type": "function"
    }
  ],
  "transactionHash": "0xbd08d7e154711d5bc99a988668423aaffff2f7142fb652d972f3bc1bf3f911f6",
  "args": [],
  "numDeployments": 2,
  "solcInputHash": "2423ecd37cb32a56ee0ebb00c30ea9a0",
  "bytecode": "0x608060405234801561001057600080fd5b50613e78806100206000396000f3fe608060405234801561001057600080fd5b506004361061007d5760003560e01c8063622116b61161005b578063622116b6146100fe57806397012bef1461012e578063bc9c90561461014a578063d6afc9b11461017a5761007d565b80630a37632f1461008257806314ad09d8146100b2578063554230f9146100ce575b600080fd5b61009c60048036038101906100979190612824565b610198565b6040516100a9919061287c565b60405180910390f35b6100cc60048036038101906100c79190612897565b61051c565b005b6100e860048036038101906100e391906128fd565b6105a5565b6040516100f59190612d7a565b60405180910390f35b61011860048036038101906101139190612dc0565b610d20565b604051610125919061287c565b60405180910390f35b61014860048036038101906101439190612897565b611642565b005b610164600480360381019061015f91906128fd565b6116cb565b6040516101719190612f82565b60405180910390f35b610182611b1a565b60405161018f9190612ff9565b60405180910390f35b6000806000803273ffffffffffffffffffffffffffffffffffffffff1673ffffffffffffffffffffffffffffffffffffffff16815260200190815260200160002090506000600160003273ffffffffffffffffffffffffffffffffffffffff1673ffffffffffffffffffffffffffffffffffffffff1681526020019081526020016000206000836000015481526020019081526020016000209050328160000160006101000a81548173ffffffffffffffffffffffffffffffffffffffff021916908373ffffffffffffffffffffffffffffffffffffffff16021790555060008160000160146101000a81548160ff0219169083600481111561029e5761029d61298b565b5b02179055508160000154816001018190555083600001518160020190816102c59190613220565b5083602001518160030190816102db9190613220565b5083604001518160040190816102f19190613220565b5083606001518160050190816103079190613220565b5060008160060160006101000a81548160ff021916908360ff1602179055508360800151518160060160016101000a81548160ff021916908360ff1602179055508360a001518160080160006101000a81548173ffffffffffffffffffffffffffffffffffffffff021916908373ffffffffffffffffffffffffffffffffffffffff16021790555060005b8460800151518110156104715781600701856080015182815181106103ba576103b96132f2565b5b6020026020010151908060018154018082558091505060019003906000526020600020906004020160009091909190915060008201518160000190816104009190613220565b5060208201518160010160006101000a81548173ffffffffffffffffffffffffffffffffffffffff021916908373ffffffffffffffffffffffffffffffffffffffff16021790555060408201518160020155606082015181600301555050808061046990613350565b915050610392565b5061048182828660e00151611c30565b61048f818560e00151611db2565b600060048111156104a3576104a261298b565b5b8160000160149054906101000a900460ff1660048111156104c7576104c661298b565b5b036104fa5760018160000160146101000a81548160ff021916908360048111156104f4576104f361298b565b5b02179055505b81600001600081548092919061050f90613350565b9190505592505050919050565b60008060003273ffffffffffffffffffffffffffffffffffffffff1673ffffffffffffffffffffffffffffffffffffffff1681526020019081526020016000209050818160020160006101000a81548173ffffffffffffffffffffffffffffffffffffffff021916908373ffffffffffffffffffffffffffffffffffffffff1602179055505050565b606060008060008673ffffffffffffffffffffffffffffffffffffffff1673ffffffffffffffffffffffffffffffffffffffff16815260200190815260200160002060405180608001604052908160008201548152602001600182015481526020016002820160009054906101000a900473ffffffffffffffffffffffffffffffffffffffff1673ffffffffffffffffffffffffffffffffffffffff1673ffffffffffffffffffffffffffffffffffffffff1681526020016003820160009054906101000a900473ffffffffffffffffffffffffffffffffffffffff1673ffffffffffffffffffffffffffffffffffffffff1673ffffffffffffffffffffffffffffffffffffffff168152505090506000808583600001516106c79190613398565b905060008560ff1682116106db57816106e0565b8560ff165b905060008167ffffffffffffffff8111156106fe576106fd6122c9565b5b60405190808252806020026020018201604052801561073757816020015b61072461211f565b81526020019060019003908161071c5790505b50905060008890505b828961074c91906133cc565b811015610d1057600160008b73ffffffffffffffffffffffffffffffffffffffff1673ffffffffffffffffffffffffffffffffffffffff1681526020019081526020016000206000828152602001908152602001600020604051806101800160405290816000820160009054906101000a900473ffffffffffffffffffffffffffffffffffffffff1673ffffffffffffffffffffffffffffffffffffffff1673ffffffffffffffffffffffffffffffffffffffff1681526020016000820160149054906101000a900460ff16600481111561082a5761082961298b565b5b600481111561083c5761083b61298b565b5b81526020016001820154815260200160028201805461085a90613043565b80601f016020809104026020016040519081016040528092919081815260200182805461088690613043565b80156108d35780601f106108a8576101008083540402835291602001916108d3565b820191906000526020600020905b8154815290600101906020018083116108b657829003601f168201915b505050505081526020016003820180546108ec90613043565b80601f016020809104026020016040519081016040528092919081815260200182805461091890613043565b80156109655780601f1061093a57610100808354040283529160200191610965565b820191906000526020600020905b81548152906001019060200180831161094857829003601f168201915b5050505050815260200160048201805461097e90613043565b80601f01602080910402602001604051908101604052809291908181526020018280546109aa90613043565b80156109f75780601f106109cc576101008083540402835291602001916109f7565b820191906000526020600020905b8154815290600101906020018083116109da57829003601f168201915b50505050508152602001600582018054610a1090613043565b80601f0160208091040260200160405190810160405280929190818152602001828054610a3c90613043565b8015610a895780601f10610a5e57610100808354040283529160200191610a89565b820191906000526020600020905b815481529060010190602001808311610a6c57829003601f168201915b505050505081526020016006820160009054906101000a900460ff1660ff1660ff1681526020016006820160019054906101000a900460ff1660ff1660ff16815260200160078201805480602002602001604051908101604052809291908181526020016000905b82821015610c1f5783829060005260206000209060040201604051806080016040529081600082018054610b2490613043565b80601f0160208091040260200160405190810160405280929190818152602001828054610b5090613043565b8015610b9d5780601f10610b7257610100808354040283529160200191610b9d565b820191906000526020600020905b815481529060010190602001808311610b8057829003601f168201915b505050505081526020016001820160009054906101000a900473ffffffffffffffffffffffffffffffffffffffff1673ffffffffffffffffffffffffffffffffffffffff1673ffffffffffffffffffffffffffffffffffffffff1681526020016002820154815260200160038201548152505081526020019060010190610af1565b5050505081526020016008820160009054906101000a900473ffffffffffffffffffffffffffffffffffffffff1673ffffffffffffffffffffffffffffffffffffffff1673ffffffffffffffffffffffffffffffffffffffff1681526020016009820160009054906101000a900473ffffffffffffffffffffffffffffffffffffffff1673ffffffffffffffffffffffffffffffffffffffff1673ffffffffffffffffffffffffffffffffffffffff1681525050828680610cdf90613350565b975081518110610cf257610cf16132f2565b5b60200260200101819052508080610d0890613350565b915050610740565b5080955050505050509392505050565b60008060016000846000016020810190610d3a9190612897565b73ffffffffffffffffffffffffffffffffffffffff1673ffffffffffffffffffffffffffffffffffffffff1681526020019081526020016000206000846020013581526020019081526020016000209050826000016020810190610d9e9190612897565b73ffffffffffffffffffffffffffffffffffffffff168160000160009054906101000a900473ffffffffffffffffffffffffffffffffffffffff1673ffffffffffffffffffffffffffffffffffffffff1614610e2f576040517f08c379a0000000000000000000000000000000000000000000000000000000008152600401610e269061345d565b60405180910390fd5b60016004811115610e4357610e4261298b565b5b8160000160149054906101000a900460ff166004811115610e6757610e6661298b565b5b14610ea7576040517f08c379a0000000000000000000000000000000000000000000000000000000008152600401610e9e906134c9565b60405180910390fd5b6000806000905060005b836007018054905081101561113b57858060400190610ed091906134f8565b604051602001610ee192919061358b565b60405160208183030381529060405280519060200120846007018281548110610f0d57610f0c6132f2565b5b9060005260206000209060040201600001604051602001610f2e9190613627565b60405160208183030381529060405280519060200120036111285760019150836007018181548110610f6357610f626132f2565b5b90600052602060002090600402019250600083600301541480610f8d575082600301548360020154105b610fcc576040517f08c379a0000000000000000000000000000000000000000000000000000000008152600401610fc39061368a565b60405180910390fd5b3273ffffffffffffffffffffffffffffffffffffffff168360010160009054906101000a900473ffffffffffffffffffffffffffffffffffffffff1673ffffffffffffffffffffffffffffffffffffffff16148061107a5750600073ffffffffffffffffffffffffffffffffffffffff168360010160009054906101000a900473ffffffffffffffffffffffffffffffffffffffff1673ffffffffffffffffffffffffffffffffffffffff16145b6110b9576040517f08c379a00000000000000000000000000000000000000000000000000000000081526004016110b0906136f6565b60405180910390fd5b8260020160008154809291906110ce90613350565b9190505550600183600301540361112357328360010160006101000a81548173ffffffffffffffffffffffffffffffffffffffff021916908373ffffffffffffffffffffffffffffffffffffffff1602179055505b61113b565b808061113390613350565b915050610eb1565b508061117c576040517f08c379a000000000000000000000000000000000000000000000000000000000815260040161117390613762565b60405180910390fd5b60008060003273ffffffffffffffffffffffffffffffffffffffff1673ffffffffffffffffffffffffffffffffffffffff168152602001908152602001600020905060006040518061010001604052808660000160009054906101000a900473ffffffffffffffffffffffffffffffffffffffff1673ffffffffffffffffffffffffffffffffffffffff168152602001866001015481526020018360010154815260200188806040019061123091906134f8565b8080601f016020809104026020016040519081016040528093929190818152602001838380828437600081840152601f19601f82011690508083019250505050505050815260200188806060019061128891906134f8565b8080601f016020809104026020016040519081016040528093929190818152602001838380828437600081840152601f19601f8201169050808301925050505050505081526020013273ffffffffffffffffffffffffffffffffffffffff168152602001428152602001438152509050611355828289806080019061130d9190613782565b8080601f016020809104026020016040519081016040528093929190818152602001838380828437600081840152601f19601f82011690508083019250505050505050611f33565b6113b2858289806080019061136a9190613782565b8080601f016020809104026020016040519081016040528093929190818152602001838380828437600081840152601f19601f82011690508083019250505050505050612029565b80600260003273ffffffffffffffffffffffffffffffffffffffff1673ffffffffffffffffffffffffffffffffffffffff16815260200190815260200160002060008460010154815260200190815260200160002060008201518160000160006101000a81548173ffffffffffffffffffffffffffffffffffffffff021916908373ffffffffffffffffffffffffffffffffffffffff160217905550602082015181600101556040820151816002015560608201518160030190816114779190613220565b50608082015181600401908161148d9190613220565b5060a08201518160050160006101000a81548173ffffffffffffffffffffffffffffffffffffffff021916908373ffffffffffffffffffffffffffffffffffffffff16021790555060c0820151816006015560e0820151816007015590505084600601600081819054906101000a900460ff168092919061150d906137e5565b91906101000a81548160ff021916908360ff160217905550508460060160019054906101000a900460ff1660ff168560060160009054906101000a900460ff1660ff160361161d5760028560000160146101000a81548160ff0219169083600481111561157d5761157c61298b565b5b021790555060008060008760000160009054906101000a900473ffffffffffffffffffffffffffffffffffffffff1673ffffffffffffffffffffffffffffffffffffffff1673ffffffffffffffffffffffffffffffffffffffff1681526020019081526020016000209050611602818760405180602001604052806000815250611c30565b61161b8660405180602001604052806000815250611db2565b505b81600101600081548092919061163290613350565b9190505595505050505050919050565b60008060003273ffffffffffffffffffffffffffffffffffffffff1673ffffffffffffffffffffffffffffffffffffffff1681526020019081526020016000209050818160030160006101000a81548173ffffffffffffffffffffffffffffffffffffffff021916908373ffffffffffffffffffffffffffffffffffffffff1602179055505050565b606060008060008673ffffffffffffffffffffffffffffffffffffffff1673ffffffffffffffffffffffffffffffffffffffff16815260200190815260200160002060405180608001604052908160008201548152602001600182015481526020016002820160009054906101000a900473ffffffffffffffffffffffffffffffffffffffff1673ffffffffffffffffffffffffffffffffffffffff1673ffffffffffffffffffffffffffffffffffffffff1681526020016003820160009054906101000a900473ffffffffffffffffffffffffffffffffffffffff1673ffffffffffffffffffffffffffffffffffffffff1673ffffffffffffffffffffffffffffffffffffffff168152505090506000808583602001516117ed9190613398565b905060008560ff1682116118015781611806565b8560ff165b905060008167ffffffffffffffff811115611824576118236122c9565b5b60405190808252806020026020018201604052801561185d57816020015b61184a6121da565b8152602001906001900390816118425790505b50905060008890505b828961187291906133cc565b811015611b0a57600260008b73ffffffffffffffffffffffffffffffffffffffff1673ffffffffffffffffffffffffffffffffffffffff1681526020019081526020016000206000828152602001908152602001600020604051806101000160405290816000820160009054906101000a900473ffffffffffffffffffffffffffffffffffffffff1673ffffffffffffffffffffffffffffffffffffffff1673ffffffffffffffffffffffffffffffffffffffff168152602001600182015481526020016002820154815260200160038201805461194f90613043565b80601f016020809104026020016040519081016040528092919081815260200182805461197b90613043565b80156119c85780601f1061199d576101008083540402835291602001916119c8565b820191906000526020600020905b8154815290600101906020018083116119ab57829003601f168201915b505050505081526020016004820180546119e190613043565b80601f0160208091040260200160405190810160405280929190818152602001828054611a0d90613043565b8015611a5a5780601f10611a2f57610100808354040283529160200191611a5a565b820191906000526020600020905b815481529060010190602001808311611a3d57829003601f168201915b505050505081526020016005820160009054906101000a900473ffffffffffffffffffffffffffffffffffffffff1673ffffffffffffffffffffffffffffffffffffffff1673ffffffffffffffffffffffffffffffffffffffff16815260200160068201548152602001600782015481525050828680611ad990613350565b975081518110611aec57611aeb6132f2565b5b60200260200101819052508080611b0290613350565b915050611866565b5080955050505050509392505050565b611b2261224b565b6000803273ffffffffffffffffffffffffffffffffffffffff1673ffffffffffffffffffffffffffffffffffffffff16815260200190815260200160002060405180608001604052908160008201548152602001600182015481526020016002820160009054906101000a900473ffffffffffffffffffffffffffffffffffffffff1673ffffffffffffffffffffffffffffffffffffffff1673ffffffffffffffffffffffffffffffffffffffff1681526020016003820160009054906101000a900473ffffffffffffffffffffffffffffffffffffffff1673ffffffffffffffffffffffffffffffffffffffff1673ffffffffffffffffffffffffffffffffffffffff1681525050905090565b600073ffffffffffffffffffffffffffffffffffffffff168360020160009054906101000a900473ffffffffffffffffffffffffffffffffffffffff1673ffffffffffffffffffffffffffffffffffffffff160315611dad5760008360020160009054906101000a900473ffffffffffffffffffffffffffffffffffffffff16905060008173ffffffffffffffffffffffffffffffffffffffff166365c4938d85856040518363ffffffff1660e01b8152600401611cef929190613c66565b60408051808303816000875af1158015611d0d573d6000803e3d6000fd5b505050506040513d601f19601f82011682018060405250810190611d319190613d27565b905080600001518460000160146101000a81548160ff02191690836004811115611d5e57611d5d61298b565b5b021790555080602001518460090160006101000a81548173ffffffffffffffffffffffffffffffffffffffff021916908373ffffffffffffffffffffffffffffffffffffffff16021790555050505b505050565b600073ffffffffffffffffffffffffffffffffffffffff168260080160009054906101000a900473ffffffffffffffffffffffffffffffffffffffff1673ffffffffffffffffffffffffffffffffffffffff160315611f2f5760008260080160009054906101000a900473ffffffffffffffffffffffffffffffffffffffff16905060008173ffffffffffffffffffffffffffffffffffffffff166365c4938d85856040518363ffffffff1660e01b8152600401611e71929190613c66565b60408051808303816000875af1158015611e8f573d6000803e3d6000fd5b505050506040513d601f19601f82011682018060405250810190611eb39190613d27565b905080600001518460000160146101000a81548160ff02191690836004811115611ee057611edf61298b565b5b021790555080602001518460090160006101000a81548173ffffffffffffffffffffffffffffffffffffffff021916908373ffffffffffffffffffffffffffffffffffffffff16021790555050505b5050565b600073ffffffffffffffffffffffffffffffffffffffff168360030160009054906101000a900473ffffffffffffffffffffffffffffffffffffffff1673ffffffffffffffffffffffffffffffffffffffff1603156120245760008360030160009054906101000a900473ffffffffffffffffffffffffffffffffffffffff1690508073ffffffffffffffffffffffffffffffffffffffff1663564066f684846040518363ffffffff1660e01b8152600401611ff0929190613e0b565b600060405180830381600087803b15801561200a57600080fd5b505af115801561201e573d6000803e3d6000fd5b50505050505b505050565b600073ffffffffffffffffffffffffffffffffffffffff168360090160009054906101000a900473ffffffffffffffffffffffffffffffffffffffff1673ffffffffffffffffffffffffffffffffffffffff16031561211a5760008360090160009054906101000a900473ffffffffffffffffffffffffffffffffffffffff1690508073ffffffffffffffffffffffffffffffffffffffff1663564066f684846040518363ffffffff1660e01b81526004016120e6929190613e0b565b600060405180830381600087803b15801561210057600080fd5b505af1158015612114573d6000803e3d6000fd5b50505050505b505050565b604051806101800160405280600073ffffffffffffffffffffffffffffffffffffffff1681526020016000600481111561215c5761215b61298b565b5b81526020016000815260200160608152602001606081526020016060815260200160608152602001600060ff168152602001600060ff16815260200160608152602001600073ffffffffffffffffffffffffffffffffffffffff168152602001600073ffffffffffffffffffffffffffffffffffffffff1681525090565b604051806101000160405280600073ffffffffffffffffffffffffffffffffffffffff16815260200160008152602001600081526020016060815260200160608152602001600073ffffffffffffffffffffffffffffffffffffffff16815260200160008152602001600081525090565b60405180608001604052806000815260200160008152602001600073ffffffffffffffffffffffffffffffffffffffff168152602001600073ffffffffffffffffffffffffffffffffffffffff1681525090565b6000604051905090565b600080fd5b600080fd5b600080fd5b6000601f19601f8301169050919050565b7f4e487b7100000000000000000000000000000000000000000000000000000000600052604160045260246000fd5b612301826122b8565b810181811067ffffffffffffffff821117156123205761231f6122c9565b5b80604052505050565b600061233361229f565b905061233f82826122f8565b919050565b600080fd5b600080fd5b600080fd5b600067ffffffffffffffff82111561236e5761236d6122c9565b5b612377826122b8565b9050602081019050919050565b82818337600083830152505050565b60006123a66123a184612353565b612329565b9050828152602081018484840111156123c2576123c161234e565b5b6123cd848285612384565b509392505050565b600082601f8301126123ea576123e9612349565b5b81356123fa848260208601612393565b91505092915050565b600067ffffffffffffffff82111561241e5761241d6122c9565b5b602082029050602081019050919050565b600080fd5b600073ffffffffffffffffffffffffffffffffffffffff82169050919050565b600061245f82612434565b9050919050565b61246f81612454565b811461247a57600080fd5b50565b60008135905061248c81612466565b92915050565b6000819050919050565b6124a581612492565b81146124b057600080fd5b50565b6000813590506124c28161249c565b92915050565b6000608082840312156124de576124dd6122b3565b5b6124e86080612329565b9050600082013567ffffffffffffffff81111561250857612507612344565b5b612514848285016123d5565b60008301525060206125288482850161247d565b602083015250604061253c848285016124b3565b6040830152506060612550848285016124b3565b60608301525092915050565b600061256f61256a84612403565b612329565b905080838252602082019050602084028301858111156125925761259161242f565b5b835b818110156125d957803567ffffffffffffffff8111156125b7576125b6612349565b5b8086016125c489826124c8565b85526020850194505050602081019050612594565b5050509392505050565b600082601f8301126125f8576125f7612349565b5b813561260884826020860161255c565b91505092915050565b600067ffffffffffffffff82111561262c5761262b6122c9565b5b612635826122b8565b9050602081019050919050565b600061265561265084612611565b612329565b9050828152602081018484840111156126715761267061234e565b5b61267c848285612384565b509392505050565b600082601f83011261269957612698612349565b5b81356126a9848260208601612642565b91505092915050565b600061010082840312156126c9576126c86122b3565b5b6126d4610100612329565b9050600082013567ffffffffffffffff8111156126f4576126f3612344565b5b612700848285016123d5565b600083015250602082013567ffffffffffffffff81111561272457612723612344565b5b612730848285016123d5565b602083015250604082013567ffffffffffffffff81111561275457612753612344565b5b612760848285016123d5565b604083015250606082013567ffffffffffffffff81111561278457612783612344565b5b612790848285016123d5565b606083015250608082013567ffffffffffffffff8111156127b4576127b3612344565b5b6127c0848285016125e3565b60808301525060a06127d48482850161247d565b60a08301525060c06127e88482850161247d565b60c08301525060e082013567ffffffffffffffff81111561280c5761280b612344565b5b61281884828501612684565b60e08301525092915050565b60006020828403121561283a576128396122a9565b5b600082013567ffffffffffffffff811115612858576128576122ae565b5b612864848285016126b2565b91505092915050565b61287681612492565b82525050565b6000602082019050612891600083018461286d565b92915050565b6000602082840312156128ad576128ac6122a9565b5b60006128bb8482850161247d565b91505092915050565b600060ff82169050919050565b6128da816128c4565b81146128e557600080fd5b50565b6000813590506128f7816128d1565b92915050565b600080600060608486031215612916576129156122a9565b5b60006129248682870161247d565b9350506020612935868287016124b3565b9250506040612946868287016128e8565b9150509250925092565b600081519050919050565b600082825260208201905092915050565b6000819050602082019050919050565b61298581612454565b82525050565b7f4e487b7100000000000000000000000000000000000000000000000000000000600052602160045260246000fd5b600581106129cb576129ca61298b565b5b50565b60008190506129dc826129ba565b919050565b60006129ec826129ce565b9050919050565b6129fc816129e1565b82525050565b612a0b81612492565b82525050565b600081519050919050565b600082825260208201905092915050565b60005b83811015612a4b578082015181840152602081019050612a30565b60008484015250505050565b6000612a6282612a11565b612a6c8185612a1c565b9350612a7c818560208601612a2d565b612a85816122b8565b840191505092915050565b612a99816128c4565b82525050565b600081519050919050565b600082825260208201905092915050565b6000819050602082019050919050565b60006080830160008301518482036000860152612ae88282612a57565b9150506020830151612afd602086018261297c565b506040830151612b106040860182612a02565b506060830151612b236060860182612a02565b508091505092915050565b6000612b3a8383612acb565b905092915050565b6000602082019050919050565b6000612b5a82612a9f565b612b648185612aaa565b935083602082028501612b7685612abb565b8060005b85811015612bb25784840389528151612b938582612b2e565b9450612b9e83612b42565b925060208a01995050600181019050612b7a565b50829750879550505050505092915050565b600061018083016000830151612bdd600086018261297c565b506020830151612bf060208601826129f3565b506040830151612c036040860182612a02565b5060608301518482036060860152612c1b8282612a57565b91505060808301518482036080860152612c358282612a57565b91505060a083015184820360a0860152612c4f8282612a57565b91505060c083015184820360c0860152612c698282612a57565b91505060e0830151612c7e60e0860182612a90565b50610100830151612c93610100860182612a90565b50610120830151848203610120860152612cad8282612b4f565b915050610140830151612cc461014086018261297c565b50610160830151612cd961016086018261297c565b508091505092915050565b6000612cf08383612bc4565b905092915050565b6000602082019050919050565b6000612d1082612950565b612d1a818561295b565b935083602082028501612d2c8561296c565b8060005b85811015612d685784840389528151612d498582612ce4565b9450612d5483612cf8565b925060208a01995050600181019050612d30565b50829750879550505050505092915050565b60006020820190508181036000830152612d948184612d05565b905092915050565b600080fd5b600060a08284031215612db757612db6612d9c565b5b81905092915050565b600060208284031215612dd657612dd56122a9565b5b600082013567ffffffffffffffff811115612df457612df36122ae565b5b612e0084828501612da1565b91505092915050565b600081519050919050565b600082825260208201905092915050565b6000819050602082019050919050565b600061010083016000830151612e4e600086018261297c565b506020830151612e616020860182612a02565b506040830151612e746040860182612a02565b5060608301518482036060860152612e8c8282612a57565b91505060808301518482036080860152612ea68282612a57565b91505060a0830151612ebb60a086018261297c565b5060c0830151612ece60c0860182612a02565b5060e0830151612ee160e0860182612a02565b508091505092915050565b6000612ef88383612e35565b905092915050565b6000602082019050919050565b6000612f1882612e09565b612f228185612e14565b935083602082028501612f3485612e25565b8060005b85811015612f705784840389528151612f518582612eec565b9450612f5c83612f00565b925060208a01995050600181019050612f38565b50829750879550505050505092915050565b60006020820190508181036000830152612f9c8184612f0d565b905092915050565b608082016000820151612fba6000850182612a02565b506020820151612fcd6020850182612a02565b506040820151612fe0604085018261297c565b506060820151612ff3606085018261297c565b50505050565b600060808201905061300e6000830184612fa4565b92915050565b7f4e487b7100000000000000000000000000000000000000000000000000000000600052602260045260246000fd5b6000600282049050600182168061305b57607f821691505b60208210810361306e5761306d613014565b5b50919050565b60008190508160005260206000209050919050565b60006020601f8301049050919050565b600082821b905092915050565b6000600883026130d67fffffffffffffffffffffffffffffffffffffffffffffffffffffffffffffffff82613099565b6130e08683613099565b95508019841693508086168417925050509392505050565b6000819050919050565b600061311d61311861311384612492565b6130f8565b612492565b9050919050565b6000819050919050565b61313783613102565b61314b61314382613124565b8484546130a6565b825550505050565b600090565b613160613153565b61316b81848461312e565b505050565b5b8181101561318f57613184600082613158565b600181019050613171565b5050565b601f8211156131d4576131a581613074565b6131ae84613089565b810160208510156131bd578190505b6131d16131c985613089565b830182613170565b50505b505050565b600082821c905092915050565b60006131f7600019846008026131d9565b1980831691505092915050565b600061321083836131e6565b9150826002028217905092915050565b61322982612a11565b67ffffffffffffffff811115613242576132416122c9565b5b61324c8254613043565b613257828285613193565b600060209050601f83116001811461328a5760008415613278578287015190505b6132828582613204565b8655506132ea565b601f19841661329886613074565b60005b828110156132c05784890151825560018201915060208501945060208101905061329b565b868310156132dd57848901516132d9601f8916826131e6565b8355505b6001600288020188555050505b505050505050565b7f4e487b7100000000000000000000000000000000000000000000000000000000600052603260045260246000fd5b7f4e487b7100000000000000000000000000000000000000000000000000000000600052601160045260246000fd5b600061335b82612492565b91507fffffffffffffffffffffffffffffffffffffffffffffffffffffffffffffffff820361338d5761338c613321565b5b600182019050919050565b60006133a382612492565b91506133ae83612492565b92508282039050818111156133c6576133c5613321565b5b92915050565b60006133d782612492565b91506133e283612492565b92508282019050808211156133fa576133f9613321565b5b92915050565b600082825260208201905092915050565b7f496e76616c69642061677265656d656e74000000000000000000000000000000600082015250565b6000613447601183613400565b915061345282613411565b602082019050919050565b600060208201905081810360008301526134768161343a565b9050919050565b7f41677265656d656e74206973206e6f742050454e44494e470000000000000000600082015250565b60006134b3601883613400565b91506134be8261347d565b602082019050919050565b600060208201905081810360008301526134e2816134a6565b9050919050565b600080fd5b600080fd5b600080fd5b60008083356001602003843603038112613515576135146134e9565b5b80840192508235915067ffffffffffffffff821115613537576135366134ee565b5b602083019250600182023603831315613553576135526134f3565b5b509250929050565b600081905092915050565b6000613572838561355b565b935061357f838584612384565b82840190509392505050565b6000613598828486613566565b91508190509392505050565b600081546135b181613043565b6135bb818661355b565b945060018216600081146135d657600181146135eb5761361e565b60ff198316865281151582028601935061361e565b6135f485613074565b60005b83811015613616578154818901526001820191506020810190506135f7565b838801955050505b50505092915050565b600061363382846135a4565b915081905092915050565b7f5369676e617475726520616c7265616479206761746865726564000000000000600082015250565b6000613674601a83613400565b915061367f8261363e565b602082019050919050565b600060208201905081810360008301526136a381613667565b9050919050565b7f4d69736d617463686564207369676e6572000000000000000000000000000000600082015250565b60006136e0601183613400565b91506136eb826136aa565b602082019050919050565b6000602082019050818103600083015261370f816136d3565b9050919050565b7f4d697373696e67207369676e617475726520636f6e73747261696e7400000000600082015250565b600061374c601c83613400565b915061375782613716565b602082019050919050565b6000602082019050818103600083015261377b8161373f565b9050919050565b6000808335600160200384360303811261379f5761379e6134e9565b5b80840192508235915067ffffffffffffffff8211156137c1576137c06134ee565b5b6020830192506001820236038313156137dd576137dc6134f3565b5b509250929050565b60006137f0826128c4565b915060ff820361380357613802613321565b5b600182019050919050565b60008160001c9050919050565b600073ffffffffffffffffffffffffffffffffffffffff82169050919050565b600061384e6138498361380e565b61381b565b9050919050565b60008160a01c9050919050565b600060ff82169050919050565b600061388261387d83613855565b613862565b9050919050565b6000819050919050565b60006138a66138a18361380e565b613889565b9050919050565b600081546138ba81613043565b6138c48186612a1c565b945060018216600081146138df57600181146138f557613928565b60ff198316865281151560200286019350613928565b6138fe85613074565b60005b8381101561392057815481890152600182019150602081019050613901565b808801955050505b50505092915050565b600060ff82169050919050565b600061395161394c8361380e565b613931565b9050919050565b60008160081c9050919050565b600061397861397383613958565b613931565b9050919050565b600081549050919050565b60008190508160005260206000209050919050565b600060808301600080840185830360008701526139bc83826138ad565b925050600184015490506139cf8161383b565b6139dc602087018261297c565b50600284015490506139ed81613893565b6139fa6040870182612a02565b5060038401549050613a0b81613893565b613a186060870182612a02565b50819250505092915050565b6000613a30838361399f565b905092915050565b6000600482019050919050565b6000613a508261397f565b613a5a8185612aaa565b935083602082028501613a6c8561398a565b8060005b85811015613aa757848403895281613a888582613a24565b9450613a9383613a38565b925060208a01995050600181019050613a70565b50829750879550505050505092915050565b600061018083016000808401549050613ad18161383b565b613ade600087018261297c565b50613ae88161386f565b613af560208701826129f3565b5060018401549050613b0681613893565b613b136040870182612a02565b50600284018583036060870152613b2a83826138ad565b925050600384018583036080870152613b4383826138ad565b9250506004840185830360a0870152613b5c83826138ad565b9250506005840185830360c0870152613b7583826138ad565b92505060068401549050613b888161393e565b613b9560e0870182612a90565b50613b9f81613965565b613bad610100870182612a90565b5060078401858303610120870152613bc58382613a45565b92505060088401549050613bd88161383b565b613be661014087018261297c565b5060098401549050613bf78161383b565b613c0561016087018261297c565b50819250505092915050565b600081519050919050565b600082825260208201905092915050565b6000613c3882613c11565b613c428185613c1c565b9350613c52818560208601612a2d565b613c5b816122b8565b840191505092915050565b60006040820190508181036000830152613c808185613ab9565b90508181036020830152613c948184613c2d565b90509392505050565b60058110613caa57600080fd5b50565b600081519050613cbc81613c9d565b92915050565b600081519050613cd181612466565b92915050565b600060408284031215613ced57613cec6122b3565b5b613cf76040612329565b90506000613d0784828501613cad565b6000830152506020613d1b84828501613cc2565b60208301525092915050565b600060408284031215613d3d57613d3c6122a9565b5b6000613d4b84828501613cd7565b91505092915050565b600061010083016000830151613d6d600086018261297c565b506020830151613d806020860182612a02565b506040830151613d936040860182612a02565b5060608301518482036060860152613dab8282612a57565b91505060808301518482036080860152613dc58282612a57565b91505060a0830151613dda60a086018261297c565b5060c0830151613ded60c0860182612a02565b5060e0830151613e0060e0860182612a02565b508091505092915050565b60006040820190508181036000830152613e258185613d54565b90508181036020830152613e398184613c2d565b9050939250505056fea2646970667358221220e1263a1ae4db47c9d5e434dd10e242ddb0cb6ad975e0924e9352727d2f30641264736f6c63430008110033",
  "devdoc": {
    "kind": "dev",
    "methods": {},
    "version": 1
  },
  "userdoc": {
    "kind": "user",
    "methods": {},
    "version": 1
  },
  "storageLayout": {
    "storage": [
      {
        "astId": 2700,
        "contract": "contracts/DigitalSignature.sol:DigitalSignature",
        "label": "profiles",
        "offset": 0,
        "slot": "0",
        "type": "t_mapping(t_address,t_struct(Profile)4089_storage)"
      },
      {
        "astId": 2707,
        "contract": "contracts/DigitalSignature.sol:DigitalSignature",
        "label": "agreements",
        "offset": 0,
        "slot": "1",
        "type": "t_mapping(t_address,t_mapping(t_uint256,t_struct(Agreement)4126_storage))"
      },
      {
        "astId": 2714,
        "contract": "contracts/DigitalSignature.sol:DigitalSignature",
        "label": "packets",
        "offset": 0,
        "slot": "2",
        "type": "t_mapping(t_address,t_mapping(t_uint256,t_struct(SignaturePacket)4143_storage))"
      }
    ],
    "types": {
      "t_address": {
        "encoding": "inplace",
        "label": "address",
        "numberOfBytes": "20"
      },
      "t_array(t_struct(SignatureConstraint)4098_storage)dyn_storage": {
        "base": "t_struct(SignatureConstraint)4098_storage",
        "encoding": "dynamic_array",
        "label": "struct DigitalSignatureTypes.SignatureConstraint[]",
        "numberOfBytes": "32"
      },
      "t_enum(AgreementStatus)4080": {
        "encoding": "inplace",
        "label": "enum DigitalSignatureTypes.AgreementStatus",
        "numberOfBytes": "1"
      },
      "t_mapping(t_address,t_mapping(t_uint256,t_struct(Agreement)4126_storage))": {
        "encoding": "mapping",
        "key": "t_address",
        "label": "mapping(address => mapping(uint256 => struct DigitalSignatureTypes.Agreement))",
        "numberOfBytes": "32",
        "value": "t_mapping(t_uint256,t_struct(Agreement)4126_storage)"
      },
      "t_mapping(t_address,t_mapping(t_uint256,t_struct(SignaturePacket)4143_storage))": {
        "encoding": "mapping",
        "key": "t_address",
        "label": "mapping(address => mapping(uint256 => struct DigitalSignatureTypes.SignaturePacket))",
        "numberOfBytes": "32",
        "value": "t_mapping(t_uint256,t_struct(SignaturePacket)4143_storage)"
      },
      "t_mapping(t_address,t_struct(Profile)4089_storage)": {
        "encoding": "mapping",
        "key": "t_address",
        "label": "mapping(address => struct DigitalSignatureTypes.Profile)",
        "numberOfBytes": "32",
        "value": "t_struct(Profile)4089_storage"
      },
      "t_mapping(t_uint256,t_struct(Agreement)4126_storage)": {
        "encoding": "mapping",
        "key": "t_uint256",
        "label": "mapping(uint256 => struct DigitalSignatureTypes.Agreement)",
        "numberOfBytes": "32",
        "value": "t_struct(Agreement)4126_storage"
      },
      "t_mapping(t_uint256,t_struct(SignaturePacket)4143_storage)": {
        "encoding": "mapping",
        "key": "t_uint256",
        "label": "mapping(uint256 => struct DigitalSignatureTypes.SignaturePacket)",
        "numberOfBytes": "32",
        "value": "t_struct(SignaturePacket)4143_storage"
      },
      "t_string_storage": {
        "encoding": "bytes",
        "label": "string",
        "numberOfBytes": "32"
      },
      "t_struct(Agreement)4126_storage": {
        "encoding": "inplace",
        "label": "struct DigitalSignatureTypes.Agreement",
        "members": [
          {
            "astId": 4100,
            "contract": "contracts/DigitalSignature.sol:DigitalSignature",
            "label": "owner",
            "offset": 0,
            "slot": "0",
            "type": "t_address"
          },
          {
            "astId": 4103,
            "contract": "contracts/DigitalSignature.sol:DigitalSignature",
            "label": "status",
            "offset": 20,
            "slot": "0",
            "type": "t_enum(AgreementStatus)4080"
          },
          {
            "astId": 4105,
            "contract": "contracts/DigitalSignature.sol:DigitalSignature",
            "label": "index",
            "offset": 0,
            "slot": "1",
            "type": "t_uint256"
          },
          {
            "astId": 4107,
            "contract": "contracts/DigitalSignature.sol:DigitalSignature",
            "label": "identifier",
            "offset": 0,
            "slot": "2",
            "type": "t_string_storage"
          },
          {
            "astId": 4109,
            "contract": "contracts/DigitalSignature.sol:DigitalSignature",
            "label": "cid",
            "offset": 0,
            "slot": "3",
            "type": "t_string_storage"
          },
          {
            "astId": 4111,
            "contract": "contracts/DigitalSignature.sol:DigitalSignature",
            "label": "encryptedCid",
            "offset": 0,
            "slot": "4",
            "type": "t_string_storage"
          },
          {
            "astId": 4113,
            "contract": "contracts/DigitalSignature.sol:DigitalSignature",
            "label": "descriptionCid",
            "offset": 0,
            "slot": "5",
            "type": "t_string_storage"
          },
          {
            "astId": 4115,
            "contract": "contracts/DigitalSignature.sol:DigitalSignature",
            "label": "signedPackets",
            "offset": 0,
            "slot": "6",
            "type": "t_uint8"
          },
          {
            "astId": 4117,
            "contract": "contracts/DigitalSignature.sol:DigitalSignature",
            "label": "totalPackets",
            "offset": 1,
            "slot": "6",
            "type": "t_uint8"
          },
          {
            "astId": 4121,
            "contract": "contracts/DigitalSignature.sol:DigitalSignature",
            "label": "constraints",
            "offset": 0,
            "slot": "7",
            "type": "t_array(t_struct(SignatureConstraint)4098_storage)dyn_storage"
          },
          {
            "astId": 4123,
            "contract": "contracts/DigitalSignature.sol:DigitalSignature",
            "label": "agreementCallback",
            "offset": 0,
            "slot": "8",
            "type": "t_address"
          },
          {
            "astId": 4125,
            "contract": "contracts/DigitalSignature.sol:DigitalSignature",
            "label": "signatureCallback",
            "offset": 0,
            "slot": "9",
            "type": "t_address"
          }
        ],
        "numberOfBytes": "320"
      },
      "t_struct(Profile)4089_storage": {
        "encoding": "inplace",
        "label": "struct DigitalSignatureTypes.Profile",
        "members": [
          {
            "astId": 4082,
            "contract": "contracts/DigitalSignature.sol:DigitalSignature",
            "label": "totalAgreements",
            "offset": 0,
            "slot": "0",
            "type": "t_uint256"
          },
          {
            "astId": 4084,
            "contract": "contracts/DigitalSignature.sol:DigitalSignature",
            "label": "totalSignatures",
            "offset": 0,
            "slot": "1",
            "type": "t_uint256"
          },
          {
            "astId": 4086,
            "contract": "contracts/DigitalSignature.sol:DigitalSignature",
            "label": "agreementCallback",
            "offset": 0,
            "slot": "2",
            "type": "t_address"
          },
          {
            "astId": 4088,
            "contract": "contracts/DigitalSignature.sol:DigitalSignature",
            "label": "signatureCallback",
            "offset": 0,
            "slot": "3",
            "type": "t_address"
          }
        ],
        "numberOfBytes": "128"
      },
      "t_struct(SignatureConstraint)4098_storage": {
        "encoding": "inplace",
        "label": "struct DigitalSignatureTypes.SignatureConstraint",
        "members": [
          {
            "astId": 4091,
            "contract": "contracts/DigitalSignature.sol:DigitalSignature",
            "label": "identifier",
            "offset": 0,
            "slot": "0",
            "type": "t_string_storage"
          },
          {
            "astId": 4093,
            "contract": "contracts/DigitalSignature.sol:DigitalSignature",
            "label": "signer",
            "offset": 0,
            "slot": "1",
            "type": "t_address"
          },
          {
            "astId": 4095,
            "contract": "contracts/DigitalSignature.sol:DigitalSignature",
            "label": "totalUsed",
            "offset": 0,
            "slot": "2",
            "type": "t_uint256"
          },
          {
            "astId": 4097,
            "contract": "contracts/DigitalSignature.sol:DigitalSignature",
            "label": "allowedToUse",
            "offset": 0,
            "slot": "3",
            "type": "t_uint256"
          }
        ],
        "numberOfBytes": "128"
      },
      "t_struct(SignaturePacket)4143_storage": {
        "encoding": "inplace",
        "label": "struct DigitalSignatureTypes.SignaturePacket",
        "members": [
          {
            "astId": 4128,
            "contract": "contracts/DigitalSignature.sol:DigitalSignature",
            "label": "agreementOwner",
            "offset": 0,
            "slot": "0",
            "type": "t_address"
          },
          {
            "astId": 4130,
            "contract": "contracts/DigitalSignature.sol:DigitalSignature",
            "label": "agreementIndex",
            "offset": 0,
            "slot": "1",
            "type": "t_uint256"
          },
          {
            "astId": 4132,
            "contract": "contracts/DigitalSignature.sol:DigitalSignature",
            "label": "index",
            "offset": 0,
            "slot": "2",
            "type": "t_uint256"
          },
          {
            "astId": 4134,
            "contract": "contracts/DigitalSignature.sol:DigitalSignature",
            "label": "identifier",
            "offset": 0,
            "slot": "3",
            "type": "t_string_storage"
          },
          {
            "astId": 4136,
            "contract": "contracts/DigitalSignature.sol:DigitalSignature",
            "label": "encryptedCid",
            "offset": 0,
            "slot": "4",
            "type": "t_string_storage"
          },
          {
            "astId": 4138,
            "contract": "contracts/DigitalSignature.sol:DigitalSignature",
            "label": "signer",
            "offset": 0,
            "slot": "5",
            "type": "t_address"
          },
          {
            "astId": 4140,
            "contract": "contracts/DigitalSignature.sol:DigitalSignature",
            "label": "timestamp",
            "offset": 0,
            "slot": "6",
            "type": "t_uint256"
          },
          {
            "astId": 4142,
            "contract": "contracts/DigitalSignature.sol:DigitalSignature",
            "label": "blockNumber",
            "offset": 0,
            "slot": "7",
            "type": "t_uint256"
          }
        ],
        "numberOfBytes": "256"
      },
      "t_uint256": {
        "encoding": "inplace",
        "label": "uint256",
        "numberOfBytes": "32"
      },
      "t_uint8": {
        "encoding": "inplace",
        "label": "uint8",
        "numberOfBytes": "1"
      }
    }
  }
}